:100000000C946A000C9492000C9492000C94920050
:100010000C9492000C9492000C9492000C94920018
:100020000C9492000C9492000C9492000C9435065F
:100030000C9492000C9492000C9492000C949200F8
:100040000C9492000C9492000C9492000C949200E8
:100050000C9492000000000200000000000000006C
:100060000504000700000000000000000000000080
:100070000000000001020408102040800102040872
:100080001020408001020408102040800102040872
:100090001020408002020202020202020404040450
:1000A0000404040403030303030303030101010124
:1000B000010101010000390036003300300000006A
:1000C0003B0038003500320000003A0037003400B1
:1000D0003100350311241FBECFE5D8E0DEBFCDBF10
:1000E00011E0A0E6B0E0E2E9FFE002C005900D9269
:1000F000A438B107D9F722E0A4E8B1E001C01D920D
:10010000AA36B207E1F710E0CAE6D0E004C02197B2
:10011000FE010E94C107C936D107C9F70E94260611
:100120000C94C7070C940000EDE8F1E09F012D58F6
:1001300031402817390714F41192F8CF0895662337
:1001400029F0682F89E891E00C948C05682F89E8E4
:1001500091E00C948E05662329F0682F89E891E0E0
:100160000C94A005682F89E891E00C94B2058150A9
:10017000803508F06CC1E82FF0E0EF53FF4F0C948E
:10018000C1073701F101F301F501F701F901FB01A5
:10019000FD01FF010102030205021702EB011F012D
:1001A0001D01C301C501C701C901CB01CD01CF01AB
:1001B000D101D301C101D901D70182018801AD016B
:1001C000B9019501AF01B301BD01B5019D01A901BF
:1001D000AB01DB01DD01E901D5018D01B101930125
:1001E000970199019B019F01A101A301E301E50191
:1001F00084011101BF01BB019101B7018F01A7016A
:10020000A501DF01E101E7013901160114018A01AD
:100210002702180186011A01EF015C014C016C01F3
:100220007D0182E10C949F0084E1FCCF89E5FACF47
:1002300081E1F8CF81E10C94AB0081E7FCCF66232C
:1002400069F080918401882321F089E891E00C9481
:10025000C80560E789E891E00C94A00560E789E8AB
:1002600091E00E94B20589E891E00C94DF058EE0F0
:10027000D9CF662339F08091840165E7882351F353
:100280006DE7E8CF65E789E891E00E94B2056DE788
:1002900089E891E00C94B205662339F080918401DD
:1002A00062E78823B9F26AE7D5CF62E789E891E08F
:1002B0000E94B2056AE7ECCF662339F08091840191
:1002C0006BE6882339F26CE6C5CF6BE689E891E0EE
:1002D0000E94B2056CE6DCCF662341F08091840178
:1002E00064E7882309F4B6CF69E6B4CF64E789E808
:1002F00091E00E94B20569E6CBCF66E789E891E01C
:100300000C948E0586E68ECF8AE58CCF89E28ACF63
:100310008DE088CF6093840108958CE183CF82E3E0
:1003200081CF81E27FCF83E27DCF84E27BCF8BE2FE
:1003300079CF84E377CF83E375CF83E473CF8BE307
:1003400071CF82E46FCF8BE46DCF8AE36BCF81E313
:1003500069CF84E467CF8DE465CF85E163CF8DE21B
:1003600061CF8BE15FCF8CE25DCF8CE35BCF8AE224
:1003700059CF8DE157CF82E255CF85E353CF8AE144
:1003800051CF85E44FCF86E14DCF8EE14BCF86E252
:1003900049CF85E247CF8EE245CF86E343CF8DE359
:1003A00041CF8EE33FCF86E43DCF88E53BCF85E567
:1003B00039CF8EE437CF84E535CF8BE533CF81E479
:1003C00031CF89E42FCF8CE42DCF82E52BCF8AE487
:1003D00029CF8DE527CF89E891E00C94FE058FE2C7
:1003E0002ACF85E01FCF86E01DCF84E01BCF8CE0B5
:1003F00019CF83E017CF8BE015CF83E813CF8AE0C6
:1004000011CF81E00FCF89E00DCF662349F08091B5
:10041000840168E7811167E789E891E00C948C0515
:1004200068E789E891E00E948E0567E767CF662359
:1004300039F08091840167E0882371F36EE7ECCF97
:1004400067E089E891E00E948E056EE757CF089536
:10045000E3E9F0E050813181ABE7B0E090E080E08B
:100460002D91321719F04281241301C0892F9F5F0B
:100470009830B1F7A3E8B0E090E020E04D91341758
:1004800019F06281461301C0292F9F5F9031B1F7A7
:1004900030E1839FC00111248F519E4F820F911D27
:1004A000DC015C933396B1E0E338FB0799F60895DD
:1004B000AF92BF92CF92DF92EF92FF920F931F9372
:1004C000CF93DF93C1EED1E09BE7E92E90E0F92EC8
:1004D000AA24A3940BE710E0D801ED918D01F0E080
:1004E000E05AFF4F62E080810E942D07B0E00338A0
:1004F0001B0791F7D701ED917D01F0E0E05AFF4F26
:10050000108161E0812F0E942D0760E0812F0E9401
:10051000690783E8C82E80E0D82E10E000E0FE01D5
:10052000E00FF11FB080D601ED916D01F0E0E05ACF
:10053000FF4F80810E949707EB2DF0E0E357FE4FBD
:10054000892B41F5808181110FC0A08261E08B2D44
:100550000E94B7000E947F06609385017093860118
:1005600080938701909388010F5F1F4F0031110521
:10057000B1F66096B2E0C136DB0709F0ABCFDF9190
:10058000CF911F910F91FF90EF90DF90CF90BF9090
:10059000AF9008958081882339F3108260E08B2D1D
:1005A0000E94B700E1CFCF93DF9361E084E00E9427
:1005B0002D0761E084E00E946907C3E8D0E0E9917B
:1005C000F0E0E05AFF4F62E080810E942D0780E05A
:1005D000C339D807A1F7CBE7D0E0E991F0E0E05AC2
:1005E000FF4F62E080810E942D0780E0C338D8076A
:1005F000A1F784E590E00E9494000E94280289E817
:1006000091E0DF91CF910C94E0040F931F93CF936F
:10061000DF931F92CDB7DEB71982BE016F5F7F4FA8
:1006200089E891E00E9465050E9458020E947F06B9
:1006300000918501109186012091870130918801F8
:10064000601B710B820B930B64367105810591055C
:1006500050F460E084E00E9469070F90DF91CF9131
:100660001F910F91089561E0F5CF47E050E066E0FB
:1006700070E089E891E00C945103CF93C82F60E0BB
:100680000E94690761E08C2FCF910C942D07CF93C6
:10069000C82F60E00E942D0761E08C2FCF910C9451
:1006A0006907CF93DF93EC01CB01798368835B8388
:1006B0004A830E9447038A819B81DF91CF910C94EA
:1006C0004703CF92DF92EF92FF920F931F93CF9346
:1006D000DF93EC01162F88EE93E00E94EA068881F2
:1006E0000E949707892B09F492C08A810E9497077C
:1006F000892B09F48FC08A819B810E943D0384E18C
:1007000090E00E94EA06888199810E943D0388E278
:1007100090E00E94EA06888199810E94470384E163
:1007200090E00E94EA0628E0F22E01E0C12ED12CD2
:100730008A819B81212F2170E22E10FF62C00E94CE
:10074000470384E190E00E94EA06888199810E9433
:100750003D0388E290E00E94EA06888199810E9428
:10076000470384E190E00E94EA068E2D8027D5940D
:10077000C7941C2DFA94F11042C08A819B81E01627
:1007800009F442C00E94470384E190E00E94EA0617
:10079000888199810E943D0388E290E00E94EA06E8
:1007A000888199810E94470384E190E00E94EA06D3
:1007B0008A819B810E94470384E190E00E94EA06BF
:1007C000888199810E943D0388E290E00E94EA06B8
:1007D000888199810E94470384E190E00E94EA06A3
:1007E00088EE93E00E94EA0690E080E0DF91CF91EE
:1007F0001F910F91FF90EF90DF90CF900895082FF9
:1008000095CF0E943D039DCF0E943D03BDCF8FEF4A
:100810009FEFECCF8EEF9FEFE9CFCF93DF93EC010B
:100820008A810E94970721E0892B39F088810E94F4
:10083000970721E0892B09F020E0822F90E0DF91DB
:10084000CF9108956F927F928F929F92AF92BF92B5
:10085000CF92DF92EF92FF920F931F93CF93DF938C
:10086000EC014B010E947F066B017C018A810E9492
:1008700097078C01892B71F00E947F066C197D0906
:100880008E099F096F3171058105910578F30FEF8E
:100890001FEF86C088810E949707019769F784E15E
:1008A00090E00E94EA06888199810E943D0388E2D7
:1008B00090E00E94EA06888199810E94470384E1C2
:1008C00090E00E94EA0698E0C92ED12C7724739418
:1008D000F12CE12CAA24A394B12C662463948A8180
:1008E0000E949707019719F4EA28FB287624AA0C9E
:1008F000BB1C84E190E00E94EA06888199810E94F5
:100900003D0388E290E00E94EA06888199810E9476
:10091000470384E190E00E94EA0681E0C81AD1080A
:10092000F1F68A810E9497076C0184E190E00E94B1
:10093000EA06888199810E943D0388E290E00E9446
:10094000EA06888199810E94470384E190E00E9431
:10095000EA0684E190E00E94EA068A819B810E9477
:100960003D03888199810E943D0388E290E00E94C6
:10097000EA06888199810E94470384E190E00E9401
:10098000EA068A819B810E944703F401E08281E0AC
:10099000CA94CD2809F080E0871511F00EEF1FEF03
:1009A000C801DF91CF911F910F91FF90EF90DF90E1
:1009B000CF90BF90AF909F908F907F906F90089551
:1009C000CF93DF93EC016AEACE010E946103892B89
:1009D000D1F76AE070E080E090E0DF91CF910C9475
:1009E000B106CF93DF93EC016AEFCE010E94610361
:1009F000892BD1F7DF91CF910895EF92FF920F935A
:100A00001F93CF93DF931F92CDB7DEB7E3E1E60FDD
:100A1000E33110F57A018C01F0E0EF5EFA4F0C94AF
:100A2000C107560554052C0532052C05490532052C
:100A30002F052F052F052C052C052C052C052C0525
:100A40002C052C052F0524050E94F1046AEAC80133
:100A50000E946103892BD1F7F12CE12C11C00E9477
:100A6000F104FACF0E94F104BE016F5F7F4FC8010D
:100A70000E9422047C01892B79F7C8010E94F104AD
:100A8000C7010F90DF91CF911F910F91FF90EF90D1
:100A900008950E94F1046BEAC8010E94610363E8B3
:100AA000C8010E946103D8CF6EEEFACF0E94F10414
:100AB000B701C8010E942204892B19F4C8010E94C1
:100AC000F104EE24E394F12CDBCFEF92FF920F932D
:100AD0001F93CF93DF931F92CDB7DEB78C017B01BD
:100AE0000E940D04892B51F490E080E00F90DF917B
:100AF000CF911F910F91FF90EF900895BE016F5F0E
:100B00007F4FC8010E942204892B71F7A7016981D8
:100B1000C8010E94FD04EACF0C9461031F93CF9398
:100B2000DF93EC01162F60EF0E946103612FCE016D
:100B30000E94610390E080E0DF91CF911F910895C2
:100B40001F93CF93DF93EC01162F60EE0E94610399
:100B5000612FCE010E94610390E080E0DF91CF9190
:100B60001F9108951F93CF93DF93EC01162F60EE32
:100B70000E94610360EFCE010E946103612FCE01EC
:100B80000E94610390E080E0DF91CF911F91089572
:100B9000CF93DF93EC0160EE0E94610362E1CE012E
:100BA0000E94610360EECE010E9461036CE7CE01FA
:100BB0000E94610390E080E0DF91CF910895CF9390
:100BC000DF93EC0160EE0E94610360EFCE010E94B2
:100BD00061036CE7CE010E94610360EECE010E94CA
:100BE000610360EFCE010E94610362E1CE010E94C9
:100BF000610390E080E0DF91CF910895CF93DF9380
:100C0000EC0161EE0E94610364E1CE010E94610388
:100C100067E7CE010E94610361EECE010E9461038D
:100C200060EFCE010E94610364E1CE010E94610386
:100C300060EECE010E94610367E7CE010E9461036E
:100C400090E080E0DF91CF91089508950E94F5062D
:100C50000E9425060E94D302C0E0D0E00E94050356
:100C60002097E1F30E940000F9CF1F920F920FB678
:100C70000F9211242F933F938F939F93AF93BF9322
:100C80008091660290916702A0916802B09169021A
:100C90003091650226E0230F2D3768F129E8230FF4
:100CA0000396A11DB11D2093650280936602909367
:100CB0006702A0936802B0936902809161029091EB
:100CC0006202A0916302B09164020196A11DB11D60
:100CD0008093610290936202A0936302B0936402D6
:100CE000BF91AF919F918F913F912F910F900FBE28
:100CF0000F901F9018950296A11DB11DD4CF2FB74C
:100D0000F8946091660270916702809168029091F8
:100D100069022FBF08953FB7F894809161029091C6
:100D20006202A0916302B091640222B708B600FE8D
:100D300005C02F3F19F00196A11DB11D3FBFBA2F6D
:100D4000A92F982F8827BC01CD01620F711D811D2D
:100D5000911D43E0660F771F881F991F4A95D1F7B1
:100D600008958F929F92AF92BF92CF92DF92EF92AF
:100D7000FF926B017C010E948B064B015C01C11448
:100D8000D104E104F104E9F00E94C0070E948B063F
:100D9000681979098A099B09683E734081059105A4
:100DA00070F321E0C21AD108E108F10888EE880E3C
:100DB00083E0981EA11CB11CC114D104E104F1040C
:100DC00029F7FF90EF90DF90CF90BF90AF909F906A
:100DD0008F900895000000008330910528F0880F5F
:100DE000991F05970197F1F70895789483B7836069
:100DF00083BF83B7886483BF89B7816089BF82E07E
:100E00008EBD8EB581608EBD8FB581608FBD85B57D
:100E1000846085BD85B5806485BD86E886B91AB8CD
:100E20000895843059F028F4813099F0823089F0A7
:100E30000895853039F0873041F008958FB58F7768
:100E40008FBD08958FB58F7DFBCF85B58F7D85BD17
:100E5000089583B78F7D83BF0895CF93DF9390E08C
:100E6000FC01EC58FF4F24918C569F4FFC0184915C
:100E70008823C9F090E0880F991FFC01E853FF4FC9
:100E8000A591B491FC01E254FF4FC591D491611139
:100E90000DC09FB7F8948C91209582238C93888104
:100EA000282328839FBFDF91CF910895623051F4AA
:100EB0009FB7F8943C91822F809583238C93E8818F
:100EC0002E2BEFCF8FB7F894EC912E2B2C938FBF56
:100ED000EACF1F93CF93DF93282F30E0F901EC5A2C
:100EE000FF4F8491F901EC58FF4FD491F901EC5672
:100EF000FF4FC491CC23A9F0162F81110E94110736
:100F0000EC2FF0E0EE0FFF1FE254FF4FA591B491DC
:100F10008FB7F894EC91111108C0D095DE23DC93C3
:100F20008FBFDF91CF911F910895DE2BF8CFCF9324
:100F3000DF93282F30E0F901EC5AFF4F8491F9013B
:100F4000EC58FF4FD491F901EC56FF4FC491CC23DC
:100F5000A1F081110E941107EC2FF0E0EE0FFF1FAE
:100F6000EC54FF4FA591B491EC91ED2381E090E01A
:100F700009F480E0DF91CF91089580E090E0FACF0E
:100F80000895EE0FFF1F0590F491E02D0994F89459
:020F9000FFCF91
:100F9200FF0A0B0C0D0E0F10111213141516171F4A
:100FA2001E1D1C1B1A191800010203020507090B5A
:100FB2000C0E0F01030406080A0D1011121314156A
:100FC20017181A500F10010E10020F11030E110400
:100FD2000F12050E12060F13070E13080F14090E37
:100FE200140A0F150B0E150C030F0D030E0E0F171F
:100FF2000F0F1A100E1A110C10120B10130C1114E1
:101002000B11150C12160B12170C13180C14190BCA
:10101200141A0C151B0B151C030C1D0C1A1E0C0D9F
:101022001F0B0D2009102109112207112309122477
:101032000712250B1326091427071428091529035B
:101042000B2A03092B0B1A2C0A0B2D090A2E090D48
:101052002F071030021131051132051233091334F2
:10106200051435021436071537030738091A3902F1
:10107200063A050A3B050D3C05103D02123E0513DA
:101082003F07134005154102154202034309174465
:101092000B1745060B4601024703054802044902A5
:1010A200084A05174B02184C02174D07174E071A2C
:0410B2004F021A00CF
:00000001FF
