:100000000C946A000C9492000C9492000C94920050
:100010000C9492000C9492000C9492000C94920018
:100020000C9492000C9492000C9492000C94E005B5
:100030000C9492000C9492000C9492000C949200F8
:100040000C9492000C9492000C9492000C949200E8
:100050000C9492000000000200000000000000006C
:100060000504000700000000000000000000000080
:100070000000000001020408102040800102040872
:100080001020408001020408102040800102040872
:100090001020408002020202020202020404040450
:1000A0000404040403030303030303030101010124
:1000B000010101010000390036003300300000006A
:1000C0003B0038003500320000003A0037003400B1
:1000D0003100E00211241FBECFE5D8E0DEBFCDBF66
:1000E00011E0A0E6B0E0E8EEFEE002C005900D925F
:1000F000A639B107D9F722E0A6E9B1E001C01D9207
:10010000A639B207E1F710E0CAE6D0E004C02197B3
:10011000FE010E946C07C936D107C9F70E94D105BC
:100120000C9472070C940000EFE9F1E09F012F5945
:1001300031402817390714F41192F8CF0895662337
:1001400029F0682F8BE991E00C943705682F8BE933
:1001500091E00C943905662329F0682F8BE991E032
:100160000C944B05682F8BE991E00C945D05815050
:10017000853508F03DC1E82FF0E0EF53FF4F0C94B8
:100180006C07E001E201E401E601E801EA01EC01AB
:10019000EE01F001F201F401F6016F01A6019301F5
:1001A0008701BA01A40189014D014F015101530199
:1001B0005501570159015B015D014B01CA01C8019D
:1001C000BE01C401370143011F0139013D0147014F
:1001D0003F01270133013501CC01CE01C001C60129
:1001E00016013B011D0121012301250129012B01DC
:1001F0002D01D401D601DA016201680149014501EE
:100200001B014101190131012F01D001D201D80197
:1002100066015F016401DE016B01C2016D01DC0159
:1002200068018F0191018B018D01BC018CE10C945F
:100230009F0082E3FCCF81E2FACF83E2F8CF84E231
:10024000F6CF8BE2F4CF84E3F2CF83E3F0CF83E405
:10025000EECF8BE3ECCF82E4EACF8BE4E8CF8AE306
:10026000E6CF81E3E4CF84E4E2CF8DE4E0CF85E123
:10027000DECF8DE2DCCF8BE1DACF8CE2D8CF8CE31E
:10028000D6CF8AE2D4CF8DE1D2CF82E2D0CF85E340
:10029000CECF8AE1CCCF85E4CACF86E1C8CF8EE14C
:1002A000C6CF86E2C4CF85E2C2CF8EE2C0CF86E35E
:1002B000BECF8DE3BCCF8EE3BACF86E4B8CF6093D8
:1002C0009601089582E1B3CF84E1B1CF89E5AFCF44
:1002D00084E10C94AB0081E1AACF81E1FACF6623DF
:1002E00069F080919601882321F08BE991E00C94CC
:1002F000730560E78BE991E00C944B0560E78BE9AF
:1003000091E00E945D058BE991E00C948A0581E7FC
:10031000E0CF8EE08CCF85E7DCCF82E7DACF8BE6CB
:10032000D8CF84E7D6CF662351F0809196018823F9
:1003300021F08BE991E00C94A9056DE7DBCF6DE727
:100340008BE991E00C945D058AE7C3CF662359F0F1
:1003500080919601882329F06EE78BE991E00C9457
:1003600037056CE6C7CF6EE78BE991E00E9439054F
:100370006CE6E6CF89E6ADCF86E759CF86E657CF64
:100380008AE555CF89E253CF8DE051CF88E54FCF35
:1003900085E54DCF8EE44BCF84E549CF8BE547CF44
:1003A00081E445CF89E443CF8CE441CF82E53FCF60
:1003B0008AE43DCF8DE53BCF8FE28BCF8FE189CFB4
:1003C00085E035CF86E033CF84E031CF8CE02FCF8E
:1003D00083E02DCF8BE02BCF83E829CF8AE027CF96
:1003E00081E025CF89E023CF88E721CF87E01FCFA9
:1003F0000895E6E9F0E050813181ADE8B0E090E0A9
:1004000080E02D91321719F04281241301C0892F09
:100410009F5F9930B1F7ACE7B0E090E020E04D91FC
:10042000341719F06281461301C0292F9F5F913163
:10043000B1F7989FC00111248C509E4F820F911DDF
:10044000DC015C933396B1E0E539FB07A1F6089532
:10045000AF92BF92CF92DF92EF92FF920F931F93D2
:10046000CF93DF93C4EFD1E09DE8E92E90E0F92E21
:10047000AA24A3940DE810E0D801ED918D01F0E0DD
:10048000E05AFF4F62E080810E94D806B0E0063952
:100490001B0791F7D701ED917D01F0E0E05AFF4F86
:1004A000108161E0812F0E94D80660E0812F0E94B8
:1004B00014078CE7C82E80E0D82E10E000E0FE0183
:1004C000E00FF11FB080D601ED916D01F0E0E05A30
:1004D000FF4F80810E944207EB2DF0E0E156FE4F76
:1004E000892B41F5808181110FC0A08261E08B2DA5
:1004F0000E94B7000E942A066093970170939801AA
:100500008093990190939A010F5F1F4F013111055C
:10051000B1F66196B2E0CD38DB0709F0ABCFDF91E1
:10052000CF911F910F91FF90EF90DF90CF90BF90F0
:10053000AF9008958081882339F3108260E08B2D7D
:100540000E94B700E1CFCF93DF93CCE7D0E0E991F1
:10055000F0E0E05AFF4F62E080810E94D80680E020
:10056000CD38D807A1F7CDE8D0E0E991F0E0E05A26
:10057000FF4F62E080810E94D80680E0C639D8072C
:10058000A1F785E590E00E9494000E94F9018BE9B3
:1005900091E0DF91CF910C948B04CF93DF931F9266
:1005A000CDB7DEB71982BE016F5F7F4F8BE991E057
:1005B0000E9410050E9428020F90DF91CF910895AC
:1005C00047E050E066E070E08BE991E00C94FC02BB
:1005D000CF93C82F60E00E94140761E08C2FCF9169
:1005E0000C94D806CF93C82F60E00E94D80661E033
:1005F0008C2FCF910C941407CF93DF93EC01CB0198
:10060000798368835B834A830E94F2028A819B819B
:10061000DF91CF910C94F202CF92DF92EF92FF9292
:100620000F931F93CF93DF93EC01162F88EE93E087
:100630000E94950688810E944207892B09F492C086
:100640008A810E944207892B09F48FC08A819B818D
:100650000E94E80284E190E00E94950688819981D9
:100660000E94E80288E290E00E94950688819981C4
:100670000E94F20284E190E00E94950628E0F22EAA
:1006800001E0C12ED12C8A819B81212F2170E22E85
:1006900010FF62C00E94F20284E190E00E94950681
:1006A000888199810E94E80288E290E00E94950684
:1006B000888199810E94F20284E190E00E9495066F
:1006C0008E2D8027D594C7941C2DFA94F11042C02A
:1006D0008A819B81E01609F442C00E94F20284E103
:1006E00090E00E949506888199810E94E80288E244
:1006F00090E00E949506888199810E94F20284E12F
:1007000090E00E9495068A819B810E94F20284E11A
:1007100090E00E949506888199810E94E80288E213
:1007200090E00E949506888199810E94F20284E1FE
:1007300090E00E94950688EE93E00E94950690E076
:1007400080E0DF91CF911F910F91FF90EF90DF90AC
:10075000CF900895082F95CF0E94E8029DCF0E9468
:10076000E802BDCF8FEF9FEFECCF8EEF9FEFE9CF89
:10077000CF93DF93EC018A810E94420721E0892B0D
:1007800039F088810E94420721E0892B09F020E09E
:10079000822F90E0DF91CF9108956F927F928F9298
:1007A0009F92AF92BF92CF92DF92EF92FF920F9300
:1007B0001F93CF93DF93EC014B010E942A066B013C
:1007C0007C018A810E9442078C01892B71F00E9472
:1007D0002A066C197D098E099F096F317105810503
:1007E000910578F30FEF1FEF86C088810E944207C2
:1007F000019769F784E190E00E94950688819981CC
:100800000E94E80288E290E00E9495068881998122
:100810000E94F20284E190E00E94950698E0C92EC1
:10082000D12C77247394F12CE12CAA24A394B12C1D
:10083000662463948A810E944207019719F4EA288A
:10084000FB287624AA0CBB1C84E190E00E9495064C
:10085000888199810E94E80288E290E00E949506D2
:10086000888199810E94F20284E190E00E949506BD
:1008700081E0C81AD108F1F68A810E9442076C0112
:1008800084E190E00E949506888199810E94E802A7
:1008900088E290E00E949506888199810E94F20288
:1008A00084E190E00E94950684E190E00E94950624
:1008B0008A819B810E94E802888199810E94E802D6
:1008C00088E290E00E949506888199810E94F20258
:1008D00084E190E00E9495068A819B810E94F20249
:1008E000F401E08281E0CA94CD2809F080E0871508
:1008F00011F00EEF1FEFC801DF91CF911F910F9103
:10090000FF90EF90DF90CF90BF90AF909F908F902F
:100910007F906F900895CF93DF93EC016AEACE0148
:100920000E940C03892BD1F76AE070E080E090E030
:10093000DF91CF910C945C06CF93DF93EC016AEFCB
:10094000CE010E940C03892BD1F7DF91CF9108953E
:10095000EF92FF920F931F93CF93DF931F92CDB728
:10096000DEB7E3E1E60FE33110F57A018C01F0E048
:10097000E454FB4F0C946C070105FF04D704DD041D
:10098000D704F404DD04DA04DA04DA04D704D70463
:10099000D704D704D704D704D704DA04CF040E94BD
:1009A0009C046AEAC8010E940C03892BD1F7F12C40
:1009B000E12C11C00E949C04FACF0E949C04BE014D
:1009C0006F5F7F4FC8010E94CD037C01892B79F7AF
:1009D000C8010E949C04C7010F90DF91CF911F9125
:1009E0000F91FF90EF9008950E949C046BEAC8015C
:1009F0000E940C0363E8C8010E940C03D8CF6EEE7E
:100A0000FACF0E949C04B701C8010E94CD03892B34
:100A100019F4C8010E949C04EE24E394F12CDBCF6E
:100A2000EF92FF920F931F93CF93DF931F92CDB757
:100A3000DEB78C017B010E94B803892B51F490E052
:100A400080E00F90DF91CF911F910F91FF90EF9079
:100A50000895BE016F5F7F4FC8010E94CD03892BAF
:100A600071F7A7016981C8010E94A804EACF0C941C
:100A70000C031F93CF93DF93EC01162F60EF0E94BE
:100A80000C03612FCE010E940C0390E080E0DF9107
:100A9000CF911F9108951F93CF93DF93EC01162FF1
:100AA00060EE0E940C03612FCE010E940C0390E0C7
:100AB00080E0DF91CF911F9108951F93CF93DF9333
:100AC000EC01162F60EE0E940C0360EFCE010E9435
:100AD0000C03612FCE010E940C0390E080E0DF91B7
:100AE000CF911F910895CF93DF93EC0160EE0E94A8
:100AF0000C0362E1CE010E940C0360EECE010E9465
:100B00000C036CE7CE010E940C0390E080E0DF91C3
:100B1000CF910895CF93DF93EC0160EE0E940C0318
:100B200060EFCE010E940C036CE7CE010E940C0323
:100B300060EECE010E940C0360EFCE010E940C0318
:100B400062E1CE010E940C0390E080E0DF91CF9142
:100B50000895CF93DF93EC0161EE0E940C0364E1F2
:100B6000CE010E940C0367E7CE010E940C0361EEE8
:100B7000CE010E940C0360EFCE010E940C0364E1E1
:100B8000CE010E940C0360EECE010E940C0367E7C9
:100B9000CE010E940C0390E080E0DF91CF91089598
:100BA00008950E94A0060E94D0050E94A302C0E002
:100BB000D0E00E94CD022097E1F30E940000F9CF1F
:100BC0001F920F920FB60F9211242F933F938F9382
:100BD0009F93AF93BF938091920290919302A091C3
:100BE0009402B09195023091910226E0230F2D37A7
:100BF00068F129E8230F0396A11DB11D20939102EE
:100C00008093920290939302A0939402B0939502E2
:100C100080918D0290918E02A0918F02B0919002EE
:100C20000196A11DB11D80938D0290938E02A09319
:100C30008F02B0939002BF91AF919F918F913F919E
:100C40002F910F900FBE0F901F9018950296A11D27
:100C5000B11DD4CF2FB7F894609192027091930296
:100C600080919402909195022FBF08953FB7F89418
:100C700080918D0290918E02A0918F02B09190028E
:100C800022B708B600FE05C02F3F19F00196A11D3E
:100C9000B11D3FBFBA2FA92F982F8827BC01CD01C6
:100CA000620F711D811D911D43E0660F771F881F24
:100CB000991F4A95D1F708958F929F92AF92BF9254
:100CC000CF92DF92EF92FF926B017C010E94360679
:100CD0004B015C01C114D104E104F104E9F00E946C
:100CE0006B070E943606681979098A099B09683ED4
:100CF00073408105910570F321E0C21AD108E10823
:100D0000F10888EE880E83E0981EA11CB11CC11466
:100D1000D104E104F10429F7FF90EF90DF90CF9028
:100D2000BF90AF909F908F90089500000000833097
:100D3000910528F0880F991F05970197F1F70895FD
:100D4000789483B7836083BF83B7886483BF89B790
:100D5000816089BF82E08EBD8EB581608EBD8FB50A
:100D600081608FBD85B5846085BD85B5806485BD96
:100D700086E886B91AB80895843059F028F481308D
:100D800099F0823089F00895853039F0873041F04C
:100D900008958FB58F778FBD08958FB58F7DFBCF69
:100DA00085B58F7D85BD089583B78F7D83BF0895F9
:100DB000CF93DF9390E0FC01EC58FF4F24918C56C9
:100DC0009F4FFC0184918823C9F090E0880F991F00
:100DD000FC01E853FF4FA591B491FC01E254FF4F91
:100DE000C591D49161110DC09FB7F8948C91209555
:100DF00082238C938881282328839FBFDF91CF9102
:100E00000895623051F49FB7F8943C91822F8095F9
:100E100083238C93E8812E2BEFCF8FB7F894EC913E
:100E20002E2B2C938FBFEACF1F93CF93DF93282FC6
:100E300030E0F901EC5AFF4F8491F901EC58FF4F73
:100E4000D491F901EC56FF4FC491CC23A9F0162F91
:100E500081110E94BC06EC2FF0E0EE0FFF1FE25460
:100E6000FF4FA591B4918FB7F894EC91111108C080
:100E7000D095DE23DC938FBFDF91CF911F91089532
:100E8000DE2BF8CFCF93DF93282F30E0F901EC5A17
:100E9000FF4F8491F901EC58FF4FD491F901EC56C2
:100EA000FF4FC491CC23A1F081110E94BC06EC2F0E
:100EB000F0E0EE0FFF1FEC54FF4FA591B491EC91C1
:100EC000ED2381E090E009F480E0DF91CF91089577
:100ED00080E090E0FACF0895EE0FFF1F0590F491A7
:080EE000E02D0994F894FFCF06
:100EE800FF0A0B0C0D0E0F10111213141516171FF5
:100EF8001E1D1C1B1A191800010203040102070811
:100F0800090A0B0C0D131415161718191B040506DE
:100F18000E0F1011121A551118010618020519039F
:100F28000619040507050418060D1007050A080523
:100F38000B090E1B0A080E0B05080C08110D0D11E4
:100F48000E0D0E0F051B100F1B110A1112060A13A6
:100F58001119140E1915070E160E18171017180464
:100F6800171904091A09101B0A0E1C0C0E1D0B0E6A
:100F78001E0B111F101B200608210518220F19230C
:100F8800070F240F18250F172612172709122809EB
:100F98000F290A0F2A0C0F2B0B0F2C08102D060BEC
:100FA8002E08122F0711301019310710321018337C
:100FB8000E1734061735060936090E370A10380C8D
:100FC80010390B103A040A3B0B123C151A3D041950
:100FD8003E12193F071240121841051742111743D4
:100FE8000911440509450A12460C1247040B480129
:100FF8001A49161A4A141A4B060C4C131A4D050DA9
:101008004E021A4F080F50041951061B52111B5358
:06101800040854060D005F
:00000001FF
