:100000000C948C000C94B4000C94B4000C94B400C8
:100010000C94B4000C94B4000C94B4000C94B40090
:100020000C94B4000C94B4000C94B4000C945C09CF
:100030000C94B4000C94D7070C9409080C94B400E9
:100040000C94B4000C94B4000C94B4000C94B40060
:100050000C94B4005A5820756E696B6579626F61B3
:1000600072642050532F3220636F6E74726F6C6C09
:1000700065722076312E300052656C65617365645F
:10008000206B65793A200050726573736564206B4C
:1000900065793A2000000000020000000000000026
:1000A0000005040007000000000000000000000040
:1000B000000000000001020408102040800102043A
:1000C0000810204080010204081020408001020432
:1000D000081020408002020202020202020404040C
:1000E00004040404040303030303030303010101E1
:1000F0000101010101000039003600330030000029
:10010000003B0038003500320000003A0037003470
:10011000003100007C03390811241FBECFE5D8E070
:10012000DEBFCDBF11E0A0E6B0E0E4E2F6E102C040
:1001300005900D92A43AB107D9F723E0A4EAB1E003
:1001400001C01D92A032B207E1F710E0CCE8D0E088
:1001500004C02197FE010E940A0BCA38D107C9F7D3
:100160000E944D090C94100B0C940000EDEAF1E094
:100170009F012D5A31402817390714F41192F8CFF6
:100180000895662329F0682F89EA91E00C941806F7
:10019000682F89EA91E00C941A06662329F0682FEB
:1001A00089EA91E00C942C06682F89EA91E00C947E
:1001B0003E06CF93DF93D82FC62F68E770E0CC239D
:1001C00011F067E870E08AE792E00E94A00840E141
:1001D00050E06D2F8AE792E00E943A09D150D43561
:1001E00008F098C0ED2FF0E0E850FF4F0C940A0B98
:1001F0005B025E026102640267026A026D027002C3
:10020000730276027902920243024F02670164018F
:100210006A0107020A020D021002130216021902F5
:100220001C021F020402280225027C018501E6014E
:10023000F801C201E901EF01FE01F201CE01E00186
:10024000E3012B022E0240022202B601EC01BF01A3
:10025000C501C801CB01D101D401D70137023A024F
:100260007F014C010102FB01BC01F501B901DD0177
:10027000DA01310234023D0255015201880158026F
:100280005E0182016101550258018D016D01A601D7
:1002900073017001760179016C2F82E1DF91CF91BA
:1002A0000C94C1006C2F84E1F9CF6C2F89E5F6CF57
:1002B0006C2F84E1DF91CF910C94CD006C2F81E104
:1002C000EDCF6C2F81E1F6CF6C2F81E7F3CF6C2F50
:1002D00080E7F0CF6C2F8EE0E1CF6C2F85E7EACF7F
:1002E0006C2F82E7E7CF6C2F8BE6E4CF6C2F84E78F
:1002F000E1CF6C2F86E7D2CF6C2F86E6CFCF6C2F65
:100300008AE5CCCF6C2F89E2C9CF6C2F8DE0C6CFA8
:10031000C093A401DF91CF910895CC2359F080912F
:10032000A4016DE781116CE689EA91E0DF91CF913C
:100330000C942C066CE689EA91E00E943E066DE77B
:1003400089EA91E0DF91CF910C943E06CC2339F0FD
:100350008091A4016AE7882339F369E6E5CF69E66D
:1003600089EA91E00E943E066AE7EACF6C2F8CE1B1
:1003700095CF6C2F82E392CF6C2F81E28FCF6C2FC1
:1003800083E28CCF6C2F84E289CF6C2F8BE286CFF7
:100390006C2F84E383CF6C2F83E380CF6C2F83E4B7
:1003A0007DCF6C2F8BE37ACF6C2F82E477CF6C2FCD
:1003B0008BE474CF6C2F8AE371CF6C2F81E36ECF07
:1003C0006C2F84E46BCF6C2F8DE468CF6C2F85E1AC
:1003D00065CF6C2F8DE262CF6C2F8BE15FCF6C2FDE
:1003E0008CE25CCF6C2F8CE359CF6C2F8AE256CF16
:1003F0006C2F8DE153CF6C2F82E250CF6C2F85E3B1
:100400004DCF6C2F8AE14ACF6C2F85E447CF6C2FFC
:1004100086E144CF6C2F8EE141CF6C2F86E23ECF38
:100420006C2F85E23BCF6C2F8EE238CF6C2F86E3AA
:1004300035CF6C2F8DE332CF6C2F8EE32FCF6C2F07
:1004400086E42CCF6C2F88E529CF6C2F85E526CF4D
:100450006C2F8EE423CF6C2F84E520CF6C2F8BE59F
:100460001DCF6C2F81E41ACF6C2F89E417CF6C2F2E
:100470008CE414CF6C2F82E511CF6C2F8AE40ECF61
:100480006C2F8DE50BCF89EA91E0CC2321F0DF9131
:10049000CF910C945406DF91CF910C946B0689EAAE
:1004A00091E0DF91CF910C948A066C2F8FE202CFFE
:1004B0006C2F8FE1FFCE6C2F85E0F0CE6C2F86E0A5
:1004C000EDCE6C2F84E0EACE6C2F8CE0E7CE6C2F63
:1004D00083E0E4CE6C2F8BE0E1CE6C2F83E8DECEA0
:1004E0006C2F8AE0DBCE6C2F81E0D8CE6C2F89E0B8
:1004F000D5CECC2359F08091A40168E7811167E73C
:1005000089EA91E0DF91CF910C94180667E789EAB8
:1005100091E00E941A0668E789EA91E0DF91CF91A5
:100520000C941A06CC2339F08091A40167E088234B
:1005300039F36EE7E5CF6EE789EA91E00E941A068B
:1005400067E0EACFE2E9F0E050813181ABE7B0E06B
:1005500090E080E02D91321719F04281241301C000
:10056000892F9F5F9830B1F7A3E8B0E090E020E0DA
:100570004D91341719F06281461301C0292F9F5FF6
:100580009F30B1F7989FC00111248E5F9D4F820F5D
:10059000911DDC015C933396B1E0EE38FB07A1F6C8
:1005A0000895AF92BF92CF92DF92EF92FF920F9396
:1005B0001F93CF93DF93C2E0D2E09BE7E92E90E058
:1005C000F92EAA24A3940BE710E0D801ED918D0138
:1005D000F0E0E05AFF4F62E080810E94540AB0E0F0
:1005E00003381B0791F7D701ED917D01F0E0E05A48
:1005F000FF4F108161E0812F0E94540A60E0812F3B
:100600000E94900A83E8C82E80E0D82E10E000E017
:10061000FE01E00FF11FB080D601ED916D01F0E019
:10062000E05AFF4F80810E94BE0AEB2DF0E0E355B7
:10063000FE4F892B41F5808181110FC0A08261E0BE
:100640008B2D0E94D9000E94A6096093A50170938A
:10065000A6018093A7019093A8010F5F1F4F0F3051
:100660001105B1F62F96B2E0CA37DB0709F0ABCF20
:10067000DF91CF911F910F91FF90EF90DF90CF907E
:10068000BF90AF9008958081882339F3108260E095
:100690008B2D0E94D900E1CF0F931F93CF93DF934F
:1006A0001F92CDB7DEB71982BE016F5F7F4F89EA17
:1006B00091E00E94F1050E94D1020E94A6090091DA
:1006C000A5011091A6012091A7013091A801601BFE
:1006D000710B820B930B643671058105910550F403
:1006E00060E084E00E94900A0F90DF91CF911F910B
:1006F0000F91089561E0F5CF47E050E066E070E0CB
:1007000089EA91E00C94DD03CF93DF9326E040E08B
:1007100052EC61E070E08AE792E00E9484078AE789
:1007200092E00E941D0761E084E00E94540A61E0AB
:1007300084E00E94900AC3E8D0E0E991F0E0E05A3A
:10074000FF4F62E080810E94540A80E0C239D807DE
:10075000A1F7CBE7D0E0E991F0E0E05AFF4F62E08B
:1007600080810E94540A80E0C338D807A1F785E54C
:1007700090E00E94B6000E94A20264E570E08AE761
:1007800092E00E94C80889EA91E0DF91CF910C9431
:100790006C05CF93C82F60E00E94900A61E08C2F17
:1007A000CF910C94540ACF93C82F60E00E94540A52
:1007B00061E08C2FCF910C94900ACF93DF93EC01E2
:1007C000CB01798368835B834A830E94D3038A8148
:1007D0009B81DF91CF910C94D303CF92DF92EF9264
:1007E000FF920F931F93CF93DF93EC01162F88EEA8
:1007F00093E00E94110A88810E94BE0A892B09F4A5
:1008000092C08A810E94BE0A892B09F48FC08A8116
:100810009B810E94C90384E190E00E94110A8881B3
:1008200099810E94C90388E290E00E94110A8881A0
:1008300099810E94D30384E190E00E94110A28E08C
:10084000F22E01E0C12ED12C8A819B81212F2170B3
:10085000E22E10FF62C00E94D30384E190E00E9468
:10086000110A888199810E94C90388E290E00E9460
:10087000110A888199810E94D30384E190E00E944B
:10088000110A8E2D8027D594C7941C2DFA94F1104F
:1008900042C08A819B81E01609F442C00E94D303C2
:1008A00084E190E00E94110A888199810E94C90325
:1008B00088E290E00E94110A888199810E94D30306
:1008C00084E190E00E94110A8A819B810E94D303F7
:1008D00084E190E00E94110A888199810E94C903F5
:1008E00088E290E00E94110A888199810E94D303D6
:1008F00084E190E00E94110A88EE93E00E94110AC0
:1009000090E080E0DF91CF911F910F91FF90EF90E9
:10091000DF90CF900895082F95CF0E94C9039DCFF7
:100920000E94C903BDCF8FEF9FEFECCF8EEF9FEFFB
:10093000E9CFCF93DF93EC018A810E94BE0A21E0C8
:10094000892B39F088810E94BE0A21E0892B09F0A9
:1009500020E0822F90E0DF91CF9108956F927F92F7
:100960008F929F92AF92BF92CF92DF92EF92FF92BF
:100970000F931F93CF93DF93EC014B010E94A609C5
:100980006B017C018A810E94BE0A8C01892B71F067
:100990000E94A6096C197D098E099F096F317105A6
:1009A0008105910578F30FEF1FEF86C088810E94C3
:1009B000BE0A019769F784E190E00E94110A8881DC
:1009C00099810E94C90388E290E00E94110A8881FF
:1009D00099810E94D30384E190E00E94110A98E07B
:1009E000C92ED12C77247394F12CE12CAA24A39442
:1009F000B12C662463948A810E94BE0A019719F47F
:100A0000EA28FB287624AA0CBB1C84E190E00E9413
:100A1000110A888199810E94C90388E290E00E94AE
:100A2000110A888199810E94D30384E190E00E9499
:100A3000110A81E0C81AD108F1F68A810E94BE0A23
:100A40006C0184E190E00E94110A888199810E94E2
:100A5000C90388E290E00E94110A888199810E946E
:100A6000D30384E190E00E94110A84E190E00E94A7
:100A7000110A8A819B810E94C903888199810E9401
:100A8000C90388E290E00E94110A888199810E943E
:100A9000D30384E190E00E94110A8A819B810E9425
:100AA000D303F401E08281E0CA94CD2809F080E00C
:100AB000871511F00EEF1FEFC801DF91CF911F9145
:100AC0000F91FF90EF90DF90CF90BF90AF909F90ED
:100AD0008F907F906F900895CF93DF93EC016AEA37
:100AE000CE010E94ED03892BD1F76AE070E080E02F
:100AF00090E0DF91CF910C94D809CF93DF93EC0174
:100B00006AEFCE010E94ED03892BD1F7DF91CF91DF
:100B10000895EF92FF920F931F93CF93DF931F924D
:100B2000CDB7DEB7E3E1E60FE33110F57A018C01D2
:100B3000F0E0E356FA4F0C940A0BE205E005B80525
:100B4000BE05B805D505BE05BB05BB05BB05B8058B
:100B5000B805B805B805B805B805B805BB05B005B2
:100B60000E947D056AEAC8010E94ED03892BD1F736
:100B7000F12CE12C11C00E947D05FACF0E947D0569
:100B8000BE016F5F7F4FC8010E94AE047C01892BBC
:100B900079F7C8010E947D05C7010F90DF91CF91C1
:100BA0001F910F91FF90EF9008950E947D056BEAD1
:100BB000C8010E94ED0363E8C8010E94ED03D8CF8D
:100BC0006EEEFACF0E947D05B701C8010E94AE0407
:100BD000892B19F4C8010E947D05EE24E394F12CC1
:100BE000DBCFEF92FF920F931F93CF93DF931F9270
:100BF000CDB7DEB78C017B010E949904892B51F49B
:100C000090E080E00F90DF91CF911F910F91FF90C6
:100C1000EF900895BE016F5F7F4FC8010E94AE0440
:100C2000892B71F7A7016981C8010E948905EACF64
:100C30000C94ED031F93CF93DF93EC01162F60EF1D
:100C40000E94ED03612FCE010E94ED0390E080E051
:100C5000DF91CF911F9108951F93CF93DF93EC0104
:100C6000162F60EE0E94ED03612FCE010E94ED036E
:100C700090E080E0DF91CF911F9108951F93CF9373
:100C8000DF93EC01162F60EE0E94ED0360EFCE01C2
:100C90000E94ED03612FCE010E94ED0390E080E001
:100CA000DF91CF911F910895CF93DF93EC0160EE18
:100CB0000E94ED0362E1CE010E94ED0360EECE01E1
:100CC0000E94ED036CE7CE010E94ED0390E080E00E
:100CD000DF91CF910895CF93DF93EC0160EE0E94F6
:100CE000ED0360EFCE010E94ED036CE7CE010E94A0
:100CF000ED0360EECE010E94ED0360EFCE010E9495
:100D0000ED0362E1CE010E94ED0390E080E0DF910F
:100D1000CF910895CF93DF93EC0161EE0E94ED0334
:100D200064E1CE010E94ED0367E7CE010E94ED036E
:100D300061EECE010E94ED0360EFCE010E94ED0353
:100D400064E1CE010E94ED0360EECE010E94ED034E
:100D500067E7CE010E94ED0390E080E0DF91CF9144
:100D60000895FC01918D228D892F90E0805C9F4F2A
:100D7000821B91098F7399270895FC01918D828DB3
:100D8000981731F0828DE80FF11D858D90E0089560
:100D90008FEF9FEF0895FC01918D828D981761F080
:100DA000A28DAE0FBF2FB11D5D968C91928D9F5F6E
:100DB0009F73928F90E008958FEF9FEF0895FC014D
:100DC000538D448D252F30E0842F90E0821B930BB0
:100DD000541710F0CF960895019708958FE298E088
:100DE000892B49F080E090E0892B29F00E942F08A0
:100DF00081110C9400000895FC01A48DA80FB92F57
:100E0000B11DA35ABF4F2C91848D90E001968F7332
:100E10009927848FA689B7892C93A089B1898C9151
:100E200080648C93938D848D981306C00288F38917
:100E3000E02D80818F7D80830895CF93DF93EC0137
:100E4000888D8823B9F0AA89BB89E889F9898C91B2
:100E500085FD03C0808186FD0DC00FB607FCF7CF6E
:100E60008C9185FFF2CF808185FFEDCFCE010E946E
:100E7000FC06E9CFDF91CF910895EF92FF920F9397
:100E80001F93CF93DF93EC0181E0888F9B8D8C8D36
:100E9000981316C0E889F989808185FF11C0EE8911
:100EA000FF896083E889F98980818064808381E09B
:100EB00090E0DF91CF911F910F91FF90EF900895F7
:100EC000F62E0B8D10E00F5F1F4F0F731127E02ED2
:100ED0008C8D8E110CC00FB607FCFACFE889F9890A
:100EE000808185FFF5CFCE010E94FC06F1CFEB8D0E
:100EF000EC0FFD2FF11DE35AFF4FF0820B8FEA89B3
:100F0000FB8980818062D2CFCF92DF92EF92FF92F5
:100F10001F93CF93DF93EC016A017B01122F60E8EE
:100F200074E88EE190E0A70196010E94E80A215042
:100F30003109410951095695479537952795E88913
:100F4000F98982E08083211580E1380798F0E889EB
:100F5000F989108260E472E48FE090E0A7019601C5
:100F60000E94E80A215031094109510956954795D7
:100F700037952795EC85FD853083EE85FF852083A9
:100F8000188E1068EC89FD891083EA89FB898081BD
:100F900088698083EA89FB8980818F7D8083DF91E6
:100FA000CF911F91FF90EF90DF90CF9008951F9207
:100FB0000F920FB60F9211242F938F939F93EF935D
:100FC000FF93E0918A02F0918B028081E091900280
:100FD000F091910282FD1BC09081809193028F5FFE
:100FE0008F7320919402821741F0E0919302F0E018
:100FF000E658FD4F958F80939302FF91EF919F915B
:101000008F912F910F900FBE0F901F901895808198
:10101000F4CF1F920F920FB60F9211242F933F938C
:101020004F935F936F937F938F939F93AF93BF93F0
:10103000EF93FF938AE792E00E94FC06FF91EF9105
:10104000BF91AF919F918F917F916F915F914F91E0
:101050003F912F910F900FBE0F901F9018958AE728
:1010600092E00E94B10621E0892B09F420E0822F52
:101070000895EAE7F2E01382128288EE93E0A0E09E
:10108000B0E084839583A683B78382E991E091835E
:10109000808380E490E09587848729E230E0378779
:1010A00026872BE230E0318B208B2AE230E0338B35
:1010B000228B958B848B8CE290E0978B868B118EA4
:1010C000128E138E148E0895AF92BF92CF92DF923C
:1010D000EF92FF920F931F93CF93DF936C017B01ED
:1010E0008B01040F151FEB015E01AE18BF08C0177E
:1010F000D10759F06991D601ED91FC910190F081F1
:10110000E02DC6010995892B79F7C501DF91CF91B3
:101110001F910F91FF90EF90DF90CF90BF90AF9015
:101120000895FB0101900020E9F73197AF01461BBC
:10113000570BDC01ED91FC910280F381E02D0994C5
:10114000EF92FF920F931F93CF93DF938C017B015C
:10115000D0E0C0E0F701EC0FFD1F6491662361F061
:10116000D801ED91FC910190F081E02DC801099525
:10117000892B11F02196EECFCE01DF91CF911F91F7
:101180000F91FF90EF90089560EA71E00C94910840
:101190000F931F93CF93DF93EC010E94A0088C0163
:1011A000CE010E94C408800F911FDF91CF911F9143
:1011B0000F9108958F929F92AF92BF92EF92FF92FC
:1011C0000F931F93CF93DF93CDB7DEB7A1970FB6E1
:1011D000F894DEBF0FBECDBF7C01FA01CB0119A28E
:1011E000223008F42AE08E010F5D1F4F822E912CD1
:1011F000B12CA12CBF01A50194010E94E80AF901BC
:10120000CA016A300CF5605DD8016E938D01232B05
:10121000242B252B79F790E080E0109721F0BD0179
:10122000C7010E949108A1960FB6F894DEBF0FBEC9
:10123000CDBFDF91CF911F910F91FF90EF90BF90A5
:10124000AF909F908F900895695CDECF2115310596
:1012500041F4DC01ED91FC910190F081E02D642FCF
:1012600009940C94DA089A01462F50E070E060E08F
:101270000C9426090F931F93CF93DF93EC010E94E8
:1012800033098C01CE010E94C408800F911FDF91A9
:10129000CF911F910F91089508950E941C0A0E94FA
:1012A0004C090E948403CEEED6E00E944C032097A6
:1012B000E1F30E94EE06F9CF1F920F920FB60F9244
:1012C00011242F933F938F939F93AF93BF9380915C
:1012D0001C0390911D03A0911E03B0911F03309138
:1012E0001B0326E0230F2D3768F129E8230F03960F
:1012F000A11DB11D20931B0380931C0390931D031C
:10130000A0931E03B0931F038091170390911803BD
:10131000A0911903B0911A030196A11DB11D8093EC
:10132000170390931803A0931903B0931A03BF9166
:10133000AF919F918F913F912F910F900FBE0F9082
:101340001F9018950296A11DB11DD4CF2FB7F89408
:1013500060911C0370911D0380911E0390911F03E7
:101360002FBF08953FB7F894809117039091180309
:10137000A0911903B0911A0322B708B600FE05C068
:101380002F3F19F00196A11DB11D3FBFBA2FA92F04
:10139000982F8827BC01CD01620F711D811D911D01
:1013A00043E0660F771F881F991F4A95D1F708956C
:1013B0008F929F92AF92BF92CF92DF92EF92FF9265
:1013C0006B017C010E94B2094B015C01C114D10484
:1013D000E104F104E9F00E94E70A0E94B2096819E9
:1013E00079098A099B09683E73408105910570F36C
:1013F00021E0C21AD108E108F10888EE880E83E0E6
:10140000981EA11CB11CC114D104E104F10429F7F8
:10141000FF90EF90DF90CF90BF90AF909F908F9014
:101420000895000000008330910528F0880F991F6F
:1014300005970197F1F70895789483B7836083BF88
:1014400083B7886483BF89B7816089BF82E08EBD1E
:101450008EB581608EBD8FB581608FBD85B584608E
:1014600085BD85B5806485BD86E886B91AB80895BE
:10147000843059F028F4813099F0823089F0089551
:10148000853039F0873041F008958FB58F778FBD63
:1014900008958FB58F7DFBCF85B58F7D85BD089570
:1014A00083B78F7D83BF0895CF93DF9390E0FC01D6
:1014B000EB54FF4F24918B529F4FFC018491882362
:1014C000C9F090E0880F991FFC01E75FFE4FA591DE
:1014D000B491FC01E150FF4FC591D49161110DC051
:1014E0009FB7F8948C91209582238C938881282330
:1014F00028839FBFDF91CF910895623051F49FB749
:10150000F8943C91822F809583238C93E8812E2B35
:10151000EFCF8FB7F894EC912E2B2C938FBFEACF9F
:101520001F93CF93DF93282F30E0F901EB56FF4F45
:101530008491F901EB54FF4FD491F901EB52FF4F25
:10154000C491CC23A9F0162F81110E94380AEC2FE8
:10155000F0E0EE0FFF1FE150FF4FA591B4918FB760
:10156000F894EC91111108C0D095DE23DC938FBF65
:10157000DF91CF911F910895DE2BF8CFCF93DF93AA
:10158000282F30E0F901EB56FF4F8491F901EB541D
:10159000FF4FD491F901EB52FF4FC491CC23A1F03E
:1015A00081110E94380AEC2FF0E0EE0FFF1FEB5084
:1015B000FF4FA591B491EC91ED2381E090E009F407
:1015C00080E0DF91CF91089580E090E0FACF089518
:1015D000A1E21A2EAA1BBB1BFD010DC0AA1FBB1F37
:1015E000EE1FFF1FA217B307E407F50720F0A21BA9
:1015F000B30BE40BF50B661F771F881F991F1A9416
:1016000069F760957095809590959B01AC01BD013F
:10161000CF010895EE0FFF1F0590F491E02D09947E
:04162000F894FFCF6C
:10162400FF0A0B0C0D0E0F10111213141516171FB1
:101634001E1D1C1B1A1918000102030508090B12B0
:1016440016171801020304060A0C0D0E0F101113CD
:1016540014155401050101120201160302160402B5
:1016640012050109060118070218080209090408ED
:101674000A04050B02050C02080D04170E04180FCA
:1016840003051003081101081202171304121404AD
:101694000B15081116051117081018051019080F55
:1016A4001A050F1B080E1C050E1D080D1E04091F2C
:1016B400010B20020B210915220B11230911240906
:1016C40010250B0F26090F270B0E28090E290608D3
:1016D4002A05062B090D2C0F182D01172E12152F74
:1016E4000B15301116311112321012330B10340F46
:1016F40012350E16360E1237060B380609390B0D45
:101704003A0C163B15163C11173D10173E10163FA8
:101714000F17400F16410E18420E174306164406C3
:1017240012450C12460A184715184814184913187C
:101734004A10184B13174C0D184D0A164E030B4F35
:1017440004165003125103185203175303160000D2
:1017540000003D076408DF061D07B106CB06BD0681
:041764000D0A00006A
:00000001FF
