:100000000C946A000C9492000C9492000C94920050
:100010000C9492000C9492000C9492000C94920018
:100020000C9492000C9492000C9492000C9416067E
:100030000C9492000C9492000C9492000C949200F8
:100040000C9492000C9492000C9492000C949200E8
:100050000C9492000000000200000000000000006C
:100060000504000700000000000000000000000080
:100070000000000001020408102040800102040872
:100080001020408001020408102040800102040872
:100090001020408002020202020202020404040450
:1000A0000404040403030303030303030101010124
:1000B000010101010000390036003300300000006A
:1000C0003B0038003500320000003A0037003400B1
:1000D0003100160311241FBECFE5D8E0DEBFCDBF2F
:1000E00011E0A0E6B0E0E4E5FFE002C005900D926B
:1000F000AE38B107D9F722E0AEE8B1E001C01D92F9
:10010000AD36B207E1F710E0CAE6D0E004C02197AF
:10011000FE010E94A207C936D107C9F70E9407064F
:100120000C94A8070C940000E7E9F1E09F0127591F
:1001300031402817390714F41192F8CF0895662337
:1001400029F0682F83E991E00C946D05682F83E90D
:1001500091E00C946F05662329F0682F83E991E004
:100160000C948105682F83E991E00C9493058150EC
:10017000843508F04EC1E82FF0E0EF53FF4F0C94A8
:10018000A207D001D201D401D601D801DA01DC01E5
:10019000DE01E001E201E401F901C101C80125012C
:1001A0002301270199019B019D019F01A101A30149
:1001B000A501A701A9019701AF01AD0133013901E3
:1001C00083018F016B018501890193018B0173010B
:1001D0007F018101B101B301BF01AB01630187015F
:1001E00069016D016F017101750177017901B90133
:1001F000BB01350115019501910167018D01650173
:100200007D017B01B501B701BD011A0118013B0158
:10021000CE011F0137012101CC011C013E01290142
:1002200053012D012B012F01310182E10C949F001C
:1002300084E1FCCF89E5FACF84E10C94AB0081E145
:10024000F5CF81E1FACF81E7F8CF80E7F6CF8EE0F6
:10025000EDCF85E7F2CF82E7F0CF8BE6EECF84E7F4
:10026000ECCF86E7E3CF86E6E1CF8AE5DFCF89E210
:10027000DDCF8DE0DBCF60938E010895662349F0DA
:1002800080918E016DE781116CE683E991E00C9419
:1002900081056CE683E991E00E9493056DE783E9AF
:1002A00091E00C949305662339F080918E016AE702
:1002B000882359F369E6E9CF69E683E991E00E9472
:1002C00093056AE7ECCF8CE1B1CF82E3AFCF81E257
:1002D000ADCF83E2ABCF84E2A9CF8BE2A7CF84E39B
:1002E000A5CF83E3A3CF83E4A1CF8BE39FCF82E4A9
:1002F0009DCF8BE49BCF8AE399CF81E397CF84E4B2
:1003000095CF8DE493CF85E191CF8DE28FCF8BE1B7
:100310008DCF8CE28BCF8CE389CF8AE287CF8DE1C2
:1003200085CF82E283CF85E381CF8AE17FCF85E4E9
:100330007DCF86E17BCF8EE179CF86E277CF85E2F4
:1003400075CF8EE273CF86E371CF8DE36FCF8EE3EF
:100350006DCF86E46BCF88E569CF85E567CF8EE406
:1003600065CF84E563CF8BE561CF81E45FCF89E41E
:100370005DCF8CE45BCF82E559CF8AE457CF8DE522
:1003800055CF83E991E061110C94A9050C94C00547
:1003900083E991E00C94DF058FE24FCF8FE14DCFE1
:1003A00085E044CF86E042CF84E040CF8CE03ECF72
:1003B00083E03CCF8BE03ACF83E838CF8AE036CF7A
:1003C00081E034CF89E032CF662349F080918E01FD
:1003D00068E7811167E783E991E00C946D0567E7B1
:1003E00083E991E00E946F0568E783E991E00C944E
:1003F0006F05662339F080918E0167E0882359F3F9
:100400006EE7E9CF6EE783E991E00E946F0567E050
:10041000ECCF0895E2E9F0E050813181ABE7B0E044
:1004200090E080E02D91321719F04281241301C031
:10043000892F9F5F9830B1F7A3E8B0E090E020E00B
:100440004D91341719F06281461301C0292F9F5F27
:100450009F30B1F7989FC001112484519E4F820FA5
:10046000911DDC015C933396B1E0EE38FB07A1F6F9
:100470000895AF92BF92CF92DF92EF92FF920F93C7
:100480001F93CF93DF93CCEED1E09BE7E92E90E072
:10049000F92EAA24A3940BE710E0D801ED918D0169
:1004A000F0E0E05AFF4F62E080810E940E07B0E06A
:1004B00003381B0791F7D701ED917D01F0E0E05A79
:1004C000FF4F108161E0812F0E940E0760E0812FB5
:1004D0000E944A0783E8C82E80E0D82E10E000E092
:1004E000FE01E00FF11FB080D601ED916D01F0E04B
:1004F000E05AFF4F80810E947807EB2DF0E0E9562B
:10050000FE4F892B41F5808181110FC0A08261E0EF
:100510008B2D0E94B7000E94600660938F0170933C
:10052000900180939101909392010F5F1F4F0F30C4
:100530001105B1F62F96B2E0C436DB0709F0ABCF58
:10054000DF91CF911F910F91FF90EF90DF90CF90AF
:10055000BF90AF9008958081882339F3108260E0C6
:100560008B2D0E94B700E1CFCF93DF9361E084E051
:100570000E940E0761E084E00E944A07C3E8D0E0D1
:10058000E991F0E0E05AFF4F62E080810E940E079F
:1005900080E0C239D807A1F7CBE7D0E0E991F0E0DD
:1005A000E05AFF4F62E080810E940E0780E0C3386E
:1005B000D807A1F785E590E00E9494000E940A0206
:1005C00083E991E0DF91CF910C94C1040F931F93C5
:1005D000CF93DF931F92CDB7DEB71982BE016F5F55
:1005E0007F4F83E991E00E9446050E9439020E94F4
:1005F000600600918F01109190012091910130913E
:100600009201601B710B820B930B6436710581059F
:10061000910550F460E084E00E944A070F90DF915A
:10062000CF911F910F91089561E0F5CF47E050E021
:1006300066E070E083E991E00C943203CF93C82F19
:1006400060E00E944A0761E08C2FCF910C940E0766
:10065000CF93C82F60E00E940E0761E08C2FCF91EE
:100660000C944A07CF93DF93EC01CB017983688325
:100670005B834A830E9428038A819B81DF91CF910B
:100680000C942803CF92DF92EF92FF920F931F9367
:10069000CF93DF93EC01162F88EE93E00E94CB06F8
:1006A00088810E947807892B09F492C08A810E9470
:1006B0007807892B09F48FC08A819B810E941E03D1
:1006C00084E190E00E94CB06888199810E941E03FC
:1006D00088E290E00E94CB06888199810E942803DD
:1006E00084E190E00E94CB0628E0F22E01E0C12ECA
:1006F000D12C8A819B81212F2170E22E10FF62C0B4
:100700000E94280384E190E00E94CB0688819981B1
:100710000E941E0388E290E00E94CB0688819981A6
:100720000E94280384E190E00E94CB068E2D802752
:10073000D594C7941C2DFA94F11042C08A819B81F4
:10074000E01609F442C00E94280384E190E00E9470
:10075000CB06888199810E941E0388E290E00E9466
:10076000CB06888199810E94280384E190E00E9451
:10077000CB068A819B810E94280384E190E00E943D
:10078000CB06888199810E941E0388E290E00E9436
:10079000CB06888199810E94280384E190E00E9421
:1007A000CB0688EE93E00E94CB0690E080E0DF91DC
:1007B000CF911F910F91FF90EF90DF90CF90089510
:1007C000082F95CF0E941E039DCF0E941E03BDCF10
:1007D0008FEF9FEFECCF8EEF9FEFE9CFCF93DF93BB
:1007E000EC018A810E94780721E0892B39F0888109
:1007F0000E94780721E0892B09F020E0822F90E009
:10080000DF91CF9108956F927F928F929F92AF92D6
:10081000BF92CF92DF92EF92FF920F931F93CF93ED
:10082000DF93EC014B010E9460066B017C018A8121
:100830000E9478078C01892B71F00E9460066C1968
:100840007D098E099F096F3171058105910578F346
:100850000FEF1FEF86C088810E947807019769F724
:1008600084E190E00E94CB06888199810E941E035A
:1008700088E290E00E94CB06888199810E9428033B
:1008800084E190E00E94CB0698E0C92ED12C772419
:100890007394F12CE12CAA24A394B12C66246394C4
:1008A0008A810E947807019719F4EA28FB287624A8
:1008B000AA0CBB1C84E190E00E94CB068881998140
:1008C0000E941E0388E290E00E94CB0688819981F5
:1008D0000E94280384E190E00E94CB0681E0C81AC0
:1008E000D108F1F68A810E9478076C0184E190E0DA
:1008F0000E94CB06888199810E941E0388E290E0C5
:100900000E94CB06888199810E94280384E190E0AF
:100910000E94CB0684E190E00E94CB068A819B81F5
:100920000E941E03888199810E941E0388E290E044
:100930000E94CB06888199810E94280384E190E07F
:100940000E94CB068A819B810E942803F401E082E9
:1009500081E0CA94CD2809F080E0871511F00EEFF0
:100960001FEFC801DF91CF911F910F91FF90EF9082
:10097000DF90CF90BF90AF909F908F907F906F90BF
:100980000895CF93DF93EC016AEACE010E944203FF
:10099000892BD1F76AE070E080E090E0DF91CF91A1
:1009A0000C949206CF93DF93EC016AEFCE010E9484
:1009B0004203892BD1F7DF91CF910895EF92FF92F7
:1009C0000F931F93CF93DF931F92CDB7DEB7E3E171
:1009D000E60FE33110F57A018C01F0E0EE50FB4FA9
:1009E0000C94A207370535050D0513050D052A05DD
:1009F00013051005100510050D050D050D050D0558
:100A00000D050D050D05100505050E94D2046AEAC5
:100A1000C8010E944203892BD1F7F12CE12C11C0AF
:100A20000E94D204FACF0E94D204BE016F5F7F4FB2
:100A3000C8010E9403047C01892B79F7C8010E9438
:100A4000D204C7010F90DF91CF911F910F91FF90BA
:100A5000EF9008950E94D2046BEAC8010E944203FD
:100A600063E8C8010E944203D8CF6EEEFACF0E941D
:100A7000D204B701C8010E940304892B19F4C801EC
:100A80000E94D204EE24E394F12CDBCFEF92FF928C
:100A90000F931F93CF93DF931F92CDB7DEB78C01D7
:100AA0007B010E94EE03892B51F490E080E00F90CF
:100AB000DF91CF911F910F91FF90EF900895BE01AC
:100AC0006F5F7F4FC8010E940304892B71F7A70154
:100AD0006981C8010E94DE04EACF0C9442031F938F
:100AE000CF93DF93EC01162F60EF0E944203612F3A
:100AF000CE010E94420390E080E0DF91CF911F91F0
:100B000008951F93CF93DF93EC01162F60EE0E94A0
:100B10004203612FCE010E94420390E080E0DF910A
:100B2000CF911F9108951F93CF93DF93EC01162F60
:100B300060EE0E94420360EFCE010E944203612FEB
:100B4000CE010E94420390E080E0DF91CF911F919F
:100B50000895CF93DF93EC0160EE0E94420362E1BF
:100B6000CE010E94420360EECE010E9442036CE778
:100B7000CE010E94420390E080E0DF91CF91089582
:100B8000CF93DF93EC0160EE0E94420360EFCE0151
:100B90000E9442036CE7CE010E94420360EECE0148
:100BA0000E94420360EFCE010E94420362E1CE0147
:100BB0000E94420390E080E0DF91CF910895CF93AF
:100BC000DF93EC0161EE0E94420364E1CE010E94DA
:100BD000420367E7CE010E94420361EECE010E940C
:100BE000420360EFCE010E94420364E1CE010E9405
:100BF000420360EECE010E94420367E7CE010E94ED
:100C0000420390E080E0DF91CF91089508950E9423
:100C1000D6060E9406060E94B402C0E0D0E00E9400
:100C2000E6022097E1F30E940000F9CF1F920F9295
:100C30000FB60F9211242F933F938F939F93AF93EF
:100C4000BF938091690290916A02A0916B02B0916A
:100C50006C023091680226E0230F2D3768F129E8F5
:100C6000230F0396A11DB11D209368028093690292
:100C700090936A02A0936B02B0936C02809164021D
:100C800090916502A0916602B09167020196A11D44
:100C9000B11D8093640290936502A0936602B093A5
:100CA0006702BF91AF919F918F913F912F910F90CC
:100CB0000FBE0F901F9018950296A11DB11DD4CFA5
:100CC0002FB7F8946091690270916A0280916B026B
:100CD00090916C022FBF08953FB7F8948091640201
:100CE00090916502A0916602B091670222B708B6A2
:100CF00000FE05C02F3F19F00196A11DB11D3FBF99
:100D0000BA2FA92F982F8827BC01CD01620F711D22
:100D1000811D911D43E0660F771F881F991F4A951B
:100D2000D1F708958F929F92AF92BF92CF92DF92A8
:100D3000EF92FF926B017C010E946C064B015C01FB
:100D4000C114D104E104F104E9F00E94A1070E945A
:100D50006C06681979098A099B09683E7340810508
:100D6000910570F321E0C21AD108E108F10888EE7C
:100D7000880E83E0981EA11CB11CC114D104E104AB
:100D8000F10429F7FF90EF90DF90CF90BF90AF90E4
:100D90009F908F900895000000008330910528F007
:100DA000880F991F05970197F1F70895789483B7F5
:100DB000836083BF83B7886483BF89B7816089BF3D
:100DC00082E08EBD8EB581608EBD8FB581608FBD96
:100DD00085B5846085BD85B5806485BD86E886B9A6
:100DE0001AB80895843059F028F4813099F082308F
:100DF00089F00895853039F0873041F008958FB536
:100E00008F778FBD08958FB58F7DFBCF85B58F7D93
:100E100085BD089583B78F7D83BF0895CF93DF93FA
:100E200090E0FC01EC58FF4F24918C569F4FFC0141
:100E300084918823C9F090E0880F991FFC01E85342
:100E4000FF4FA591B491FC01E254FF4FC591D4919D
:100E500061110DC09FB7F8948C91209582238C93DB
:100E60008881282328839FBFDF91CF910895623026
:100E700051F49FB7F8943C91822F809583238C93F3
:100E8000E8812E2BEFCF8FB7F894EC912E2B2C937B
:100E90008FBFEACF1F93CF93DF93282F30E0F90164
:100EA000EC5AFF4F8491F901EC58FF4FD491F901AE
:100EB000EC56FF4FC491CC23A9F0162F81110E944C
:100EC000F206EC2FF0E0EE0FFF1FE254FF4FA5916A
:100ED000B4918FB7F894EC91111108C0D095DE232E
:100EE000DC938FBFDF91CF911F910895DE2BF8CF58
:100EF000CF93DF93282F30E0F901EC5AFF4F849114
:100F0000F901EC58FF4FD491F901EC56FF4FC49111
:100F1000CC23A1F081110E94F206EC2FF0E0EE0F3D
:100F2000FF1FEC54FF4FA591B491EC91ED2381E0AC
:100F300090E009F480E0DF91CF91089580E090E0A7
:100F4000FACF0895EE0FFF1F0590F491E02D09945C
:040F5000F894FFCF43
:100F5400FF0A0B0C0D0E0F10111213141516171F88
:100F64001E1D1C1B1A1918000102030508090B1287
:100F740016171801020304060A0C0D0E0F101113A4
:100F8400141554010501011202011603021604028C
:100F940012050109060118070218080209090408C4
:100FA4000A04050B02050C02080D04170E04180FA1
:100FB4000305100308110108120217130412140484
:100FC4000B15081116051117081018051019080F2C
:100FD4001A050F1B080E1C050E1D080D1E04091F03
:100FE400010B20020B210915220B112309112409DD
:100FF40010250B0F26090F270B0E28090E290608AA
:101004002A05062B090D2C0F182D01172E12152F4A
:101014000B15301116311112321012330B10340F1C
:1010240012350E16360E1237060B380609390B0D1B
:101034003A0C163B15163C11173D10173E10163F7F
:101044000F17400F16410E18420E1743061644069A
:1010540012450C12460A1847151848141849131853
:101064004A10184B13174C0D184D0A164E030B4F0C
:0E1074000416500312510318520317530316AB
:00000001FF
