:100000000C948C000C94B4000C94B4000C94B400C8
:100010000C94B4000C94B4000C94B4000C94B40090
:100020000C94B4000C94B4000C94B4000C94260905
:100030000C94B4000C94A1070C94D3070C94B40056
:100040000C94B4000C94B4000C94B4000C94B40060
:100050000C94B4005A5820756E696B6579626F61B3
:1000600072642050532F3220636F6E74726F6C6C09
:1000700065722076312E300052656C65617365645F
:10008000206B65793A200050726573736564206B4C
:1000900065793A2000000000020000000000000026
:1000A0000005040007000000000000000000000040
:1000B000000000000001020408102040800102043A
:1000C0000810204080010204081020408001020432
:1000D000081020408002020202020202020404040C
:1000E00004040404040303030303030303010101E1
:1000F0000101010101000039003600330030000029
:10010000003B0038003500320000003A0037003470
:10011000003100004E03030811241FBECFE5D8E0D4
:10012000DEBFCDBF11E0A0E6B0E0E8EBF5E102C034
:1001300005900D92AA3AB107D9F723E0AAEAB1E0F7
:1001400001C01D92A734B207E1F710E0CCE8D0E07F
:1001500004C02197FE010E94D40ACA38D107C9F70A
:100160000E9417090C94DA0A0C940000E3EBF1E00A
:100170009F01235B31402817390714F41192F8CFFF
:100180000895662329F0682F8FEA91E00C94E20528
:10019000682F8FEA91E00C94E405662329F0682F1C
:1001A0008FEA91E00C94F605682F8FEA91E00C94A9
:1001B0000806CF93DF93D82FC62F68E770E0CC23D3
:1001C00011F067E870E081EA92E00E946A0840E17D
:1001D00050E06D2F81EA92E00E940409D150D5359C
:1001E00008F0CCC0ED2FF0E0E850FF4F0C94D40A9B
:1001F0006D0270027302760279027C027F02820233
:10020000850288028B028E02D6011E020602F401CC
:1002100034021B02F701A101A401A701AA01AD014B
:10022000B001B301B601B9019E014C0249023A0284
:100230004302800192015C018301890198018C01D4
:1002400068017A017D014F0252023D0246024D01D2
:10025000860159015F01620165016B016E01710147
:100260005B025E026402C101CA019B019501560155
:100270008F01530177017401550258026102C701D1
:10028000BC01C4016A02D0014002D3016702CA0165
:1002900000020302FA01FD0137026C2F8CE1DF91AD
:1002A000CF910C94C1006C2F82E3F9CF6C2F81E2C7
:1002B000F6CF6C2F83E2F3CF6C2F84E2F0CF6C2F5C
:1002C0008BE2EDCF6C2F84E3EACF6C2F83E3E7CF93
:1002D0006C2F83E4E4CF6C2F8BE3E1CF6C2F82E4AF
:1002E000DECF6C2F8BE4DBCF6C2F8AE3D8CF6C2F63
:1002F00081E3D5CF6C2F84E4D2CF6C2F8DE4CFCFA8
:100300006C2F85E1CCCF6C2F8DE2C9CF6C2F8BE1A8
:10031000C6CF6C2F8CE2C3CF6C2F8CE3C0CF6C2F79
:100320008AE2BDCF6C2F8DE1BACF6C2F82E2B7CFBE
:100330006C2F85E3B4CF6C2F8AE1B1CF6C2F85E4AD
:10034000AECF6C2F86E1ABCF6C2F8EE1A8CF6C2F98
:1003500086E2A5CF6C2F85E2A2CF6C2F8EE29FCFD5
:100360006C2F86E39CCF6C2F8DE399CF6C2F8EE39F
:1003700096CF6C2F86E493CFC093AA01DF91CF91E3
:1003800008956C2F82E18BCF6C2F84E188CF6C2F86
:1003900089E585CF6C2F84E1DF91CF910C94CD005E
:1003A0006C2F81E17CCF6C2F81E1F6CFCC2389F0DB
:1003B0008091AA01882331F08FEA91E0DF91CF91FB
:1003C0000C941E0660E78FEA91E0DF91CF910C94C8
:1003D000F60560E78FEA91E00E9408068FEA91E057
:1003E000DF91CF910C9435066C2F81E7D5CF6C2F20
:1003F0008EE055CF6C2F85E7CFCF6C2F82E7CCCF27
:100400006C2F8BE6C9CF6C2F84E7C6CFCC2361F06D
:100410008091AA01882331F08FEA91E0DF91CF919A
:100420000C9454066DE7CFCF6DE78FEA91E0DF9132
:10043000CF910C9408066C2F8AE7AECFCC2369F0DD
:100440008091AA01882339F06EE78FEA91E0DF916D
:10045000CF910C94E2056CE6B6CF6EE78FEA91E09F
:100460000E94E4056CE6E1CF6C2F89E695CF6C2FF6
:1004700086E715CF6C2F86E612CF6C2F8AE50FCF5B
:100480006C2F89E20CCF6C2F8DE009CF6C2F88E5A3
:1004900006CF6C2F85E503CF6C2F8EE400CF6C2F39
:1004A00084E5FDCE6C2F8BE5FACE6C2F81E4F7CE80
:1004B0006C2F89E4F4CE6C2F8CE4F1CE6C2F82E5A6
:1004C000EECE6C2F8AE4EBCE6C2F8DE5E8CE6C2F50
:1004D0008FE262CF6C2F8FE15FCF6C2F85E0DFCE94
:1004E0006C2F86E0DCCE6C2F84E0D9CE6C2F8CE0B4
:1004F000D6CE6C2F83E0D3CE6C2F8BE0D0CE6C2F7A
:1005000083E8CDCE6C2F8AE0CACE6C2F81E0C7CEB7
:100510006C2F89E0C4CE6C2F88E7C1CE6C2F87E0AA
:10052000BECEE5E9F0E050813181ACE8B0E090E08A
:1005300080E02D91321719F04281241301C0892FD8
:100540009F5F9930B1F7ABE7B0E090E020E04D91CC
:10055000341719F06281461301C0292F9F5F913132
:10056000B1F7989FC0011124885F9D4F820F911DA4
:10057000DC015C933396B1E0E439FB07A1F6089502
:10058000AF92BF92CF92DF92EF92FF920F931F93A1
:10059000CF93DF93C8E0D2E09CE8E92E90E0F92EFB
:1005A000AA24A3940CE810E0D801ED918D01F0E0AD
:1005B000E05AFF4F62E080810E941E0AB0E00539D8
:1005C0001B0791F7D701ED917D01F0E0E05AFF4F55
:1005D000108161E0812F0E941E0A60E0812F0E943D
:1005E0005A0A8BE7C82E80E0D82E10E000E0FE010A
:1005F000E00FF11FB080D601ED916D01F0E0E05AFF
:10060000FF4F80810E94880AEB2DF0E0ED54FE4FF1
:10061000892B41F5808181110FC0A08261E08B2D73
:100620000E94D9000E9470096093AB017093AC01E5
:100630008093AD019093AE010F5F1F4F0131110503
:10064000B1F66196B2E0C13ADB0709F0ABCFDF91BA
:10065000CF911F910F91FF90EF90DF90CF90BF90BF
:10066000AF9008958081882339F3108260E08B2D4C
:100670000E94D900E1CFCF93DF931F92CDB7DEB7B1
:100680001982BE016F5F7F4F8FEA91E00E94BB0528
:100690000E94C0020F90DF91CF91089547E050E093
:1006A00066E070E08FEA91E00C94A703CF93DF93AC
:1006B00026E040E052EC61E070E081EA92E00E94C6
:1006C0004E0781EA92E00E94E706CBE7D0E0E9918D
:1006D000F0E0E05AFF4F62E080810E941E0A80E055
:1006E000CC38D807A1F7CCE8D0E0E991F0E0E05AA7
:1006F000FF4F62E080810E941E0A80E0C539D80762
:10070000A1F785E590E00E94B6000E94910264E5A1
:1007100070E081EA92E00E9492088FEA91E0DF9116
:10072000CF910C943605CF93C82F60E00E945A0AEF
:1007300061E08C2FCF910C941E0ACF93C82F60E0FC
:100740000E941E0A61E08C2FCF910C945A0ACF931D
:10075000DF93EC01CB01798368835B834A830E943A
:100760009D038A819B81DF91CF910C949D03CF9251
:10077000DF92EF92FF920F931F93CF93DF93EC01E1
:10078000162F88EE93E00E94DB0988810E94880A78
:10079000892B09F492C08A810E94880A892B09F466
:1007A0008FC08A819B810E94930384E190E00E9424
:1007B000DB09888199810E94930388E290E00E947E
:1007C000DB09888199810E949D0384E190E00E9469
:1007D000DB0928E0F22E01E0C12ED12C8A819B8119
:1007E000212F2170E22E10FF62C00E949D0384E140
:1007F00090E00E94DB09888199810E94930388E23E
:1008000090E00E94DB09888199810E949D0384E128
:1008100090E00E94DB098E2D8027D594C7941C2D73
:10082000FA94F11042C08A819B81E01609F442C01B
:100830000E949D0384E190E00E94DB0988819981F8
:100840000E94930388E290E00E94DB0988819981ED
:100850000E949D0384E190E00E94DB098A819B81D4
:100860000E949D0384E190E00E94DB0988819981C8
:100870000E94930388E290E00E94DB0988819981BD
:100880000E949D0384E190E00E94DB0988EE93E0E2
:100890000E94DB0990E080E0DF91CF911F910F91E2
:1008A000FF90EF90DF90CF900895082F95CF0E9492
:1008B00093039DCF0E949303BDCF8FEF9FEFECCFAB
:1008C0008EEF9FEFE9CFCF93DF93EC018A810E94F7
:1008D000880A21E0892B39F088810E94880A21E06A
:1008E000892B09F020E0822F90E0DF91CF910895CD
:1008F0006F927F928F929F92AF92BF92CF92DF9230
:10090000EF92FF920F931F93CF93DF93EC014B0174
:100910000E9470096B017C018A810E94880A8C0107
:10092000892B71F00E9470096C197D098E099F094D
:100930006F3171058105910578F30FEF1FEF86C0C8
:1009400088810E94880A019769F784E190E00E94FB
:10095000DB09888199810E94930388E290E00E94DC
:10096000DB09888199810E949D0384E190E00E94C7
:10097000DB0998E0C92ED12C77247394F12CE12C5B
:10098000AA24A394B12C662463948A810E94880AC5
:10099000019719F4EA28FB287624AA0CBB1C84E1F1
:1009A00090E00E94DB09888199810E94930388E28C
:1009B00090E00E94DB09888199810E949D0384E177
:1009C00090E00E94DB0981E0C81AD108F1F68A8123
:1009D0000E94880A6C0184E190E00E94DB09888112
:1009E00099810E94930388E290E00E94DB0988814C
:1009F00099810E949D0384E190E00E94DB0984E1DB
:100A000090E00E94DB098A819B810E949303888188
:100A100099810E94930388E290E00E94DB0988811B
:100A200099810E949D0384E190E00E94DB098A8104
:100A30009B810E949D03F401E08281E0CA94CD284D
:100A400009F080E0871511F00EEF1FEFC801DF916C
:100A5000CF911F910F91FF90EF90DF90CF90BF90BB
:100A6000AF909F908F907F906F900895CF93DF937A
:100A7000EC016AEACE010E94B703892BD1F76AE044
:100A800070E080E090E0DF91CF910C94A209CF93C9
:100A9000DF93EC016AEFCE010E94B703892BD1F7F7
:100AA000DF91CF910895EF92FF920F931F93CF9311
:100AB000DF931F92CDB7DEB7E3E1E60FE33110F528
:100AC0007A018C01F0E0E959FA4F0C94D40AAC0594
:100AD000AA058205880582059F0588058505850587
:100AE00085058205820582058205820582058205CB
:100AF00085057A050E9447056AEAC8010E94B70386
:100B0000892BD1F7F12CE12C11C00E944705FACFB7
:100B10000E944705BE016F5F7F4FC8010E947804A5
:100B20007C01892B79F7C8010E944705C7010F9006
:100B3000DF91CF911F910F91FF90EF9008950E9448
:100B400047056BEAC8010E94B70363E8C8010E9429
:100B5000B703D8CF6EEEFACF0E944705B701C801A0
:100B60000E947804892B19F4C8010E944705EE24DD
:100B7000E394F12CDBCFEF92FF920F931F93CF936F
:100B8000DF931F92CDB7DEB78C017B010E94630417
:100B9000892B51F490E080E00F90DF91CF911F916D
:100BA0000F91FF90EF900895BE016F5F7F4FC801D6
:100BB0000E947804892B71F7A7016981C8010E94FE
:100BC0005305EACF0C94B7031F93CF93DF93EC0147
:100BD000162F60EF0E94B703612FCE010E94B7036A
:100BE00090E080E0DF91CF911F9108951F93CF9304
:100BF000DF93EC01162F60EE0E94B703612FCE0148
:100C00000E94B70390E080E0DF91CF911F9108959B
:100C10001F93CF93DF93EC01162F60EE0E94B70372
:100C200060EFCE010E94B703612FCE010E94B7038F
:100C300090E080E0DF91CF911F910895CF93DF93F3
:100C4000EC0160EE0E94B70362E1CE010E94B7039F
:100C500060EECE010E94B7036CE7CE010E94B7039D
:100C600090E080E0DF91CF910895CF93DF93EC0186
:100C700060EE0E94B70360EFCE010E94B7036CE7FD
:100C8000CE010E94B70360EECE010E94B70360EF71
:100C9000CE010E94B70362E1CE010E94B70390E04B
:100CA00080E0DF91CF910895CF93DF93EC0161EE67
:100CB0000E94B70364E1CE010E94B70367E7CE014B
:100CC0000E94B70361EECE010E94B70360EFCE0130
:100CD0000E94B70364E1CE010E94B70360EECE012B
:100CE0000E94B70367E7CE010E94B70390E080E05F
:100CF000DF91CF910895FC01918D228D892F90E095
:100D0000805C9F4F821B91098F7399270895FC0186
:100D1000918D828D981731F0828DE80FF11D858DB0
:100D200090E008958FEF9FEF0895FC01918D828DE3
:100D3000981761F0A28DAE0FBF2FB11D5D968C91FB
:100D4000928D9F5F9F73928F90E008958FEF9FEF3A
:100D50000895FC01538D448D252F30E0842F90E0C1
:100D6000821B930B541710F0CF96089501970895A6
:100D700089EF97E0892B49F080E090E0892B29F0FA
:100D80000E94F90781110C9400000895FC01A48DC4
:100D9000A80FB92FB11DA35ABF4F2C91848D90E09D
:100DA00001968F739927848FA689B7892C93A08980
:100DB000B1898C9180648C93938D848D981306C037
:100DC0000288F389E02D80818F7D80830895CF9301
:100DD000DF93EC01888D8823B9F0AA89BB89E88963
:100DE000F9898C9185FD03C0808186FD0DC00FB609
:100DF00007FCF7CF8C9185FFF2CF808185FFEDCF87
:100E0000CE010E94C606E9CFDF91CF910895EF92FF
:100E1000FF920F931F93CF93DF93EC0181E0888FB4
:100E20009B8D8C8D981316C0E889F989808185FF88
:100E300011C0EE89FF896083E889F9898081806427
:100E4000808381E090E0DF91CF911F910F91FF901F
:100E5000EF900895F62E0B8D10E00F5F1F4F0F736C
:100E60001127E02E8C8D8E110CC00FB607FCFACF27
:100E7000E889F989808185FFF5CFCE010E94C606F9
:100E8000F1CFEB8DEC0FFD2FF11DE35AFF4FF082F8
:100E90000B8FEA89FB8980818062D2CFCF92DF926B
:100EA000EF92FF921F93CF93DF93EC016A017B01D6
:100EB000122F60E874E88EE190E0A70196010E948D
:100EC000B20A215031094109510956954795379584
:100ED0002795E889F98982E08083211580E1380728
:100EE00098F0E889F989108260E472E48FE090E07C
:100EF000A70196010E94B20A215031094109510906
:100F00005695479537952795EC85FD853083EE8579
:100F1000FF852083188E1068EC89FD891083EA898B
:100F2000FB89808188698083EA89FB8980818F7D44
:100F30008083DF91CF911F91FF90EF90DF90CF9052
:100F400008951F920F920FB60F9211242F938F9333
:100F50009F93EF93FF93E091B102F091B2028081F1
:100F6000E091B702F091B80282FD1BC090818091A0
:100F7000BA028F5F8F732091BB02821741F0E0911C
:100F8000BA02F0E0EF55FD4F958F8093BA02FF91C2
:100F9000EF919F918F912F910F900FBE0F901F9007
:100FA00018958081F4CF1F920F920FB60F921124E3
:100FB0002F933F934F935F936F937F938F939F9361
:100FC000AF93BF93EF93FF9381EA92E00E94C6062E
:100FD000FF91EF91BF91AF919F918F917F916F9111
:100FE0005F914F913F912F910F900FBE0F901F90E7
:100FF000189581EA92E00E947B0621E0892B09F492
:1010000020E0822F0895E1EAF2E01382128288EE56
:1010100093E0A0E0B0E084839583A683B78388E95A
:1010200091E09183808380E490E09587848729E232
:1010300030E0378726872BE230E0318B208B2AE2A5
:1010400030E0338B228B958B848B8CE290E0978BF6
:10105000868B118E128E138E148E0895AF92BF92CE
:10106000CF92DF92EF92FF920F931F93CF93DF9374
:101070006C017B018B01040F151FEB015E01AE18A3
:10108000BF08C017D10759F06991D601ED91FC91C5
:101090000190F081E02DC6010995892B79F7C501F2
:1010A000DF91CF911F910F91FF90EF90DF90CF9044
:1010B000BF90AF900895FB0101900020E9F73197B0
:1010C000AF01461B570BDC01ED91FC910280F381CF
:1010D000E02D0994EF92FF920F931F93CF93DF932C
:1010E0008C017B01D0E0C0E0F701EC0FFD1F6491A3
:1010F000662361F0D801ED91FC910190F081E02D23
:10110000C8010995892B11F02196EECFCE01DF9110
:10111000CF911F910F91FF90EF90089566EA71E0D3
:101120000C945B080F931F93CF93DF93EC010E9405
:101130006A088C01CE010E948E08800F911FDF91FA
:10114000CF911F910F9108958F929F92AF92BF926E
:10115000EF92FF920F931F93CF93DF93CDB7DEB73C
:10116000A1970FB6F894DEBF0FBECDBF7C01FA0188
:10117000CB0119A2223008F42AE08E010F5D1F4F27
:10118000822E912CB12CA12CBF01A50194010E94AB
:10119000B20AF901CA016A300CF5605DD8016E939C
:1011A0008D01232B242B252B79F790E080E01097DD
:1011B00021F0BD01C7010E945B08A1960FB6F8940B
:1011C000DEBF0FBECDBFDF91CF911F910F91FF907A
:1011D000EF90BF90AF909F908F900895695CDECFA5
:1011E0002115310541F4DC01ED91FC910190F08174
:1011F000E02D642F09940C94A4089A01462F50E026
:1012000070E060E00C94F0080F931F93CF93DF938E
:10121000EC010E94FD088C01CE010E948E08800F17
:10122000911FDF91CF911F910F91089508950E9412
:10123000E6090E9416090E945603C8EBD6E00E94F8
:101240003B032097E1F30E94B806F9CF1F920F925B
:101250000FB60F9211242F933F938F939F93AF93C9
:10126000BF938091430390914403A0914503B091B3
:1012700046033091420326E0230F2D3768F129E819
:10128000230F0396A11DB11D2093420380934303B6
:1012900090934403A0934503B093460380913E038B
:1012A00090913F03A0914003B09141030196A11D8D
:1012B000B11D80933E0390933F03A0934003B093EE
:1012C0004103BF91AF919F918F913F912F910F90CB
:1012D0000FBE0F901F9018950296A11DB11DD4CF7F
:1012E0002FB7F894609143037091440380914503B4
:1012F000909146032FBF08953FB7F89480913E0325
:1013000090913F03A0914003B091410322B708B6EA
:1013100000FE05C02F3F19F00196A11DB11D3FBF72
:10132000BA2FA92F982F8827BC01CD01620F711DFC
:10133000811D911D43E0660F771F881F991F4A95F5
:10134000D1F708958F929F92AF92BF92CF92DF9282
:10135000EF92FF926B017C010E947C094B015C01C2
:10136000C114D104E104F104E9F00E94B10A0E9421
:101370007C09681979098A099B09683E73408105CF
:10138000910570F321E0C21AD108E108F10888EE56
:10139000880E83E0981EA11CB11CC114D104E10485
:1013A000F10429F7FF90EF90DF90CF90BF90AF90BE
:1013B0009F908F900895000000008330910528F0E1
:1013C000880F991F05970197F1F70895789483B7CF
:1013D000836083BF83B7886483BF89B7816089BF17
:1013E00082E08EBD8EB581608EBD8FB581608FBD70
:1013F00085B5846085BD85B5806485BD86E886B980
:101400001AB80895843059F028F4813099F0823068
:1014100089F00895853039F0873041F008958FB50F
:101420008F778FBD08958FB58F7DFBCF85B58F7D6D
:1014300085BD089583B78F7D83BF0895CF93DF93D4
:1014400090E0FC01EB54FF4F24918B529F4FFC0125
:1014500084918823C9F090E0880F991FFC01E75F11
:10146000FE4FA591B491FC01E150FF4FC591D4917D
:1014700061110DC09FB7F8948C91209582238C93B5
:101480008881282328839FBFDF91CF910895623000
:1014900051F49FB7F8943C91822F809583238C93CD
:1014A000E8812E2BEFCF8FB7F894EC912E2B2C9355
:1014B0008FBFEACF1F93CF93DF93282F30E0F9013E
:1014C000EB56FF4F8491F901EB54FF4FD491F90192
:1014D000EB52FF4FC491CC23A9F0162F81110E942B
:1014E000020AEC2FF0E0EE0FFF1FE150FF4FA59135
:1014F000B4918FB7F894EC91111108C0D095DE2308
:10150000DC938FBFDF91CF911F910895DE2BF8CF31
:10151000CF93DF93282F30E0F901EB56FF4F8491F2
:10152000F901EB54FF4FD491F901EB52FF4FC491F5
:10153000CC23A1F081110E94020AEC2FF0E0EE0F03
:10154000FF1FEB50FF4FA591B491EC91ED2381E08B
:1015500090E009F480E0DF91CF91089580E090E081
:10156000FACF0895A1E21A2EAA1BBB1BFD010DC0E4
:10157000AA1FBB1FEE1FFF1FA217B307E407F50743
:1015800020F0A21BB30BE40BF50B661F771F881F1F
:10159000991F1A9469F760957095809590959B01B5
:1015A000AC01BD01CF010895EE0FFF1F0590F4912E
:0815B000E02D0994F894FFCF2F
:1015B800FF0A0B0C0D0E0F10111213141516171F1E
:1015C8001E1D1C1B1A191800010203010207080935
:1015D8000A0B0C0D13141516171819030405060E1B
:1015E8000F1011121A5511180106180205190306D1
:1015F80019040507050418060D1007050A08050B48
:10160800090E030A080E0B05080C08110D0D110E22
:101618000D0E0F0503100F03110A1112060A1311FC
:1016280019140E1915070E160E1817101718041787
:101638001904091A09101B0A0E1C0C0E1D0B0E1E8C
:101648000B111F1003200608210518220F19230764
:101658000F240F18250F1726121727091228090F0C
:10166800290A0F2A0C0F2B0B0F2C08102D060B2EF6
:1016780008122F0711301019310710321018330EC5
:101688001734061735060936090E370A10380C10B4
:10169800390B103A040A3B0B123C151A3D04193E4B
:1016A80012193F0712401218410517421117430932
:1016B80011440509450A12460C1247040B48011A41
:1016C80049161A4A141A4B060C4C131A4D050D4E9E
:1016D800021A4F080F5004195106035211035304FC
:1016E8000854060D0000000007072E08A906E706A3
:0A16F8007B06950687060D0A000028
:00000001FF
