:100000000C946A000C9492000C9492000C94920050
:100010000C9492000C9492000C9492000C94920018
:100020000C9492000C9492000C9492000C94F6059F
:100030000C9492000C9492000C9492000C949200F8
:100040000C9492000C9492000C9492000C949200E8
:100050000C9492000000000200000000000000006C
:100060000504000700000000000000000000000080
:100070000000000001020408102040800102040872
:100080001020408001020408102040800102040872
:100090001020408002020202020202020404040450
:1000A0000404040403030303030303030101010124
:1000B000010101010000390036003300300000006A
:1000C0003B0038003500320000003A0037003400B1
:1000D0003100F60211241FBECFE5D8E0DEBFCDBF50
:1000E00011E0A0E6B0E0E4E1FFE002C005900D926F
:1000F000A639B107D9F722E0A6E9B1E001C01D9207
:10010000A539B207E1F710E0CAE6D0E004C02197B4
:10011000FE010E948207C936D107C9F70E94E70590
:100120000C9488070C940000EFE9F1E09F012F592F
:1001300031402817390714F41192F8CF0895662337
:1001400029F0682F8BE991E00C944D05682F8BE91D
:1001500091E00C944F05662329F0682F8BE991E01C
:100160000C946105682F8BE991E00C947305815024
:10017000853508F053C1E82FF0E0EF53FF4F0C94A2
:100180008207DC01ED01EF01F101F301F501F70157
:10019000F901060208020A020C026F01A60193018E
:1001A0008701B601A40189014D014F01510153019D
:1001B0005501570159015B015D014B01C601C401A5
:1001C000BA01C001370143011F0139013D01470157
:1001D0003F01270133013501C801CA01BC01C20139
:1001E00016013B011D0121012301250129012B01DC
:1001F0002D01D001D201D6016201680149014501FA
:100200001B014101190131012F01CC01CE01D401A3
:1002100066015F016401DA016B01BE016D01D80165
:1002200068018F0191018B018D01B8018CE10C9463
:100230009F0082E3FCCF81E2FACF83E2F8CF84E231
:10024000F6CF8BE2F4CF84E3F2CF83E3F0CF83E405
:10025000EECF8BE3ECCF82E4EACF8BE4E8CF8AE306
:10026000E6CF81E3E4CF84E4E2CF8DE4E0CF85E123
:10027000DECF8DE2DCCF8BE1DACF8CE2D8CF8CE31E
:10028000D6CF8AE2D4CF8DE1D2CF82E2D0CF85E340
:10029000CECF8AE1CCCF85E4CACF86E1C8CF8EE14C
:1002A000C6CF86E2C4CF85E2C2CF8EE2C0CF86E35E
:1002B000BECF8DE3BCCF8EE3BACF86E4B8CF6093D8
:1002C0009601089582E1B3CF84E1B1CF89E5AFCF44
:1002D00084E10C94AB0081E1AACF81E1FACF6623DF
:1002E00069F080919601882321F08BE991E00C94CC
:1002F000890560E78BE991E00C94610560E78BE983
:1003000091E00E9473058BE991E00C94A00581E7D0
:10031000E0CF8EE08CCF85E7DCCF82E7DACF8BE6CB
:10032000D8CF84E7D6CF662351F0809196018823F9
:1003300021F08BE991E00C94BF056DE7DBCF6DE711
:100340008BE991E00C9473058AE7C3CF662339F0FB
:10035000809196016EE7811136C06CE6CBCF6EE7D7
:100360008BE991E00E944F056CE6EACF89E6B1CFB8
:1003700086E75DCF86E65BCF8AE559CF89E257CF26
:100380008DE055CF88E553CF85E551CF8EE44FCF33
:1003900084E54DCF8BE54BCF81E449CF89E447CF4E
:1003A0008CE445CF82E543CF8AE441CF8DE53FCF52
:1003B0008FE28FCF8FE18DCF662349F08091960138
:1003C00065E0811192CF8BE991E00C944D0565E0D9
:1003D0008BE991E00E944F0596CF86E028CF84E01C
:1003E00026CF8CE024CF83E022CF8BE020CF83E8A0
:1003F0001ECF662331F08091960181119ACF6AE079
:10040000E2CF6AE08BE991E00C944F0581E00FCFD9
:1004100089E00DCF88E70BCF87E009CF0895E6E9A3
:10042000F0E050813181ADE8B0E090E080E02D91C6
:10043000321719F04281241301C0892F9F5F993030
:10044000B1F7ACE7B0E090E020E04D91341719F03F
:100450006281461301C0292F9F5F9131B1F7989FA8
:10046000C00111248D509E4F820F911DDC015C93C1
:100470003396B1E0E539FB07A1F60895AF92BF923C
:10048000CF92DF92EF92FF920F931F93CF93DF9360
:10049000C3EFD1E09DE8E92E90E0F92EAA24A394C1
:1004A0000DE810E0D801ED918D01F0E0E05AFF4F2A
:1004B00062E080810E94EE06B0E006391B0791F7EA
:1004C000D701ED917D01F0E0E05AFF4F108161E02E
:1004D000812F0E94EE0660E0812F0E942A078CE7A0
:1004E000C82E80E0D82E10E000E0FE01E00FF11FE2
:1004F000B080D601ED916D01F0E0E05AFF4F8081B0
:100500000E945807EB2DF0E0E156FE4F892B41F594
:10051000808181110FC0A08261E08B2D0E94B70005
:100520000E9440066093970170939801809399010F
:1005300090939A010F5F1F4F01311105B1F661963B
:10054000B2E0CC38DB0709F0ABCFDF91CF911F9140
:100550000F91FF90EF90DF90CF90BF90AF900895F4
:100560008081882339F3108260E08B2D0E94B700D0
:10057000E1CFCF93DF93CCE7D0E0E991F0E0E05A10
:10058000FF4F62E080810E94EE0680E0CD38D80700
:10059000A1F7CDE8D0E0E991F0E0E05AFF4F62E04A
:1005A00080810E94EE0680E0C639D807A1F784E575
:1005B00090E00E9494000E940F028BE991E0DF918D
:1005C000CF910C94A104CF93DF931F92CDB7DEB7E8
:1005D0001982BE016F5F7F4F8BE991E00E94260573
:1005E0000E943E020F90DF91CF91089547E050E0C6
:1005F00066E070E08BE991E00C941203CF93C82F72
:1006000060E00E942A0761E08C2FCF910C94EE06E7
:10061000CF93C82F60E00E94EE0661E08C2FCF914F
:100620000C942A07CF93DF93EC01CB017983688385
:100630005B834A830E9408038A819B81DF91CF916B
:100640000C940803CF92DF92EF92FF920F931F93C7
:10065000CF93DF93EC01162F88EE93E00E94AB0658
:1006600088810E945807892B09F492C08A810E94D0
:100670005807892B09F48FC08A819B810E94FE0252
:1006800084E190E00E94AB06888199810E94FE027D
:1006900088E290E00E94AB06888199810E9408035D
:1006A00084E190E00E94AB0628E0F22E01E0C12E2A
:1006B000D12C8A819B81212F2170E22E10FF62C0F4
:1006C0000E94080384E190E00E94AB068881998132
:1006D0000E94FE0288E290E00E94AB068881998128
:1006E0000E94080384E190E00E94AB068E2D8027D3
:1006F000D594C7941C2DFA94F11042C08A819B8135
:10070000E01609F442C00E94080384E190E00E94D0
:10071000AB06888199810E94FE0288E290E00E94E7
:10072000AB06888199810E94080384E190E00E94D1
:10073000AB068A819B810E94080384E190E00E94BD
:10074000AB06888199810E94FE0288E290E00E94B7
:10075000AB06888199810E94080384E190E00E94A1
:10076000AB0688EE93E00E94AB0690E080E0DF915C
:10077000CF911F910F91FF90EF90DF90CF90089550
:10078000082F95CF0E94FE029DCF0E94FE02BDCF92
:100790008FEF9FEFECCF8EEF9FEFE9CFCF93DF93FB
:1007A000EC018A810E94580721E0892B39F0888169
:1007B0000E94580721E0892B09F020E0822F90E069
:1007C000DF91CF9108956F927F928F929F92AF9217
:1007D000BF92CF92DF92EF92FF920F931F93CF932E
:1007E000DF93EC014B010E9440066B017C018A8182
:1007F0000E9458078C01892B71F00E9440066C19E9
:100800007D098E099F096F3171058105910578F386
:100810000FEF1FEF86C088810E945807019769F784
:1008200084E190E00E94AB06888199810E94FE02DB
:1008300088E290E00E94AB06888199810E940803BB
:1008400084E190E00E94AB0698E0C92ED12C772479
:100850007394F12CE12CAA24A394B12C6624639404
:100860008A810E945807019719F4EA28FB28762408
:10087000AA0CBB1C84E190E00E94AB0688819981A0
:100880000E94FE0288E290E00E94AB068881998176
:100890000E94080384E190E00E94AB0681E0C81A40
:1008A000D108F1F68A810E9458076C0184E190E03A
:1008B0000E94AB06888199810E94FE0288E290E046
:1008C0000E94AB06888199810E94080384E190E030
:1008D0000E94AB0684E190E00E94AB068A819B8176
:1008E0000E94FE02888199810E94FE0288E290E0C7
:1008F0000E94AB06888199810E94080384E190E000
:100900000E94AB068A819B810E940803F401E08269
:1009100081E0CA94CD2809F080E0871511F00EEF30
:100920001FEFC801DF91CF911F910F91FF90EF90C2
:10093000DF90CF90BF90AF909F908F907F906F90FF
:100940000895CF93DF93EC016AEACE010E9422035F
:10095000892BD1F76AE070E080E090E0DF91CF91E1
:100960000C947206CF93DF93EC016AEFCE010E94E4
:100970002203892BD1F7DF91CF910895EF92FF9257
:100980000F931F93CF93DF931F92CDB7DEB7E3E1B1
:10099000E60FE33110F57A018C01F0E0EE52FB4FE7
:1009A0000C94820717051505ED04F304ED040A0500
:1009B000F304F004F004F004ED04ED04ED04ED04A0
:1009C000ED04ED04ED04F004E5040E94B2046AEACB
:1009D000C8010E942203892BD1F7F12CE12C11C010
:1009E0000E94B204FACF0E94B204BE016F5F7F4F33
:1009F000C8010E94E3037C01892B79F7C8010E949A
:100A0000B204C7010F90DF91CF911F910F91FF901A
:100A1000EF9008950E94B2046BEAC8010E9422037D
:100A200063E8C8010E942203D8CF6EEEFACF0E947D
:100A3000B204B701C8010E94E303892B19F4C8016D
:100A40000E94B204EE24E394F12CDBCFEF92FF92EC
:100A50000F931F93CF93DF931F92CDB7DEB78C0117
:100A60007B010E94CE03892B51F490E080E00F902F
:100A7000DF91CF911F910F91FF90EF900895BE01EC
:100A80006F5F7F4FC8010E94E303892B71F7A701B5
:100A90006981C8010E94BE04EACF0C9422031F930F
:100AA000CF93DF93EC01162F60EF0E942203612F9A
:100AB000CE010E94220390E080E0DF91CF911F9150
:100AC00008951F93CF93DF93EC01162F60EE0E94E1
:100AD0002203612FCE010E94220390E080E0DF918B
:100AE000CF911F9108951F93CF93DF93EC01162FA1
:100AF00060EE0E94220360EFCE010E942203612F6C
:100B0000CE010E94220390E080E0DF91CF911F91FF
:100B10000895CF93DF93EC0160EE0E94220362E11F
:100B2000CE010E94220360EECE010E9422036CE7F8
:100B3000CE010E94220390E080E0DF91CF910895E2
:100B4000CF93DF93EC0160EE0E94220360EFCE01B1
:100B50000E9422036CE7CE010E94220360EECE01C8
:100B60000E94220360EFCE010E94220362E1CE01C7
:100B70000E94220390E080E0DF91CF910895CF930F
:100B8000DF93EC0161EE0E94220364E1CE010E943A
:100B9000220367E7CE010E94220361EECE010E948C
:100BA000220360EFCE010E94220364E1CE010E9485
:100BB000220360EECE010E94220367E7CE010E946D
:100BC000220390E080E0DF91CF91089508950E9484
:100BD000B6060E94E6050E94B902C0E0D0E00E947D
:100BE000E3022097E1F30E940000F9CF1F920F92D9
:100BF0000FB60F9211242F933F938F939F93AF9330
:100C0000BF938091910290919202A0919302B09132
:100C100094023091900226E0230F2D3768F129E8E5
:100C2000230F0396A11DB11D209390028093910282
:100C300090939202A0939302B093940280918C02BD
:100C400090918D02A0918E02B0918F020196A11D0C
:100C5000B11D80938C0290938D02A0938E02B0936D
:100C60008F02BF91AF919F918F913F912F910F90E4
:100C70000FBE0F901F9018950296A11DB11DD4CFE5
:100C80002FB7F89460919102709192028091930233
:100C9000909194022FBF08953FB7F89480918C02F1
:100CA00090918D02A0918E02B0918F0222B708B66A
:100CB00000FE05C02F3F19F00196A11DB11D3FBFD9
:100CC000BA2FA92F982F8827BC01CD01620F711D63
:100CD000811D911D43E0660F771F881F991F4A955C
:100CE000D1F708958F929F92AF92BF92CF92DF92E9
:100CF000EF92FF926B017C010E944C064B015C015C
:100D0000C114D104E104F104E9F00E9481070E94BA
:100D10004C06681979098A099B09683E7340810568
:100D2000910570F321E0C21AD108E108F10888EEBC
:100D3000880E83E0981EA11CB11CC114D104E104EB
:100D4000F10429F7FF90EF90DF90CF90BF90AF9024
:100D50009F908F900895000000008330910528F047
:100D6000880F991F05970197F1F70895789483B735
:100D7000836083BF83B7886483BF89B7816089BF7D
:100D800082E08EBD8EB581608EBD8FB581608FBDD6
:100D900085B5846085BD85B5806485BD86E886B9E6
:100DA0001AB80895843059F028F4813099F08230CF
:100DB00089F00895853039F0873041F008958FB576
:100DC0008F778FBD08958FB58F7DFBCF85B58F7DD4
:100DD00085BD089583B78F7D83BF0895CF93DF933B
:100DE00090E0FC01EC58FF4F24918C569F4FFC0182
:100DF00084918823C9F090E0880F991FFC01E85383
:100E0000FF4FA591B491FC01E254FF4FC591D491DD
:100E100061110DC09FB7F8948C91209582238C931B
:100E20008881282328839FBFDF91CF910895623066
:100E300051F49FB7F8943C91822F809583238C9333
:100E4000E8812E2BEFCF8FB7F894EC912E2B2C93BB
:100E50008FBFEACF1F93CF93DF93282F30E0F901A4
:100E6000EC5AFF4F8491F901EC58FF4FD491F901EE
:100E7000EC56FF4FC491CC23A9F0162F81110E948C
:100E8000D206EC2FF0E0EE0FFF1FE254FF4FA591CA
:100E9000B4918FB7F894EC91111108C0D095DE236E
:100EA000DC938FBFDF91CF911F910895DE2BF8CF98
:100EB000CF93DF93282F30E0F901EC5AFF4F849154
:100EC000F901EC58FF4FD491F901EC56FF4FC49152
:100ED000CC23A1F081110E94D206EC2FF0E0EE0F9E
:100EE000FF1FEC54FF4FA591B491EC91ED2381E0ED
:100EF00090E009F480E0DF91CF91089580E090E0E8
:100F0000FACF0895EE0FFF1F0590F491E02D09949C
:040F1000F894FFCF83
:100F1400FF0A0B0C0D0E0F10111213141516171FC8
:100F24001E1D1C1B1A1918000102030401020708E4
:100F3400090A0B0C0D131415161718191B040506B2
:100F44000E0F1011121A5511180106180205190373
:100F54000619040507050418060D1007050A0805F7
:100F64000B090E1B0A080E0B05080C08110D0D11B8
:100F74000E0D0E0F051B100F1B110A1112060A137A
:100F84001119140E1915070E160E18171017180438
:100F9400171904091A09101B0A0E1C0C0E1D0B0E3E
:100FA4001E0B111F101B200608210518220F1923E0
:100FB400070F240F18250F172612172709122809BF
:100FC4000F290A0F2A0C0F2B0B0F2C08102D060BC0
:100FD4002E08122F07113010193107103210183350
:100FE4000E1734061735060936090E370A10380C61
:100FF40010390B103A040A3B0B123C151A3D041924
:101004003E12193F071240121841051742111743A7
:101014000911440509450A12460C1247040B4801FC
:101024001A49161A4A141A4B060C4C131A4D050D7C
:101034004E021A4F080F50041951061B52111B532C
:06104400040854060D0033
:00000001FF
