:100000000C948C000C94B4000C94B4000C94B400C8
:100010000C94B4000C94B4000C94B4000C94B40090
:100020000C94B4000C94B4000C94B4000C94FC0830
:100030000C94B4000C9477070C94A9070C94B400AA
:100040000C94B4000C94B4000C94B4000C94B40060
:100050000C94B4005A5820756E696B6579626F61B3
:1000600072642050532F3220636F6E74726F6C6C09
:1000700065722076312E300052656C65617365645F
:10008000206B65793A200050726573736564206B4C
:1000900065793A2000000000020000000000000026
:1000A0000005040007000000000000000000000040
:1000B000000000000001020408102040800102043A
:1000C0000810204080010204081020408001020432
:1000D000081020408002020202020202020404040C
:1000E00004040404040303030303030303010101E1
:1000F0000101010101000039003600330030000029
:10010000003B0038003500320000003A0037003470
:10011000003100007903D90711241FBECFE5D8E0D4
:10012000DEBFCDBF11E0A0E6B0E0E4E6F5E102C03D
:1001300005900D92A239B107D9F723E0A2E9B1E009
:1001400001C01D92AD31B207E1F710E0CCE8D0E07C
:1001500004C02197FE010E94AA0ACA38D107C9F734
:100160000E94ED080C94B00A0C940000E3EAF1E060
:100170009F01235A31402817390714F41192F8CF00
:100180000895662329F0682F8FE991E00C941506F5
:10019000682F8FE991E00C941706662329F0682FE9
:1001A0008FE991E00C942906682F8FE991E00C9477
:1001B0003B06CF93DF93D82FC62F68E770E0CC23A0
:1001C00011F067E870E087E792E00E94400840E1A4
:1001D00050E06D2F87E792E00E94DA08DE3408F0E5
:1001E000C9C0ED2FF0E0E950FF4F0C94AA0AA90115
:1001F0004D0250025302560259025C025F02620233
:10020000650268026B026E025A015D010E02110264
:10021000140217021A021D022002230226020B02F8
:100220002F022C02AC01B501ED01FF01C901F00163
:10023000F6010502F901D501E701EA0132023502B2
:1002400047022902BD01F301C601CC01CF01D20151
:10025000D801DB01DE013E024102AF014501080287
:100260000202C301FC01C001E401E10138023B02CA
:1002700044024E01B8014B015101BA01B2014A02D8
:10028000540189019901600179016C2F82E1DF91AC
:10029000CF910C94C1006C2F84E1F9CF6C2F89E5CC
:1002A000F6CF6C2F81E1F3CF6C2F81E1DF91CF91FD
:1002B0000C94CD006C2F81E7F9CF6C2F8EE0E7CF47
:1002C000CC2359F08091920165E781116DE78FE9A8
:1002D00091E0DF91CF910C94290665E78FE991E0D9
:1002E0000E943B066DE78FE991E0DF91CF910C947E
:1002F0003B06CC2339F08091920162E7882339F3E1
:100300006AE7E5CF62E78FE991E00E943B066AE782
:10031000EACFCC2339F0809192016BE68823B9F2C1
:100320006CE6D5CF6BE68FE991E00E943B066CE668
:10033000DACFCC2339F08091920164E7882339F237
:1003400069E6C5CF64E78FE991E00E943B0669E664
:10035000CACF6C2F86E79BCF6C2F86E698CF6C2F89
:100360008AE595CF6C2F89E292CF6C2F8DE08FCFED
:10037000C0939201DF91CF9108956C2F8CE187CFCC
:100380006C2F82E384CF6C2F81E281CF6C2F83E2CC
:100390007ECF6C2F84E27BCF6C2F8BE278CF6C2FDB
:1003A00084E375CF6C2F83E372CF6C2F83E46FCF20
:1003B0006C2F8BE36CCF6C2F82E469CF6C2F8BE4B6
:1003C00066CF6C2F8AE363CF6C2F81E360CF6C2FF5
:1003D00084E45DCF6C2F8DE45ACF6C2F85E157CF2D
:1003E0006C2F8DE254CF6C2F8BE151CF6C2F8CE2B0
:1003F0004ECF6C2F8CE34BCF6C2F8AE248CF6C2F03
:100400008DE145CF6C2F82E242CF6C2F85E33FCF49
:100410006C2F8AE13CCF6C2F85E439CF6C2F86E1BD
:1004200036CF6C2F8EE133CF6C2F86E230CF6C2F1E
:1004300085E22DCF6C2F8EE22ACF6C2F86E327CF5B
:100440006C2F8DE324CF6C2F8EE321CF6C2F86E4AD
:100450001ECF6C2F88E51BCF6C2F85E518CF6C2F36
:100460008EE415CF6C2F84E512CF6C2F8BE50FCF68
:100470006C2F81E40CCF6C2F89E409CF6C2F8CE4B6
:1004800006CF6C2F82E503CF6C2F8AE400CF6C2F50
:100490008DE5FDCE6C2F8FE209CF6C2F85E0F7CE76
:1004A0006C2F86E0F4CE6C2F84E0F1CE6C2F8CE0C4
:1004B000EECE6C2F83E0EBCE6C2F8BE0E8CE6C2F72
:1004C00083E8E5CE6C2F8AE0E2CE6C2F81E0DFCEB0
:1004D0006C2F89E0DCCE6C2F88E7D9CE6C2F87E0BB
:1004E000D6CEE3E9F0E050813181ABE8B0E090E0B6
:1004F00080E02D91321719F04281241301C0892F19
:100500009F5F9830B1F7ABE7B0E090E020E04D910D
:10051000341719F06281461301C0292F9F5F903173
:10052000B1F730E1839FC001112489509E4F820FA3
:10053000911DDC015C933396B1E0ED37FB0799F632
:100540000895BF92CF92DF92EF92FF920F931F9385
:10055000CF93DF9307EF11E0D12CCC24C394CBE8E9
:10056000D0E0F12CE991F0E0E05AFF4FE080FD147B
:1005700009F44DC062E08E2D0E94F409F39488E0E6
:10058000F812F0CF8BE7E82E80E0F82ED0E0C0E044
:10059000F801EC0FFD1FB080D701ED917D01F0E077
:1005A000E05AFF4F80810E945E0AEB2DF0E0ED558E
:1005B000FE4F892BA9F58081811115C0C08261E0B1
:1005C0008B2D0E94D9008091930190919401A0916C
:1005D0009501B09196018093970190939801A09313
:1005E0009901B0939A012196C031D10589F6D3942F
:1005F000005F1F4FB8E0DB12B2CFDF91CF911F91A8
:100600000F91FF90EF90DF90CF90BF90089561E041
:100610008E2D0E94F40960E08E2D0E94300AAECF2C
:100620008081882301F3108260E08B2D0E94D90025
:10063000DACF0F931F93CF93DF931F92CDB7DEB71F
:100640000E944609609393017093940180939501F1
:1006500090939601198200919B0110919C01209129
:100660009D0130919E01601B710B820B930B6B30CF
:10067000710581059105B8F0BE016F5F7F4F8FE96D
:1006800091E00E94EE058091930190919401A091D8
:100690009501B091960180939B0190939C01A0934A
:1006A0009D01B0939E010E94A102809193019091BF
:1006B0009401A0919501B0919601409197015091BC
:1006C00098016091990170919A01841B950BA60B7A
:1006D000B70B60E084369105A105B10508F061E033
:1006E00084E00E94300A0F90DF91CF911F910F910B
:1006F000089547E050E066E070E08FE991E00C94E7
:10070000DA03CF93DF9326E040E052EC61E070E043
:1007100087E792E00E94240787E792E00E94BD06E7
:1007200061E084E00E94F40961E084E00E94300A04
:10073000CBE7D0E0E991F0E0E05AFF4F62E0808142
:100740000E94F40980E0CB38D807A1F7CBE8D0E0CD
:10075000E991F0E0E05AFF4F62E080810E94F409E5
:1007600080E0C339D807A1F784E590E00E94B60085
:100770000E94710264E570E087E792E00E946808D9
:100780008FE991E0DF91CF910C946905CF93C82F49
:1007900060E00E94300A61E08C2FCF910C94F40944
:1007A000CF93C82F60E00E94F40961E08C2FCF91B5
:1007B0000C94300ACF93DF93EC01CB0179836883EB
:1007C0005B834A830E94D0038A819B81DF91CF9112
:1007D0000C94D003CF92DF92EF92FF920F931F936E
:1007E000CF93DF93EC01162F88EE93E00E94B109BE
:1007F00088810E945E0A892B09F492C08A810E9436
:100800005E0A892B09F48FC08A819B810E94C603EE
:1008100084E190E00E94B109888199810E94C60319
:1008200088E290E00E94B109888199810E94D003FA
:1008300084E190E00E94B10928E0F22E01E0C12E8F
:10084000D12C8A819B81212F2170E22E10FF62C062
:100850000E94D00384E190E00E94B10988819981CF
:100860000E94C60388E290E00E94B10988819981C4
:100870000E94D00384E190E00E94B1098E2D802770
:10088000D594C7941C2DFA94F11042C08A819B81A3
:10089000E01609F442C00E94D00384E190E00E9477
:1008A000B109888199810E94C60388E290E00E9484
:1008B000B109888199810E94D00384E190E00E946F
:1008C000B1098A819B810E94D00384E190E00E945B
:1008D000B109888199810E94C60388E290E00E9454
:1008E000B109888199810E94D00384E190E00E943F
:1008F000B10988EE93E00E94B10990E080E0DF91B9
:10090000CF911F910F91FF90EF90DF90CF900895BE
:10091000082F95CF0E94C6039DCF0E94C603BDCF6E
:100920008FEF9FEFECCF8EEF9FEFE9CFCF93DF9369
:10093000EC018A810E945E0A21E0892B39F08881CE
:100940000E945E0A21E0892B09F020E0822F90E0CE
:10095000DF91CF9108956F927F928F929F92AF9285
:10096000BF92CF92DF92EF92FF920F931F93CF939C
:10097000DF93EC014B010E9446096B017C018A81E7
:100980000E945E0A8C01892B71F00E9446096C1945
:100990007D098E099F096F3171058105910578F3F5
:1009A0000FEF1FEF86C088810E945E0A019769F7EA
:1009B00084E190E00E94B109888199810E94C60378
:1009C00088E290E00E94B109888199810E94D00359
:1009D00084E190E00E94B10998E0C92ED12C7724DF
:1009E0007394F12CE12CAA24A394B12C6624639473
:1009F0008A810E945E0A019719F4EA28FB2876246E
:100A0000AA0CBB1C84E190E00E94B1098881998105
:100A10000E94C60388E290E00E94B1098881998112
:100A20000E94D00384E190E00E94B10981E0C81ADD
:100A3000D108F1F68A810E945E0A6C0184E190E09F
:100A40000E94B109888199810E94C60388E290E0E2
:100A50000E94B109888199810E94D00384E190E0CD
:100A60000E94B10984E190E00E94B1098A819B81D2
:100A70000E94C603888199810E94C60388E290E0A3
:100A80000E94B109888199810E94D00384E190E09D
:100A90000E94B1098A819B810E94D003F401E08207
:100AA00081E0CA94CD2809F080E0871511F00EEF9F
:100AB0001FEFC801DF91CF911F910F91FF90EF9031
:100AC000DF90CF90BF90AF909F908F907F906F906E
:100AD0000895CF93DF93EC016AEACE010E94EA0306
:100AE000892BD1F76AE070E080E090E0DF91CF9150
:100AF0000C947809CF93DF93EC016AEFCE010E944A
:100B0000EA03892BD1F7DF91CF910895EF92FF92FD
:100B10000F931F93CF93DF931F92CDB7DEB7E3E11F
:100B2000E60FE33110F57A018C01F0E0E656FA4F5A
:100B30000C94AA0ADF05DD05B505BB05B505D20590
:100B4000BB05B805B805B805B505B505B505B505C6
:100B5000B505B505B505B805AD050E947A056AEA83
:100B6000C8010E94EA03892BD1F7F12CE12C11C0B6
:100B70000E947A05FACF0E947A05BE016F5F7F4F0F
:100B8000C8010E94AB047C01892B79F7C8010E943F
:100B90007A05C7010F90DF91CF911F910F91FF90C0
:100BA000EF9008950E947A056BEAC8010E94EA035B
:100BB00063E8C8010E94EA03D8CF6EEEFACF0E9424
:100BC0007A05B701C8010E94AB04892B19F4C8014A
:100BD0000E947A05EE24E394F12CDBCFEF92FF9292
:100BE0000F931F93CF93DF931F92CDB7DEB78C0186
:100BF0007B010E949604892B51F490E080E00F90D5
:100C0000DF91CF911F910F91FF90EF900895BE015A
:100C10006F5F7F4FC8010E94AB04892B71F7A7015A
:100C20006981C8010E948605EACF0C94EA031F93EC
:100C3000CF93DF93EC01162F60EF0E94EA03612F40
:100C4000CE010E94EA0390E080E0DF91CF911F91F6
:100C500008951F93CF93DF93EC01162F60EE0E944F
:100C6000EA03612FCE010E94EA0390E080E0DF9169
:100C7000CF911F9108951F93CF93DF93EC01162F0F
:100C800060EE0E94EA0360EFCE010E94EA03612F4A
:100C9000CE010E94EA0390E080E0DF91CF911F91A6
:100CA0000895FC01918D228D892F90E0805C9F4FEB
:100CB000821B91098F7399270895FC01918D828D74
:100CC000981731F0828DE80FF11D858D90E0089521
:100CD0008FEF9FEF0895FC01918D828D981761F041
:100CE000A28DAE0FBF2FB11D5D968C91928D9F5F2F
:100CF0009F73928F90E008958FEF9FEF0895FC010E
:100D0000538D448D252F30E0842F90E0821B930B70
:100D1000541710F0CF960895019708958FEC97E03F
:100D2000892B49F080E090E0892B29F00E94CF07C1
:100D300081110C9400000895FC01A48DA80FB92F17
:100D4000B11DA35ABF4F2C91848D90E001968F73F3
:100D50009927848FA689B7892C93A089B1898C9112
:100D600080648C93938D848D981306C00288F389D8
:100D7000E02D80818F7D80830895CF93DF93EC01F8
:100D8000888D8823B9F0AA89BB89E889F9898C9173
:100D900085FD03C0808186FD0DC00FB607FCF7CF2F
:100DA0008C9185FFF2CF808185FFEDCFCE010E942F
:100DB0009C06E9CFDF91CF910895EF92FF920F93B8
:100DC0001F93CF93DF93EC0181E0888F9B8D8C8DF7
:100DD000981316C0E889F989808185FF11C0EE89D2
:100DE000FF896083E889F98980818064808381E05C
:100DF00090E0DF91CF911F910F91FF90EF900895B8
:100E0000F62E0B8D10E00F5F1F4F0F731127E02E92
:100E10008C8D8E110CC00FB607FCFACFE889F989CA
:100E2000808185FFF5CFCE010E949C06F1CFEB8D2E
:100E3000EC0FFD2FF11DE35AFF4FF0820B8FEA8973
:100E4000FB8980818062D2CFCF92DF92EF92FF92B6
:100E50001F93CF93DF93EC016A017B01122F60E8AF
:100E600074E88EE190E0A70196010E94880A215063
:100E70003109410951095695479537952795E889D4
:100E8000F98982E08083211580E1380798F0E889AC
:100E9000F989108260E472E48FE090E0A701960186
:100EA0000E94880A215031094109510956954795F8
:100EB00037952795EC85FD853083EE85FF8520836A
:100EC000188E1068EC89FD891083EA89FB8980817E
:100ED00088698083EA89FB8980818F7D8083DF91A7
:100EE000CF911F91FF90EF90DF90CF9008951F92C8
:100EF0000F920FB60F9211242F938F939F93EF931E
:100F0000FF93E0918702F09188028081E0918D0249
:100F1000F0918E0282FD1BC09081809190028F5FC4
:100F20008F7320919102821741F0E0919002F0E0DE
:100F3000E958FD4F958F80939002FF91EF919F911B
:100F40008F912F910F900FBE0F901F901895808159
:100F5000F4CF1F920F920FB60F9211242F933F934D
:100F60004F935F936F937F938F939F93AF93BF93B1
:100F7000EF93FF9387E792E00E949C06FF91EF9129
:100F8000BF91AF919F918F917F916F915F914F91A1
:100F90003F912F910F900FBE0F901F90189587E7EC
:100FA00092E00E94510621E0892B09F420E0822F73
:100FB0000895E7E7F2E01382128288EE93E0A0E062
:100FC000B0E084839583A683B78381E891E0918321
:100FD000808380E490E09587848729E230E037873A
:100FE00026872BE230E0318B208B2AE230E0338BF6
:100FF000228B958B848B8CE290E0978B868B118E65
:10100000128E138E148E0895AF92BF92CF92DF92FC
:10101000EF92FF920F931F93CF93DF936C017B01AD
:101020008B01040F151FEB015E01AE18BF08C0173E
:10103000D10759F06991D601ED91FC910190F081B1
:10104000E02DC6010995892B79F7C501DF91CF9174
:101050001F910F91FF90EF90DF90CF90BF90AF90D6
:101060000895FB0101900020E9F73197AF01461B7D
:10107000570BDC01ED91FC910280F381E02D099486
:10108000EF92FF920F931F93CF93DF938C017B011D
:10109000D0E0C0E0F701EC0FFD1F6491662361F022
:1010A000D801ED91FC910190F081E02DC8010995E6
:1010B000892B11F02196EECFCE01DF91CF911F91B8
:1010C0000F91FF90EF9008956FE871E00C94310854
:1010D0000F931F93CF93DF93EC010E9440088C0184
:1010E000CE010E946408800F911FDF91CF911F9164
:1010F0000F9108958F929F92AF92BF92EF92FF92BD
:101100000F931F93CF93DF93CDB7DEB7A1970FB6A1
:10111000F894DEBF0FBECDBF7C01FA01CB0119A24E
:10112000223008F42AE08E010F5D1F4F822E912C91
:10113000B12CA12CBF01A50194010E94880AF901DC
:10114000CA016A300CF5605DD8016E938D01232BC6
:10115000242B252B79F790E080E0109721F0BD013A
:10116000C7010E943108A1960FB6F894DEBF0FBEEA
:10117000CDBFDF91CF911F910F91FF90EF90BF9066
:10118000AF909F908F900895695CDECF2115310557
:1011900041F4DC01ED91FC910190F081E02D642F90
:1011A00009940C947A089A01462F50E070E060E0B0
:1011B0000C94C6080F931F93CF93DF93EC010E940A
:1011C000D3088C01CE010E946408800F911FDF912B
:1011D000CF911F910F91089508950E94BC090E941C
:1011E000EC080E948103CEE8D6E00E941903209704
:1011F000E1F30E948E06F9CF1F920F920FB60F9265
:1012000011242F933F938F939F93AF93BF9380911C
:10121000190390911A03A0911B03B0911C03309104
:10122000180326E0230F2D3768F129E8230F0396D2
:10123000A11DB11D209318038093190390931A03E5
:10124000A0931B03B0931C0380911403909115038A
:10125000A0911603B09117030196A11DB11D8093B3
:10126000140390931503A0931603B0931703BF9133
:10127000AF919F918F913F912F910F900FBE0F9043
:101280001F9018950296A11DB11DD4CF2FB7F894C9
:101290006091190370911A0380911B0390911C03B4
:1012A0002FBF08953FB7F8948091140390911503D0
:1012B000A0911603B091170322B708B600FE05C02F
:1012C0002F3F19F00196A11DB11D3FBFBA2FA92FC5
:1012D000982F8827BC01CD01620F711D811D911DC2
:1012E00043E0660F771F881F991F4A95D1F708952D
:1012F0008F929F92AF92BF92CF92DF92EF92FF9226
:101300006B017C010E9452094B015C01C114D104A4
:10131000E104F104E9F00E94870A0E945209681969
:1013200079098A099B09683E73408105910570F32C
:1013300021E0C21AD108E108F10888EE880E83E0A6
:10134000981EA11CB11CC114D104E104F10429F7B9
:10135000FF90EF90DF90CF90BF90AF909F908F90D5
:101360000895000000008330910528F0880F991F30
:1013700005970197F1F70895789483B7836083BF49
:1013800083B7886483BF89B7816089BF82E08EBDDF
:101390008EB581608EBD8FB581608FBD85B584604F
:1013A00085BD85B5806485BD86E886B91AB808957F
:1013B000843059F028F4813099F0823089F0089512
:1013C000853039F0873041F008958FB58F778FBD24
:1013D00008958FB58F7DFBCF85B58F7D85BD089531
:1013E00083B78F7D83BF0895CF93DF9390E0FC0197
:1013F000EB54FF4F24918B529F4FFC018491882323
:10140000C9F090E0880F991FFC01E75FFE4FA5919E
:10141000B491FC01E150FF4FC591D49161110DC011
:101420009FB7F8948C91209582238C9388812823F0
:1014300028839FBFDF91CF910895623051F49FB709
:10144000F8943C91822F809583238C93E8812E2BF6
:10145000EFCF8FB7F894EC912E2B2C938FBFEACF60
:101460001F93CF93DF93282F30E0F901EB56FF4F06
:101470008491F901EB54FF4FD491F901EB52FF4FE6
:10148000C491CC23A9F0162F81110E94D809EC2F0A
:10149000F0E0EE0FFF1FE150FF4FA591B4918FB721
:1014A000F894EC91111108C0D095DE23DC938FBF26
:1014B000DF91CF911F910895DE2BF8CFCF93DF936B
:1014C000282F30E0F901EB56FF4F8491F901EB54DE
:1014D000FF4FD491F901EB52FF4FC491CC23A1F0FF
:1014E00081110E94D809EC2FF0E0EE0FFF1FEB50A6
:1014F000FF4FA591B491EC91ED2381E090E009F4C8
:1015000080E0DF91CF91089580E090E0FACF0895D8
:10151000A1E21A2EAA1BBB1BFD010DC0AA1FBB1FF7
:10152000EE1FFF1FA217B307E407F50720F0A21B69
:10153000B30BE40BF50B661F771F881F991F1A94D6
:1015400069F760957095809590959B01AC01BD0100
:10155000CF010895EE0FFF1F0590F491E02D09943F
:04156000F894FFCF2D
:10156400FF0A0B0C0D0E0F10111213141516171F72
:101574001E1D1C1B1A191800010203090A0B0C0D6D
:101584000E0F10121415161718191A010203040568
:1015940006070800040901070A02070B03020B04EB
:1015A400040B05081506040E07020F08070F0907A8
:1015B400180A08180B051A0C08160D071A0E070945
:1015C4000F080910080A11080B12080C13070C1451
:1015D400070D15080D16080E17080F180817190718
:1015E400171A070E1B02181C02091D01091E010A05
:1015F4001F010B20010C21020C22020D23010D24DA
:10160400010E25010F26011727021728020E2903B0
:10161400182A020A2B03092C030A2D030B2E030C90
:101624002F040C30040D31030D32030E33030F3439
:101634000317350417360518370219380509390513
:101644000A3A050B3B050C3C060C3D060D3E050D08
:101654003F050E40050F4106174203194307154481
:10166400031645021446041647041A48061649058B
:10167400154A06104B06124C04104D061A000000C1
:1016840000DD0604087F06BD0651066B065D060DE7
:021694000A004A
:00000001FF
