:100000000C946A000C9492000C9492000C94920050
:100010000C9492000C9492000C9492000C94920018
:100020000C9492000C9492000C9492000C9438065C
:100030000C9492000C9492000C9492000C949200F8
:100040000C9492000C9492000C9492000C949200E8
:100050000C9492000000000200000000000000006C
:100060000504000700000000000000000000000080
:100070000000000001020408102040800102040872
:100080001020408001020408102040800102040872
:100090001020408002020202020202020404040450
:1000A0000404040403030303030303030101010124
:1000B000010101010000390036003300300000006A
:1000C0003B0038003500320000003A0037003400B1
:1000D0003100380311241FBECFE5D8E0DEBFCDBF0D
:1000E00011E0A0E6B0E0E8E9FFE002C005900D9263
:1000F000AE37B107D9F722E0AEE7B1E001C01D92FB
:10010000A436B207E1F710E0CAE6D0E004C02197B8
:10011000FE010E94C407C936D107C9F70E9429060B
:100120000C94CA070C940000E7E8F1E09F012758FF
:1001300031402817390714F41192F8CF0895662337
:1001400029F0682F83E891E00C948F05682F83E8ED
:1001500091E00C949105662329F0682F83E891E0E3
:100160000C94A305682F83E891E00C94B5058150A9
:100170008E3408F06FC1E82FF0E0EF53FF4F0C947E
:10018000C407F30108020A020C020E021002120256
:10019000140222022402260228021B013001C90196
:1001A000CB01CD01CF01D101D301D501D701D901B7
:1001B000C701DF01DD0188018E01B301BF019B0191
:1001C000B501B901C301BB01A301AF01B101E10157
:1001D000E301EF01DB019301B70199019D019F014B
:1001E000A101A501A701A901E901EB018A010F0104
:1001F000C501C1019701BD019501AD01AB01E5014B
:10020000E701ED0114019001120116012A028C018F
:10021000F10118015201620132014201730182E1D0
:100220000C949F0084E1FCCF89E5FACF81E1F8CFFF
:1002300081E10C94AB00662349F080917E0161E777
:10024000811160E783E891E00C94A30560E783E8FF
:1002500091E00E94B50561E783E891E00C94B50553
:100260008EE0DECF662339F080917E0165E788233A
:1002700049F36DE7E7CF65E783E891E00E94B505B4
:100280006DE7EACF662339F080917E0162E788232B
:10029000C9F26AE7D7CF62E783E891E00E94B5052B
:1002A0006AE7DACF662339F080917E016BE6882316
:1002B00049F26CE6C7CF6BE683E891E00E94B50592
:1002C0006CE6CACF662341F080917E0164E7882303
:1002D00009F4B8CF69E6B6CF64E783E891E00E94FD
:1002E000B50569E6B9CF662349F080917E0166E7DE
:1002F00081116EE783E891E00C948F056EE783E847
:1003000091E00E94910566E783E891E00C949105E5
:1003100086E686CF8AE584CF89E282CF8DE080CFE2
:1003200060937E0108958CE17BCF82E379CF81E2F7
:1003300077CF83E275CF84E273CF8BE271CF84E312
:100340006FCF83E36DCF83E46BCF8BE369CF82E420
:1003500067CF8BE465CF8AE363CF81E361CF84E429
:100360005FCF8DE45DCF85E15BCF8DE259CF8BE12F
:1003700057CF8CE255CF8CE353CF8AE251CF8DE13A
:100380004FCF82E24DCF85E34BCF8AE149CF85E461
:1003900047CF86E145CF8EE143CF86E241CF85E26C
:1003A0003FCF8EE23DCF86E33BCF8DE339CF8EE367
:1003B00037CF86E435CF88E533CF85E531CF8EE47E
:1003C0002FCF84E52DCF8BE52BCF81E429CF89E496
:1003D00027CF8CE425CF82E523CF8AE421CF8DE59A
:1003E0001FCF8FE226CF662351F080917E018823B4
:1003F00021F083E891E00C94CB0565E07BCF65E0CC
:1004000083E891E00E94910583E891E00C94E20575
:1004100086E006CF84E004CF8CE002CF83E000CFFB
:100420008BE0FECE83E8FCCE662351F080917E0106
:10043000882321F083E891E00C9401066AE05ACF0A
:100440006AE062CF81E0ECCE89E0EACE88E7E8CED0
:1004500087E0E6CE0895E3E9F0E050813181ABE832
:10046000B0E090E080E02D91321719F04281241322
:1004700001C0892F9F5F9830B1F7ABE7B0E090E003
:1004800020E04D91341719F06281461301C0292FE5
:100490009F5F9031B1F730E1839FC00111248552F5
:1004A0009E4F820F911DDC015C933396B1E0ED37D6
:1004B000FB0799F60895AF92BF92CF92DF92EF9229
:1004C000FF920F931F93CF93DF93CBEDD1E09BE887
:1004D000E92E90E0F92EAA24A3940BE810E0D801AD
:1004E000ED918D01F0E0E05AFF4F62E080810E94C3
:1004F0003007B0E003391B0791F7D701ED917D017B
:10050000F0E0E05AFF4F108161E0812F0E94300738
:1005100060E0812F0E946C078BE7C82E80E0D82E08
:1005200010E000E0FE01E00FF11FB080D601ED9178
:100530006D01F0E0E05AFF4F80810E949A07EB2D99
:10054000F0E0E957FE4F892B41F5808181110FC002
:10055000A08261E08B2D0E94B7000E94820660930A
:100560007F017093800180938101909382010F5FDE
:100570001F4F00311105B1F66096B2E0CB35DB07B5
:1005800009F0ABCFDF91CF911F910F91FF90EF90CA
:10059000DF90CF90BF90AF9008958081882339F38A
:1005A000108260E08B2D0E94B700E1CFCF93DF93E4
:1005B00061E084E00E94300761E084E00E946C0703
:1005C000CBE7D0E0E991F0E0E05AFF4F62E08081B4
:1005D0000E94300780E0CB38D807A1F7CBE8D0E005
:1005E000E991F0E0E05AFF4F62E080810E9430071D
:1005F00080E0C339D807A1F784E590E00E94940019
:100600000E942B0283E891E0DF91CF910C94E304E8
:100610000F931F93CF93DF931F92CDB7DEB719824D
:10062000BE016F5F7F4F83E891E00E9468050E94E2
:100630005B020E94820600917F011091800120914F
:10064000810130918201601B710B820B930B643628
:1006500071058105910550F460E084E00E946C070B
:100660000F90DF91CF911F910F91089561E0F5CF29
:1006700047E050E066E070E083E891E00C945403BA
:10068000CF93C82F60E00E946C0761E08C2FCF9160
:100690000C943007CF93C82F60E00E94300761E0D0
:1006A0008C2FCF910C946C07CF93DF93EC01CB018F
:1006B000798368835B834A830E944A038A819B8192
:1006C000DF91CF910C944A03CF92DF92EF92FF9289
:1006D0000F931F93CF93DF93EC01162F88EE93E0D7
:1006E0000E94ED0688810E949A07892B09F492C026
:1006F0008A810E949A07892B09F48FC08A819B8185
:100700000E94400384E190E00E94ED068881998177
:100710000E94400388E290E00E94ED068881998162
:100720000E944A0384E190E00E94ED0628E0F22E48
:1007300001E0C12ED12C8A819B81212F2170E22ED4
:1007400010FF62C00E944A0384E190E00E94ED061F
:10075000888199810E94400388E290E00E94ED0622
:10076000888199810E944A0384E190E00E94ED060D
:100770008E2D8027D594C7941C2DFA94F11042C079
:100780008A819B81E01609F442C00E944A0384E1F9
:1007900090E00E94ED06888199810E94400388E2E2
:1007A00090E00E94ED06888199810E944A0384E1CD
:1007B00090E00E94ED068A819B810E944A0384E1B9
:1007C00090E00E94ED06888199810E94400388E2B2
:1007D00090E00E94ED06888199810E944A0384E19D
:1007E00090E00E94ED0688EE93E00E94ED0690E016
:1007F00080E0DF91CF911F910F91FF90EF90DF90FC
:10080000CF900895082F95CF0E9440039DCF0E945E
:100810004003BDCF8FEF9FEFECCF8EEF9FEFE9CF7F
:10082000CF93DF93EC018A810E949A0721E0892B04
:1008300039F088810E949A0721E0892B09F020E095
:10084000822F90E0DF91CF9108956F927F928F92E7
:100850009F92AF92BF92CF92DF92EF92FF920F934F
:100860001F93CF93DF93EC014B010E9482066B0133
:100870007C018A810E949A078C01892B71F00E9469
:1008800082066C197D098E099F096F3171058105FA
:10089000910578F30FEF1FEF86C088810E949A07B9
:1008A000019769F784E190E00E94ED0688819981C3
:1008B0000E94400388E290E00E94ED0688819981C1
:1008C0000E944A0384E190E00E94ED0698E0C92E60
:1008D000D12C77247394F12CE12CAA24A394B12C6D
:1008E000662463948A810E949A07019719F4EA2882
:1008F000FB287624AA0CBB1C84E190E00E94ED0644
:10090000888199810E94400388E290E00E94ED0670
:10091000888199810E944A0384E190E00E94ED065B
:1009200081E0C81AD108F1F68A810E949A076C0109
:1009300084E190E00E94ED06888199810E94400345
:1009400088E290E00E94ED06888199810E944A0326
:1009500084E190E00E94ED0684E190E00E94ED06C3
:100960008A819B810E944003888199810E94400373
:1009700088E290E00E94ED06888199810E944A03F6
:1009800084E190E00E94ED068A819B810E944A03E7
:10099000F401E08281E0CA94CD2809F080E0871557
:1009A00011F00EEF1FEFC801DF91CF911F910F9152
:1009B000FF90EF90DF90CF90BF90AF909F908F907F
:1009C0007F906F900895CF93DF93EC016AEACE0198
:1009D0000E946403892BD1F76AE070E080E090E028
:1009E000DF91CF910C94B406CF93DF93EC016AEFC3
:1009F000CE010E946403892BD1F7DF91CF91089536
:100A0000EF92FF920F931F93CF93DF931F92CDB777
:100A1000DEB7E3E1E60FE33110F57A018C01F0E097
:100A2000EC5EFA4F0C94C407590557052F053505A0
:100A30002F054C0535053205320532052F052F05EA
:100A40002F052F052F052F052F05320527050E949D
:100A5000F4046AEAC8010E946403892BD1F7F12CDF
:100A6000E12C11C00E94F404FACF0E94F404BE01EC
:100A70006F5F7F4FC8010E9425047C01892B79F7A5
:100A8000C8010E94F404C7010F90DF91CF911F911C
:100A90000F91FF90EF9008950E94F4046BEAC80153
:100AA0000E94640363E8C8010E946403D8CF6EEE1D
:100AB000FACF0E94F404B701C8010E942504892BD3
:100AC00019F4C8010E94F404EE24E394F12CDBCF66
:100AD000EF92FF920F931F93CF93DF931F92CDB7A7
:100AE000DEB78C017B010E941004892B51F490E049
:100AF00080E00F90DF91CF911F910F91FF90EF90C9
:100B00000895BE016F5F7F4FC8010E942504892BA5
:100B100071F7A7016981C8010E940005EACF0C9412
:100B200064031F93CF93DF93EC01162F60EF0E94B5
:100B30006403612FCE010E94640390E080E0DF91A6
:100B4000CF911F9108951F93CF93DF93EC01162F40
:100B500060EE0E946403612FCE010E94640390E066
:100B600080E0DF91CF911F9108951F93CF93DF9382
:100B7000EC01162F60EE0E94640360EFCE010E942C
:100B80006403612FCE010E94640390E080E0DF9156
:100B9000CF911F910895CF93DF93EC0160EE0E94F7
:100BA000640362E1CE010E94640360EECE010E9404
:100BB00064036CE7CE010E94640390E080E0DF9163
:100BC000CF910895CF93DF93EC0160EE0E94640310
:100BD00060EFCE010E9464036CE7CE010E946403C3
:100BE00060EECE010E94640360EFCE010E946403B8
:100BF00062E1CE010E94640390E080E0DF91CF913A
:100C00000895CF93DF93EC0161EE0E94640364E1E9
:100C1000CE010E94640367E7CE010E94640361EE87
:100C2000CE010E94640360EFCE010E94640364E180
:100C3000CE010E94640360EECE010E94640367E768
:100C4000CE010E94640390E080E0DF91CF9108958F
:100C500008950E94F8060E9428060E94D602C0E06D
:100C6000D0E00E9408032097E1F30E940000F9CF32
:100C70001F920F920FB60F9211242F933F938F93D1
:100C80009F93AF93BF938091600290916102A09176
:100C90006202B091630230915F0226E0230F2D378C
:100CA00068F129E8230F0396A11DB11D20935F026F
:100CB0008093600290936102A0936202B0936302FA
:100CC00080915B0290915C02A0915D02B0915E0206
:100CD0000196A11DB11D80935B0290935C02A093CD
:100CE0005D02B0935E02BF91AF919F918F913F9152
:100CF0002F910F900FBE0F901F9018950296A11D77
:100D0000B11DD4CF2FB7F894609160027091610249
:100D100080916202909163022FBF08953FB7F894CB
:100D200080915B0290915C02A0915D02B0915E02A5
:100D300022B708B600FE05C02F3F19F00196A11D8D
:100D4000B11D3FBFBA2FA92F982F8827BC01CD0115
:100D5000620F711D811D911D43E0660F771F881F73
:100D6000991F4A95D1F708958F929F92AF92BF92A3
:100D7000CF92DF92EF92FF926B017C010E948E0670
:100D80004B015C01C114D104E104F104E9F00E94BB
:100D9000C3070E948E06681979098A099B09683E73
:100DA00073408105910570F321E0C21AD108E10872
:100DB000F10888EE880E83E0981EA11CB11CC114B6
:100DC000D104E104F10429F7FF90EF90DF90CF9078
:100DD000BF90AF909F908F900895000000008330E7
:100DE000910528F0880F991F05970197F1F708954D
:100DF000789483B7836083BF83B7886483BF89B7E0
:100E0000816089BF82E08EBD8EB581608EBD8FB559
:100E100081608FBD85B5846085BD85B5806485BDE5
:100E200086E886B91AB80895843059F028F48130DC
:100E300099F0823089F00895853039F0873041F09B
:100E400008958FB58F778FBD08958FB58F7DFBCFB8
:100E500085B58F7D85BD089583B78F7D83BF089548
:100E6000CF93DF9390E0FC01EC58FF4F24918C5618
:100E70009F4FFC0184918823C9F090E0880F991F4F
:100E8000FC01E853FF4FA591B491FC01E254FF4FE0
:100E9000C591D49161110DC09FB7F8948C912095A4
:100EA00082238C938881282328839FBFDF91CF9151
:100EB0000895623051F49FB7F8943C91822F809549
:100EC00083238C93E8812E2BEFCF8FB7F894EC918E
:100ED0002E2B2C938FBFEACF1F93CF93DF93282F16
:100EE00030E0F901EC5AFF4F8491F901EC58FF4FC3
:100EF000D491F901EC56FF4FC491CC23A9F0162FE1
:100F000081110E941407EC2FF0E0EE0FFF1FE25456
:100F1000FF4FA591B4918FB7F894EC91111108C0CF
:100F2000D095DE23DC938FBFDF91CF911F91089581
:100F3000DE2BF8CFCF93DF93282F30E0F901EC5A66
:100F4000FF4F8491F901EC58FF4FD491F901EC5611
:100F5000FF4FC491CC23A1F081110E941407EC2F04
:100F6000F0E0EE0FFF1FEC54FF4FA591B491EC9110
:100F7000ED2381E090E009F480E0DF91CF910895C6
:100F800080E090E0FACF0895EE0FFF1F0590F491F6
:080F9000E02D0994F894FFCF55
:100F9800FF0A0B0C0D0E0F10111213141516171F44
:100FA8001E1D1C1B1A191800010203090A0B0C0D3F
:100FB8000E0F10121415161718191A01020304053A
:100FC8000607084E040901070A02070B03020B046F
:100FD800040B05081506040E07020F08070F09077A
:100FE800180A08180B051A0C08160D071A0E070917
:100FF8000F080910080A11080B12080C13070C1423
:10100800070D15080D16080E17080F1808171907E9
:10101800171A070E1B02181C02091D01091E010AD6
:101028001F010B20010C21020C22020D23010D24AB
:10103800010E25010F26011727021728020E290382
:10104800182A020A2B03092C030A2D030B2E030C62
:101058002F040C30040D31030D32030E33030F340B
:1010680003173504173605183702193805093905E5
:101078000A3A050B3B050C3C060C3D060D3E050DDA
:101088003F050E40050F4106174203194307154453
:10109800031645021446041647041A48061649055D
:0E10A800154A06104B06124C04104D061A0095
:00000001FF
