:100000000C946A000C9492000C9492000C94920050
:100010000C9492000C9492000C9492000C94920018
:100020000C9492000C9492000C9492000C94F305A2
:100030000C9492000C9492000C9492000C949200F8
:100040000C9492000C9492000C9492000C949200E8
:100050000C9492000000000200000000000000006C
:100060000504000700000000000000000000000080
:100070000000000001020408102040800102040872
:100080001020408001020408102040800102040872
:100090001020408002020202020202020404040450
:1000A0000404040403030303030303030101010124
:1000B000010101010000390036003300300000006A
:1000C0003B0038003500320000003A0037003400B1
:1000D0003100F30211241FBECFE5D8E0DEBFCDBF53
:1000E00011E0A0E6B0E0EEE0FFE002C005900D9266
:1000F000AE38B107D9F722E0AEE8B1E001C01D92F9
:10010000AD36B207E1F710E0CAE6D0E004C02197AF
:10011000FE010E947F07C936D107C9F70E94E40596
:100120000C9485070C940000E7E9F1E09F01275942
:1001300031402817390714F41192F8CF0895662337
:1001400029F0682F83E991E00C944A05682F83E930
:1001500091E00C944C05662329F0682F83E991E027
:100160000C945E05682F83E991E00C947005815032
:10017000843508F02BC1E82FF0E0EF53FF4F0C94CB
:100180007F07CE01D001D201D401D601D801DA0116
:10019000DC01DE01E001E201E401C101C801250149
:1001A0002301270199019B019D019F01A101A30149
:1001B000A501A701A9019701AF01AD0133013901E3
:1001C00083018F016B018501890193018B0173010B
:1001D0007F018101B101B301BF01AB01630187015F
:1001E00069016D016F017101750177017901B90133
:1001F000BB01350115019501910167018D01650173
:100200007D017B01B501B701BD011A0118013B0158
:10021000E6011F0137012101CC011C013E0129012A
:1002200053012D012B012F01310182E10C949F001C
:1002300084E1FCCF89E5FACF84E10C94AB0081E145
:10024000F5CF81E1FACF81E7F8CF80E7F6CF8EE0F6
:10025000EDCF85E7F2CF82E7F0CF8BE6EECF84E7F4
:10026000ECCF86E7E3CF86E6E1CF8AE5DFCF89E210
:10027000DDCF8DE0DBCF60938E010895662349F0DA
:1002800080918E016CE681116DE783E991E00C9419
:100290005E056CE683E991E00E9470056DE783E9F5
:1002A00091E00C947005662339F080918E0169E627
:1002B000882359F36AE7E9CF69E683E991E00E9470
:1002C00070056AE7ECCF8CE1B1CF82E3AFCF81E27A
:1002D000ADCF83E2ABCF84E2A9CF8BE2A7CF84E39B
:1002E000A5CF83E3A3CF83E4A1CF8BE39FCF82E4A9
:1002F0009DCF8BE49BCF8AE399CF81E397CF84E4B2
:1003000095CF8DE493CF85E191CF8DE28FCF8BE1B7
:100310008DCF8CE28BCF8CE389CF8AE287CF8DE1C2
:1003200085CF82E283CF85E381CF8AE17FCF85E4E9
:100330007DCF86E17BCF8EE179CF86E277CF85E2F4
:1003400075CF8EE273CF86E371CF8DE36FCF8EE3EF
:100350006DCF86E46BCF88E569CF85E567CF8EE406
:1003600065CF84E563CF8BE561CF81E45FCF89E41E
:100370005DCF8CE45BCF82E559CF8AE457CF8DE522
:1003800055CF83E991E061110C9486050C949D058D
:1003900083E991E00C94BC058FE24FCF85E046CF16
:1003A00086E044CF84E042CF8CE040CF83E03ECF74
:1003B0008BE03CCF83E83ACF8AE038CF81E036CF7C
:1003C00089E034CF88E732CF87E030CF0895E2E983
:1003D000F0E050813181ABE7B0E090E080E02D911A
:1003E000321719F04281241301C0892F9F5F983082
:1003F000B1F7A3E8B0E090E020E04D91341719F098
:100400006281461301C0292F9F5F9F30B1F7989FEB
:10041000C001112484519E4F820F911DDC015C9319
:100420003396B1E0EE38FB07A1F60895AF92BF9284
:10043000CF92DF92EF92FF920F931F93CF93DF93B0
:10044000CCEED1E09BE7E92E90E0F92EAA24A3940C
:100450000BE710E0D801ED918D01F0E0E05AFF4F7D
:1004600062E080810E94EB06B0E003381B0791F741
:10047000D701ED917D01F0E0E05AFF4F108161E07E
:10048000812F0E94EB0660E0812F0E94270783E8FE
:10049000C82E80E0D82E10E000E0FE01E00FF11F32
:1004A000B080D601ED916D01F0E0E05AFF4F808100
:1004B0000E945507EB2DF0E0E956FE4F892B41F5E0
:1004C000808181110FC0A08261E08B2D0E94B70056
:1004D0000E943D0660938F0170939001809391017B
:1004E000909392010F5F1F4F0F301105B1F62F96B9
:1004F000B2E0C436DB0709F0ABCFDF91CF911F919B
:100500000F91FF90EF90DF90CF90BF90AF90089544
:100510008081882339F3108260E08B2D0E94B70020
:10052000E1CFCF93DF9361E084E00E94EB0661E0CE
:1005300084E00E942707C3E8D0E0E991F0E0E05AA8
:10054000FF4F62E080810E94EB0680E0C239D8074D
:10055000A1F7CBE7D0E0E991F0E0E05AFF4F62E08D
:1005600080810E94EB0680E0C338D807A1F785E5BB
:1005700090E00E9494000E94E70183E991E0DF91FE
:10058000CF910C949E040F931F93CF93DF931F92F0
:10059000CDB7DEB71982BE016F5F7F4F83E991E06F
:1005A0000E9423050E9416020E943D0600918F01C1
:1005B000109190012091910130919201601B710B7B
:1005C000820B930B643671058105910550F460E050
:1005D00084E00E9427070F90DF91CF911F910F9128
:1005E000089561E0F5CF47E050E066E070E083E910
:1005F00091E00C940F03CF93C82F60E00E9427076F
:1006000061E08C2FCF910C94EB06CF93C82F60E064
:100610000E94EB0661E08C2FCF910C942707CF93BB
:10062000DF93EC01CB01798368835B834A830E946B
:1006300005038A819B81DF91CF910C940503CF92B2
:10064000DF92EF92FF920F931F93CF93DF93EC0112
:10065000162F88EE93E00E94A80688810E94550715
:10066000892B09F492C08A810E945507892B09F4CD
:100670008FC08A819B810E94FB0284E190E00E94EE
:10068000A806888199810E94FB0288E290E00E947E
:10069000A806888199810E94050384E190E00E9468
:1006A000A80628E0F22E01E0C12ED12C8A819B8180
:1006B000212F2170E22E10FF62C00E94050384E109
:1006C00090E00E94A806888199810E94FB0288E23E
:1006D00090E00E94A806888199810E94050384E128
:1006E00090E00E94A8068E2D8027D594C7941C2DDB
:1006F000FA94F11042C08A819B81E01609F442C04D
:100700000E94050384E190E00E94A80688819981F7
:100710000E94FB0288E290E00E94A80688819981ED
:100720000E94050384E190E00E94A8068A819B81D3
:100730000E94050384E190E00E94A80688819981C7
:100740000E94FB0288E290E00E94A80688819981BD
:100750000E94050384E190E00E94A80688EE93E0E1
:100760000E94A80690E080E0DF91CF911F910F9149
:10077000FF90EF90DF90CF900895082F95CF0E94C3
:10078000FB029DCF0E94FB02BDCF8FEF9FEFECCF0E
:100790008EEF9FEFE9CFCF93DF93EC018A810E9428
:1007A000550721E0892B39F088810E94550721E007
:1007B000892B09F020E0822F90E0DF91CF910895FE
:1007C0006F927F928F929F92AF92BF92CF92DF9261
:1007D000EF92FF920F931F93CF93DF93EC014B01A6
:1007E0000E943D066B017C018A810E9455078C01A5
:1007F000892B71F00E943D066C197D098E099F09B5
:100800006F3171058105910578F30FEF1FEF86C0F9
:1008100088810E945507019769F784E190E00E9462
:10082000A806888199810E94FB0288E290E00E94DC
:10083000A806888199810E94050384E190E00E94C6
:10084000A80698E0C92ED12C77247394F12CE12CC2
:10085000AA24A394B12C662463948A810E9455072C
:10086000019719F4EA28FB287624AA0CBB1C84E122
:1008700090E00E94A806888199810E94FB0288E28C
:1008800090E00E94A806888199810E94050384E176
:1008900090E00E94A80681E0C81AD108F1F68A818A
:1008A0000E9455076C0184E190E00E94A8068881AF
:1008B00099810E94FB0288E290E00E94A80688814C
:1008C00099810E94050384E190E00E94A80684E1DA
:1008D00090E00E94A8068A819B810E94FB02888189
:1008E00099810E94FB0288E290E00E94A80688811C
:1008F00099810E94050384E190E00E94A8068A8104
:100900009B810E940503F401E08281E0CA94CD2816
:1009100009F080E0871511F00EEF1FEFC801DF919D
:10092000CF911F910F91FF90EF90DF90CF90BF90EC
:10093000AF909F908F907F906F900895CF93DF93AB
:10094000EC016AEACE010E941F03892BD1F76AE00D
:1009500070E080E090E0DF91CF910C946F06CF9330
:10096000DF93EC016AEFCE010E941F03892BD1F7C0
:10097000DF91CF910895EF92FF920F931F93CF9342
:10098000DF931F92CDB7DEB7E3E1E60FE33110F559
:100990007A018C01F0E0E153FB4F0C947F071405C2
:1009A0001205EA04F004EA040705F004ED04ED047E
:1009B000ED04EA04EA04EA04EA04EA04EA04EA04C4
:1009C000ED04E2040E94AF046AEAC8010E941F031A
:1009D000892BD1F7F12CE12C11C00E94AF04FACF82
:1009E0000E94AF04BE016F5F7F4FC8010E94E00309
:1009F0007C01892B79F7C8010E94AF04C7010F90D1
:100A0000DF91CF911F910F91FF90EF9008950E9479
:100A1000AF046BEAC8010E941F0363E8C8010E948B
:100A20001F03D8CF6EEEFACF0E94AF04B701C80102
:100A30000E94E003892B19F4C8010E94AF04EE2440
:100A4000E394F12CDBCFEF92FF920F931F93CF93A0
:100A5000DF931F92CDB7DEB78C017B010E94CB03E1
:100A6000892B51F490E080E00F90DF91CF911F919E
:100A70000F91FF90EF900895BE016F5F7F4FC80107
:100A80000E94E003892B71F7A7016981C8010E94C8
:100A9000BB04EACF0C941F031F93CF93DF93EC01A9
:100AA000162F60EF0E941F03612FCE010E941F03CB
:100AB00090E080E0DF91CF911F9108951F93CF9335
:100AC000DF93EC01162F60EE0E941F03612FCE0111
:100AD0000E941F0390E080E0DF91CF911F91089565
:100AE0001F93CF93DF93EC01162F60EE0E941F033C
:100AF00060EFCE010E941F03612FCE010E941F03F1
:100B000090E080E0DF91CF911F910895CF93DF9324
:100B1000EC0160EE0E941F0362E1CE010E941F0300
:100B200060EECE010E941F036CE7CE010E941F03FE
:100B300090E080E0DF91CF910895CF93DF93EC01B7
:100B400060EE0E941F0360EFCE010E941F036CE75E
:100B5000CE010E941F0360EECE010E941F0360EFD2
:100B6000CE010E941F0362E1CE010E941F0390E0AC
:100B700080E0DF91CF910895CF93DF93EC0161EE98
:100B80000E941F0364E1CE010E941F0367E7CE01AC
:100B90000E941F0361EECE010E941F0360EFCE0191
:100BA0000E941F0364E1CE010E941F0360EECE018C
:100BB0000E941F0367E7CE010E941F0390E080E0C0
:100BC000DF91CF91089508950E94B3060E94E30536
:100BD0000E949102C0E0D0E00E94C3022097E1F39E
:100BE0000E940000F9CF1F920F920FB60F921124AE
:100BF0002F933F938F939F93AF93BF9380916902FD
:100C000090916A02A0916B02B0916C0230916802DF
:100C100026E0230F2D3768F129E8230F0396A11D45
:100C2000B11D209368028093690290936A02A09399
:100C30006B02B0936C028091640290916502A09166
:100C40006602B09167020196A11DB11D80936402F6
:100C500090936502A0936602B0936702BF91AF9133
:100C60009F918F913F912F910F900FBE0F901F90EA
:100C700018950296A11DB11DD4CF2FB7F89460919D
:100C8000690270916A0280916B0290916C022FBF91
:100C900008953FB7F8948091640290916502A09105
:100CA0006602B091670222B708B600FE05C02F3F6A
:100CB00019F00196A11DB11D3FBFBA2FA92F982F82
:100CC0008827BC01CD01620F711D811D911D43E07C
:100CD000660F771F881F991F4A95D1F708958F9245
:100CE0009F92AF92BF92CF92DF92EF92FF926B01F1
:100CF0007C010E9449064B015C01C114D104E1044E
:100D0000F104E9F00E947E070E94490668197909FA
:100D10008A099B09683E73408105910570F321E0C3
:100D2000C21AD108E108F10888EE880E83E0981E07
:100D3000A11CB11CC114D104E104F10429F7FF90F6
:100D4000EF90DF90CF90BF90AF909F908F900895DD
:100D5000000000008330910528F0880F991F059747
:100D60000197F1F70895789483B7836083BF83B7C1
:100D7000886483BF89B7816089BF82E08EBD8EB5EC
:100D800081608EBD8FB581608FBD85B5846085BD66
:100D900085B5806485BD86E886B91AB80895843023
:100DA00059F028F4813099F0823089F00895853027
:100DB00039F0873041F008958FB58F778FBD089552
:100DC0008FB58F7DFBCF85B58F7D85BD089583B7AA
:100DD0008F7D83BF0895CF93DF9390E0FC01EC58A3
:100DE000FF4F24918C569F4FFC0184918823C9F0BA
:100DF00090E0880F991FFC01E853FF4FA591B49133
:100E0000FC01E254FF4FC591D49161110DC09FB711
:100E1000F8948C91209582238C93888128232883B1
:100E20009FBFDF91CF910895623051F49FB7F8943E
:100E30003C91822F809583238C93E8812E2BEFCFDA
:100E40008FB7F894EC912E2B2C938FBFEACF1F9382
:100E5000CF93DF93282F30E0F901EC5AFF4F8491B4
:100E6000F901EC58FF4FD491F901EC56FF4FC491B2
:100E7000CC23A9F0162F81110E94CF06EC2FF0E0B1
:100E8000EE0FFF1FE254FF4FA591B4918FB7F89476
:100E9000EC91111108C0D095DE23DC938FBFDF9158
:100EA000CF911F910895DE2BF8CFCF93DF93282F9A
:100EB00030E0F901EC5AFF4F8491F901EC58FF4FF3
:100EC000D491F901EC56FF4FC491CC23A1F08111CC
:100ED0000E94CF06EC2FF0E0EE0FFF1FEC54FF4F07
:100EE000A591B491EC91ED2381E090E009F480E0CC
:100EF000DF91CF91089580E090E0FACF0895EE0F52
:0E0F0000FF1F0590F491E02D0994F894FFCFA7
:100F0E00FF0A0B0C0D0E0F10111213141516171FCE
:100F1E001E1D1C1B1A1918000102030508090B12CD
:100F2E0016171801020304060A0C0D0E0F101113EA
:100F3E0014155401050101120201160302160402D2
:100F4E00120501090601180702180802090904080A
:100F5E000A04050B02050C02080D04170E04180FE7
:100F6E0003051003081101081202171304121404CA
:100F7E000B15081116051117081018051019080F72
:100F8E001A050F1B080E1C050E1D080D1E04091F49
:100F9E00010B20020B210915220B11230911240923
:100FAE0010250B0F26090F270B0E28090E290608F0
:100FBE002A05062B090D2C0F182D01172E12152F91
:100FCE000B15301116311112321012330B10340F63
:100FDE0012350E16360E1237060B380609390B0D62
:100FEE003A0C163B15163C11173D10173E10163FC6
:100FFE000F17400F16410E18420E174306164406E1
:10100E0012450C12460A1847151848141849131899
:10101E004A10184B13174C0D184D0A164E030B4F52
:0E102E000416500312510318520317530316F1
:00000001FF
