:100000000C946A000C9492000C9492000C94920050
:100010000C9492000C9492000C9492000C94920018
:100020000C9492000C9492000C9492000C94DE05B7
:100030000C9492000C9492000C9492000C949200F8
:100040000C9492000C9492000C9492000C949200E8
:100050000C9492000000000200000000000000006C
:100060000504000700000000000000000000000080
:100070000000000001020408102040800102040872
:100080001020408001020408102040800102040872
:100090001020408002020202020202020404040450
:1000A0000404040403030303030303030101010124
:1000B000010101010000390036003300300000006A
:1000C0003B0038003500320000003A0037003400B1
:1000D0003100DE0211241FBECFE5D8E0DEBFCDBF68
:1000E00011E0A0E6B0E0E4EEFEE002C005900D9263
:1000F000A439B107D9F722E0A4E9B1E001C01D920B
:10010000A439B207E1F710E0CAE6D0E004C02197B5
:10011000FE010E946A07C936D107C9F70E94CF05C0
:100120000C9470070C940000EDE9F1E09F012D594B
:1001300031402817390714F41192F8CF0895662337
:1001400029F0682F89E991E00C943505682F89E939
:1001500091E00C943705662329F0682F89E991E036
:100160000C944905682F89E991E00C945B05815056
:10017000853508F03BC1E82FF0E0EF53FF4F0C94BA
:100180006A07DE01E001E201E401E601E801EA01BB
:10019000EC01EE01F001F201F4016F01A6019301FF
:1001A0008701BA01A40189014D014F015101530199
:1001B0005501570159015B015D014B01CA01C8019D
:1001C000BE01C401370143011F0139013D0147014F
:1001D0003F01270133013501CC01CE01C001C60129
:1001E00016013B011D0121012301250129012B01DC
:1001F0002D01D401D601DA016201620149014501F4
:100200001B014101190131012F01D001D201D80197
:1002100066015F016401DC016B01C2016D016801CF
:1002200068018F0191018B018D01BC018CE10C945F
:100230009F0082E3FCCF81E2FACF83E2F8CF84E231
:10024000F6CF8BE2F4CF84E3F2CF83E3F0CF83E405
:10025000EECF8BE3ECCF82E4EACF8BE4E8CF8AE306
:10026000E6CF81E3E4CF84E4E2CF8DE4E0CF85E123
:10027000DECF8DE2DCCF8BE1DACF8CE2D8CF8CE31E
:10028000D6CF8AE2D4CF8DE1D2CF82E2D0CF85E340
:10029000CECF8AE1CCCF85E4CACF86E1C8CF8EE14C
:1002A000C6CF86E2C4CF85E2C2CF8EE2C0CF86E35E
:1002B000BECF8DE3BCCF8EE3BACF86E4B8CF6093D8
:1002C0009401089582E1B3CF84E1B1CF89E5AFCF46
:1002D00084E10C94AB0081E1AACF81E1FACF6623DF
:1002E00069F080919401882321F089E991E00C94D0
:1002F000710560E789E991E00C94490560E789E9B7
:1003000091E00E945B0589E991E00C94880581E702
:10031000E0CF8EE08CCF85E7DCCF82E7DACF8BE6CB
:10032000D8CF84E7D6CF662351F0809194018823FB
:1003300021F089E991E00C94A7056DE7DBCF6DE72B
:1003400089E991E00C945B058AE7C3CF662359F0F5
:1003500080919401882329F06EE789E991E00C945B
:1003600035056CE6C7CF6EE789E991E00E94370555
:100370006CE6E6CF89E6ADCF86E759CF86E657CF64
:100380008AE555CF89E253CF8DE051CF88E54FCF35
:1003900085E54DCF8EE44BCF84E549CF8BE547CF44
:1003A00081E445CF89E443CF8CE441CF82E53FCF60
:1003B0008AE43DCF8DE53BCF8FE18BCF85E037CF12
:1003C00086E035CF84E033CF8CE031CF83E02FCF90
:1003D0008BE02DCF83E82BCF8AE029CF81E027CF98
:1003E00089E025CF88E723CF87E021CF0895E5E98D
:1003F000F0E050813181ACE8B0E090E080E02D91F8
:10040000321719F04281241301C0892F9F5F993060
:10041000B1F7ABE7B0E090E020E04D91341719F070
:100420006281461301C0292F9F5F9131B1F7989FD8
:10043000C00111248E509E4F820F911DDC015C93F0
:100440003396B1E0E439FB07A1F60895AF92BF926D
:10045000CF92DF92EF92FF920F931F93CF93DF9390
:10046000C2EFD1E09CE8E92E90E0F92EAA24A394F3
:100470000CE810E0D801ED918D01F0E0E05AFF4F5B
:1004800062E080810E94D606B0E005391B0791F733
:10049000D701ED917D01F0E0E05AFF4F108161E05E
:1004A000812F0E94D60660E0812F0E9412078BE701
:1004B000C82E80E0D82E10E000E0FE01E00FF11F12
:1004C000B080D601ED916D01F0E0E05AFF4F8081E0
:1004D0000E944007EB2DF0E0E356FE4F892B41F5DB
:1004E000808181110FC0A08261E08B2D0E94B70036
:1004F0000E9428066093950170939601809397015E
:10050000909398010F5F1F4F01311105B1F661966D
:10051000B2E0CB38DB0709F0ABCFDF91CF911F9171
:100520000F91FF90EF90DF90CF90BF90AF90089524
:100530008081882339F3108260E08B2D0E94B70000
:10054000E1CFCF93DF93CBE7D0E0E991F0E0E05A41
:10055000FF4F62E080810E94D60680E0CC38D80749
:10056000A1F7CCE8D0E0E991F0E0E05AFF4F62E07B
:1005700080810E94D60680E0C539D807A1F785E5BD
:1005800090E00E9494000E94F70189E991E0DF91D8
:10059000CF910C948904CF93DF931F92CDB7DEB730
:1005A0001982BE016F5F7F4F89E991E00E940E05BD
:1005B0000E9426020F90DF91CF91089547E050E00E
:1005C00066E070E089E991E00C94FA02CF93C82FBD
:1005D00060E00E94120761E08C2FCF910C94D60648
:1005E000CF93C82F60E00E94D60661E08C2FCF9198
:1005F0000C941207CF93DF93EC01CB0179836883CE
:100600005B834A830E94F0028A819B81DF91CF91B4
:100610000C94F002CF92DF92EF92FF920F931F9310
:10062000CF93DF93EC01162F88EE93E00E949306A0
:1006300088810E944007892B09F492C08A810E9418
:100640004007892B09F48FC08A819B810E94E602B2
:1006500084E190E00E949306888199810E94E602DD
:1006600088E290E00E949306888199810E94F002BE
:1006700084E190E00E94930628E0F22E01E0C12E72
:10068000D12C8A819B81212F2170E22E10FF62C024
:100690000E94F00284E190E00E9493068881998193
:1006A0000E94E60288E290E00E9493068881998188
:1006B0000E94F00284E190E00E9493068E2D802734
:1006C000D594C7941C2DFA94F11042C08A819B8165
:1006D000E01609F442C00E94F00284E190E00E941A
:1006E0009306888199810E94E60288E290E00E9448
:1006F0009306888199810E94F00284E190E00E9433
:1007000093068A819B810E94F00284E190E00E941E
:100710009306888199810E94E60288E290E00E9417
:100720009306888199810E94F00284E190E00E9402
:10073000930688EE93E00E94930690E080E0DF91BC
:10074000CF911F910F91FF90EF90DF90CF90089580
:10075000082F95CF0E94E6029DCF0E94E602BDCFF2
:100760008FEF9FEFECCF8EEF9FEFE9CFCF93DF932B
:10077000EC018A810E94400721E0892B39F08881B1
:100780000E94400721E0892B09F020E0822F90E0B1
:10079000DF91CF9108956F927F928F929F92AF9247
:1007A000BF92CF92DF92EF92FF920F931F93CF935E
:1007B000DF93EC014B010E9428066B017C018A81CA
:1007C0000E9440078C01892B71F00E9428066C1949
:1007D0007D098E099F096F3171058105910578F3B7
:1007E0000FEF1FEF86C088810E944007019769F7CD
:1007F00084E190E00E949306888199810E94E6023C
:1008000088E290E00E949306888199810E94F0021C
:1008100084E190E00E94930698E0C92ED12C7724C1
:100820007394F12CE12CAA24A394B12C6624639434
:100830008A810E944007019719F4EA28FB28762450
:10084000AA0CBB1C84E190E00E94930688819981E8
:100850000E94E60288E290E00E94930688819981D6
:100860000E94F00284E190E00E94930681E0C81AA1
:10087000D108F1F68A810E9440076C0184E190E082
:100880000E949306888199810E94E60288E290E0A6
:100890000E949306888199810E94F00284E190E091
:1008A0000E94930684E190E00E9493068A819B81D6
:1008B0000E94E602888199810E94E60288E290E027
:1008C0000E949306888199810E94F00284E190E061
:1008D0000E9493068A819B810E94F002F401E082CB
:1008E00081E0CA94CD2809F080E0871511F00EEF61
:1008F0001FEFC801DF91CF911F910F91FF90EF90F3
:10090000DF90CF90BF90AF909F908F907F906F902F
:100910000895CF93DF93EC016AEACE010E940A03A7
:10092000892BD1F76AE070E080E090E0DF91CF9111
:100930000C945A06CF93DF93EC016AEFCE010E942C
:100940000A03892BD1F7DF91CF910895EF92FF929F
:100950000F931F93CF93DF931F92CDB7DEB7E3E1E1
:10096000E60FE33110F57A018C01F0E0E654FB4F1D
:100970000C946A07FF04FD04D504DB04D504F204DB
:10098000DB04D804D804D804D504D504D504D50490
:10099000D504D504D504D804CD040E949A046AEA8B
:1009A000C8010E940A03892BD1F7F12CE12C11C058
:1009B0000E949A04FACF0E949A04BE016F5F7F4F93
:1009C000C8010E94CB037C01892B79F7C8010E94E2
:1009D0009A04C7010F90DF91CF911F910F91FF9063
:1009E000EF9008950E949A046BEAC8010E940A03DE
:1009F00063E8C8010E940A03D8CF6EEEFACF0E94C6
:100A00009A04B701C8010E94CB03892B19F4C801CD
:100A10000E949A04EE24E394F12CDBCFEF92FF9234
:100A20000F931F93CF93DF931F92CDB7DEB78C0147
:100A30007B010E94B603892B51F490E080E00F9077
:100A4000DF91CF911F910F91FF90EF900895BE011C
:100A50006F5F7F4FC8010E94CB03892B71F7A701FD
:100A60006981C8010E94A604EACF0C940A031F936F
:100A7000CF93DF93EC01162F60EF0E940A03612FE2
:100A8000CE010E940A0390E080E0DF91CF911F9198
:100A900008951F93CF93DF93EC01162F60EE0E9411
:100AA0000A03612FCE010E940A0390E080E0DF91EB
:100AB000CF911F9108951F93CF93DF93EC01162FD1
:100AC00060EE0E940A0360EFCE010E940A03612FCC
:100AD000CE010E940A0390E080E0DF91CF911F9148
:100AE0000895CF93DF93EC0160EE0E940A0362E168
:100AF000CE010E940A0360EECE010E940A036CE759
:100B0000CE010E940A0390E080E0DF91CF9108952A
:100B1000CF93DF93EC0160EE0E940A0360EFCE01F9
:100B20000E940A036CE7CE010E940A0360EECE0128
:100B30000E940A0360EFCE010E940A0362E1CE0127
:100B40000E940A0390E080E0DF91CF910895CF9357
:100B5000DF93EC0161EE0E940A0364E1CE010E9482
:100B60000A0367E7CE010E940A0361EECE010E94EC
:100B70000A0360EFCE010E940A0364E1CE010E94E5
:100B80000A0360EECE010E940A0367E7CE010E94CD
:100B90000A0390E080E0DF91CF91089508950E94CC
:100BA0009E060E94CE050E94A102C0E0D0E00E94F5
:100BB000CB022097E1F30E940000F9CF1F920F9221
:100BC0000FB60F9211242F933F938F939F93AF9360
:100BD000BF938091900290919102A0919202B09166
:100BE000930230918F0226E0230F2D3768F129E818
:100BF000230F0396A11DB11D20938F0280939002B5
:100C000090939102A0939202B093930280918B02F1
:100C100090918C02A0918D02B0918E020196A11D3F
:100C2000B11D80938B0290938C02A0938D02B093A0
:100C30008E02BF91AF919F918F913F912F910F9015
:100C40000FBE0F901F9018950296A11DB11DD4CF15
:100C50002FB7F89460919002709191028091920266
:100C6000909193022FBF08953FB7F89480918B0223
:100C700090918C02A0918D02B0918E0222B708B69D
:100C800000FE05C02F3F19F00196A11DB11D3FBF09
:100C9000BA2FA92F982F8827BC01CD01620F711D93
:100CA000811D911D43E0660F771F881F991F4A958C
:100CB000D1F708958F929F92AF92BF92CF92DF9219
:100CC000EF92FF926B017C010E9434064B015C01A4
:100CD000C114D104E104F104E9F00E9469070E9403
:100CE0003406681979098A099B09683E73408105B1
:100CF000910570F321E0C21AD108E108F10888EEED
:100D0000880E83E0981EA11CB11CC114D104E1041B
:100D1000F10429F7FF90EF90DF90CF90BF90AF9054
:100D20009F908F900895000000008330910528F077
:100D3000880F991F05970197F1F70895789483B765
:100D4000836083BF83B7886483BF89B7816089BFAD
:100D500082E08EBD8EB581608EBD8FB581608FBD06
:100D600085B5846085BD85B5806485BD86E886B916
:100D70001AB80895843059F028F4813099F08230FF
:100D800089F00895853039F0873041F008958FB5A6
:100D90008F778FBD08958FB58F7DFBCF85B58F7D04
:100DA00085BD089583B78F7D83BF0895CF93DF936B
:100DB00090E0FC01EC58FF4F24918C569F4FFC01B2
:100DC00084918823C9F090E0880F991FFC01E853B3
:100DD000FF4FA591B491FC01E254FF4FC591D4910E
:100DE00061110DC09FB7F8948C91209582238C934C
:100DF0008881282328839FBFDF91CF910895623097
:100E000051F49FB7F8943C91822F809583238C9363
:100E1000E8812E2BEFCF8FB7F894EC912E2B2C93EB
:100E20008FBFEACF1F93CF93DF93282F30E0F901D4
:100E3000EC5AFF4F8491F901EC58FF4FD491F9011E
:100E4000EC56FF4FC491CC23A9F0162F81110E94BC
:100E5000BA06EC2FF0E0EE0FFF1FE254FF4FA59112
:100E6000B4918FB7F894EC91111108C0D095DE239E
:100E7000DC938FBFDF91CF911F910895DE2BF8CFC8
:100E8000CF93DF93282F30E0F901EC5AFF4F849184
:100E9000F901EC58FF4FD491F901EC56FF4FC49182
:100EA000CC23A1F081110E94BA06EC2FF0E0EE0FE6
:100EB000FF1FEC54FF4FA591B491EC91ED2381E01D
:100EC00090E009F480E0DF91CF91089580E090E018
:100ED000FACF0895EE0FFF1F0590F491E02D0994CD
:040EE000F894FFCFB4
:100EE400FF0A0B0C0D0E0F10111213141516171FF9
:100EF4001E1D1C1B1A191800010203010207080910
:100F04000A0B0C0D13141516171819030405060EF5
:100F14000F1011121A5511180106180205190306AB
:100F240019040507050418060D1007050A08050B22
:100F3400090E030A080E0B05080C08110D0D110EFD
:100F44000D0E0F0503100F03110A1112060A1311D7
:100F540019140E1915070E160E1817101718041762
:100F64001904091A09101B0A0E1C0C0E1D0B0E1E67
:100F74000B111F1003200608210518220F1923073F
:100F84000F240F18250F1726121727091228090FE7
:100F9400290A0F2A0C0F2B0B0F2C08102D060B2ED1
:100FA40008122F0711301019310710321018330EA0
:100FB4001734061735060936090E370A10380C108F
:100FC400390B103A040A3B0B123C151A3D04193E26
:100FD40012193F071240121841051742111743090D
:100FE40011440509450A12460C1247040B48011A1C
:100FF40049161A4A141A4B060C4C131A4D050D4E79
:10100400021A4F080F5004195106035211035304D6
:041014000854060D69
:00000001FF
