:100000000C946A000C9492000C9492000C94920050
:100010000C9492000C9492000C9492000C94920018
:100020000C9492000C9445060C9492000C9492004F
:100030000C9492000C9492000C9492000C949200F8
:100040000C9492000C9492000C9492000C949200E8
:100050000C9492000000000200000000000000006C
:100060000504000700000000000000000000000080
:100070000000000001020408102040800102040872
:100080001020408001020408102040800102040872
:100090001020408002020202020202020404040450
:1000A0000404040403030303030303030101010124
:1000B000010101010000390036003300300000006A
:1000C0003B0038003500320000003A0037003400B1
:1000D0003100450311241FBECFE5D4E0DEBFCDBF04
:1000E00011E0A0E6B0E0E2EBFFE002C005900D9267
:1000F000AE37B107D9F722E0AEE7B1E001C01D92FB
:10010000A436B207E1F710E0CAE6D0E004C02197B8
:10011000FE010E94D107C936D107C9F70E943606F1
:100120000C94D7070C940000E7E8F1E09F012758F2
:1001300031402817390714F41192F8CF0895662337
:1001400029F0682F83E891E00C949C05682F83E8E0
:1001500091E00C949E05662329F0682F83E891E0D6
:100160000C94B005682F83E891E00C94C2058E349E
:1001700008F07DC1E82FF0E0E054FF4F0C94D10768
:100180007401DF01E101E301E501E701E901EB01B0
:10019000ED01EF010902190229021C013201B70128
:1001A000B901BB01BD01BF01C101C301C501C70147
:1001B000B501CD01CB0176017C01A101AD01890121
:1001C000A301A701B101A90191019D019F01CF01E7
:1001D000D101DD01C9018101A50187018B018D01DB
:1001E0008F01930195019701D701D90178010E0183
:1001F000B301AF018501AB0183019B019901D301DB
:10020000D501DB01130111017E01370218017A01CA
:100210001A011501540134014401640182E10C9476
:100220009F0084E1FCCF89E5FACF84E10C94AB0018
:1002300081E1F5CF81E1FACF662351F080917E0113
:1002400060E7811101C061E783E891E00C94B0059B
:1002500060E783E891E00E94C20561E783E891E0EE
:100260000C94C2058EE0DBCF662339F080917E01CD
:100270006DE78111E9CF65E7E7CF65E783E891E0B6
:100280000E94C2056DE7EACF662339F080917E01B6
:100290006AE78111D9CF62E7D7CF62E783E891E0BF
:1002A0000E94C2056AE7DACF662339F080917E01A9
:1002B0006CE68111C9CF6BE6C7CF6BE683E891E0AE
:1002C0000E94C2056CE6CACF662339F080917E0198
:1002D00069E68111B9CF64E7B7CF64E783E891E0BD
:1002E0000E94C20569E6BACF86E799CF86E697CF26
:1002F0008AE595CF89E293CF8DE091CF60937E011F
:1003000008958CE18CCF82E38ACF81E288CF83E2AB
:1003100086CF84E284CF8BE282CF84E380CF83E3F5
:100320007ECF83E47CCF8BE37ACF82E478CF8BE4FB
:1003300076CF8AE374CF81E372CF84E470CF8DE40B
:100340006ECF85E16CCF8DE26ACF8BE168CF8CE216
:1003500066CF8CE364CF8AE262CF8DE160CF82E228
:100360005ECF85E35CCF8AE15ACF85E458CF86E142
:1003700056CF8EE154CF86E252CF85E250CF8EE247
:100380004ECF86E34CCF8DE34ACF8EE348CF86E451
:1003900046CF88E544CF85E542CF8EE440CF84E563
:1003A0003ECF8BE53CCF81E43ACF89E438CF8CE473
:1003B00036CF82E534CF8AE432CF8DE530CF85E089
:1003C0002ECF86E02CCF84E02ACF8CE028CF83E0AC
:1003D00026CF8BE024CF83E822CF8AE020CF809104
:1003E0007E01662359F0882321F083E891E00C9484
:1003F000D80561E083E891E00C949C05882321F006
:1004000083E891E00C94EF0561E083E891E00C94BF
:100410009E05662339F080917E016EE78111EACF57
:1004200069E0E8CF6EE783E891E00E949E0569E00D
:10043000ECCF662339F080917E0167E78111DACF36
:1004400068E7D8CF68E783E891E00E949E0567E7F8
:10045000DCCF662351F080917E01882321F083E870
:1004600091E00C940E0667E0C5CF67E0CECF08950B
:10047000E3E9F0E050813181ABE8B0E090E080E06A
:100480002D91321719F04281241301C0892F9F5FEB
:100490009830B1F7ABE7B0E090E020E04D91341731
:1004A00019F06281461301C0292F9F5F9031B1F787
:1004B00030E1839FC001112485529E4F820F911D10
:1004C000DC015C933396B1E0ED37FB0799F60895B4
:1004D000AF92BF92CF92DF92EF92FF920F931F9352
:1004E000CF93DF93CBEDD1E09BE8E92E90E0F92E9E
:1004F000AA24A3940BE810E0D801ED918D01F0E05F
:10050000E05AFF4F62E080810E943D07B0E003396E
:100510001B0791F7D701ED917D01F0E0E05AFF4F05
:10052000108161E0812F0E943D0760E0812F0E94D1
:1005300079078BE7C82E80E0D82E10E000E0FE019E
:10054000E00FF11FB080D601ED916D01F0E0E05AAF
:10055000FF4F80810E94A707EB2DF0E0E957FE4F87
:10056000892B41F5808181110FC0A08261E08B2D24
:100570000E94B7000E948F0660937F0170938001F4
:1005800080938101909382010F5F1F4F003111050D
:10059000B1F66096B2E0CB35DB0709F0ABCFDF9167
:1005A000CF911F910F91FF90EF90DF90CF90BF9070
:1005B000AF9008958081882339F3108260E08B2DFD
:1005C0000E94B700E1CFCF93DF9361E084E00E9407
:1005D0003D0761E084E00E947907CBE7D0E0E99134
:1005E000F0E0E05AFF4F62E080810E943D0780E02A
:1005F000CB38D807A1F7CBE8D0E0E991F0E0E05A9A
:10060000FF4F62E080810E943D0780E0C339D80738
:10061000A1F784E590E00E9494000E94380283E8EC
:1006200091E0DF91CF910C94F0040F931F93CF933F
:10063000DF931F92CDB7DEB71982BE016F5F7F4F88
:1006400083E891E00E9475050E9468020E948F066F
:1006500000917F01109180012091810130918201F0
:10066000601B710B820B930B64367105810591053C
:1006700050F460E084E00E9479070F90DF91CF9101
:100680001F910F91089561E0F5CF47E050E066E0DB
:1006900070E083E891E00C946103CF93C82F60E091
:1006A0000E94790761E08C2FCF910C943D07CF9386
:1006B000C82F60E00E943D0761E08C2FCF910C9421
:1006C0007907CF93DF93EC01CB01798368835B8358
:1006D0004A830E9457038A819B81DF91CF910C94BA
:1006E0005703CF92DF92EF92FF920F931F93CF9316
:1006F000DF93EC01162F88EE93E00E94FA068881C2
:100700000E94A707892B09F492C08A810E94A7073B
:10071000892B09F48FC08A819B810E944D0384E15B
:1007200090E00E94FA06888199810E944D0388E238
:1007300090E00E94FA06888199810E94570384E123
:1007400090E00E94FA0628E0F22E01E0C12ED12CA2
:100750008A819B81212F2170E22E10FF62C00E94AE
:10076000570384E190E00E94FA06888199810E94F3
:100770004D0388E290E00E94FA06888199810E94E8
:10078000570384E190E00E94FA068E2D8027D594CD
:10079000C7941C2DFA94F11042C08A819B81E01607
:1007A00009F442C00E94570384E190E00E94FA06D7
:1007B000888199810E944D0388E290E00E94FA06A8
:1007C000888199810E94570384E190E00E94FA0693
:1007D0008A819B810E94570384E190E00E94FA067F
:1007E000888199810E944D0388E290E00E94FA0678
:1007F000888199810E94570384E190E00E94FA0663
:1008000088EE93E00E94FA0690E080E0DF91CF91BD
:100810001F910F91FF90EF90DF90CF900895082FD8
:1008200095CF0E944D039DCF0E944D03BDCF8FEF0A
:100830009FEFECCF8EEF9FEFE9CFCF93DF93EC01EB
:100840008A810E94A70721E0892B39F088810E94C4
:10085000A70721E0892B09F020E0822F90E0DF91AB
:10086000CF9108956F927F928F929F92AF92BF9295
:10087000CF92DF92EF92FF920F931F93CF93DF936C
:10088000EC014B010E948F066B017C018A810E9462
:10089000A7078C01892B71F00E948F066C197D09C6
:1008A0008E099F096F3171058105910578F30FEF6E
:1008B0001FEF86C088810E94A707019769F784E12E
:1008C00090E00E94FA06888199810E944D0388E297
:1008D00090E00E94FA06888199810E94570384E182
:1008E00090E00E94FA0698E0C92ED12C77247394E8
:1008F000F12CE12CAA24A394B12C662463948A8160
:100900000E94A707019719F4EA28FB287624AA0C6D
:10091000BB1C84E190E00E94FA06888199810E94C4
:100920004D0388E290E00E94FA06888199810E9436
:10093000570384E190E00E94FA0681E0C81AD108CA
:10094000F1F68A810E94A7076C0184E190E00E9481
:10095000FA06888199810E944D0388E290E00E9406
:10096000FA06888199810E94570384E190E00E94F1
:10097000FA0684E190E00E94FA068A819B810E9437
:100980004D03888199810E944D0388E290E00E9486
:10099000FA06888199810E94570384E190E00E94C1
:1009A000FA068A819B810E945703F401E08281E06C
:1009B000CA94CD2809F080E0871511F00EEF1FEFE3
:1009C000C801DF91CF911F910F91FF90EF90DF90C1
:1009D000CF90BF90AF909F908F907F906F90089531
:1009E000CF93DF93EC016AEACE010E947103892B59
:1009F000D1F76AE070E080E090E0DF91CF910C9455
:100A0000C106CF93DF93EC016AEFCE010E94710320
:100A1000892BD1F7DF91CF910895EF92FF920F9339
:100A20001F93CF93DF931F92CDB7DEB7E3E1E60FBD
:100A3000E33110F57A018C01F0E0EF5DFA4F0C9490
:100A4000D107660564053C0542053C05590542058C
:100A50003F053F053F053C053C053C053C053C0585
:100A60003C053C053F0534050E9401056AEAC801C2
:100A70000E947103892BD1F7F12CE12C11C00E9447
:100A80000105FACF0E940105BE016F5F7F4FC801CB
:100A90000E9432047C01892B79F7C8010E9401056C
:100AA000C7010F90DF91CF911F910F91FF90EF90B1
:100AB00008950E9401056BEAC8010E94710363E872
:100AC000C8010E947103D8CF6EEEFACF0E940105D3
:100AD000B701C8010E943204892B19F4C8010E9491
:100AE0000105EE24E394F12CDBCFEF92FF920F93FC
:100AF0001F93CF93DF931F92CDB7DEB78C017B019D
:100B00000E941D04892B51F490E080E00F90DF914A
:100B1000CF911F910F91FF90EF900895BE016F5FED
:100B20007F4FC8010E943204892B71F7A7016981A8
:100B3000C8010E940D05EACF0C9471031F93CF9357
:100B4000DF93EC01162F60EF0E947103612FCE013D
:100B50000E94710390E080E0DF91CF911F91089592
:100B60001F93CF93DF93EC01162F60EE0E94710369
:100B7000612FCE010E94710390E080E0DF91CF9160
:100B80001F9108951F93CF93DF93EC01162F60EE12
:100B90000E94710360EFCE010E947103612FCE01AC
:100BA0000E94710390E080E0DF91CF911F91089542
:100BB000CF93DF93EC0160EE0E94710362E1CE01FE
:100BC0000E94710360EECE010E9471036CE7CE01BA
:100BD0000E94710390E080E0DF91CF910895CF9360
:100BE000DF93EC0160EE0E94710360EFCE010E9482
:100BF00071036CE7CE010E94710360EECE010E948A
:100C0000710360EFCE010E94710362E1CE010E9488
:100C1000710390E080E0DF91CF910895CF93DF934F
:100C2000EC0161EE0E94710364E1CE010E94710348
:100C300067E7CE010E94710361EECE010E9471034D
:100C400060EFCE010E94710364E1CE010E94710346
:100C500060EECE010E94710367E7CE010E9471032E
:100C600090E080E0DF91CF91089508950E940507FC
:100C70000E9435060E94E302C0E0D0E00E94150306
:100C80002097E1F30E940000F9CF1F920F920FB658
:100C90000F9211242F933F938F939F93AF93BF9302
:100CA0008091600290916102A0916202B091630212
:100CB00030915F0226E0230F2D3768F129E8230FDA
:100CC0000396A11DB11D20935F0280936002909353
:100CD0006102A0936202B093630280915B029091E3
:100CE0005C02A0915D02B0915E020196A11DB11D52
:100CF00080935B0290935C02A0935D02B0935E02CE
:100D0000BF91AF919F918F913F912F910F900FBE07
:100D10000F901F9018950296A11DB11DD4CF2FB72B
:100D2000F8946091600270916102809162029091EA
:100D300063022FBF08953FB7F89480915B029091B2
:100D40005C02A0915D02B0915E0222B708B600FE7F
:100D500005C02F3F19F00196A11DB11D3FBFBA2F4D
:100D6000A92F982F8827BC01CD01620F711D811D0D
:100D7000911D43E0660F771F881F991F4A95D1F791
:100D800008958F929F92AF92BF92CF92DF92EF928F
:100D9000FF926B017C010E949B064B015C01C11418
:100DA000D104E104F104E9F00E94D0070E949B06FF
:100DB000681979098A099B09683E73408105910584
:100DC00070F321E0C21AD108E108F10888EE880E1C
:100DD00083E0981EA11CB11CC114D104E104F104EC
:100DE00029F7FF90EF90DF90CF90BF90AF909F904A
:100DF0008F900895000000008330910528F0880F3F
:100E0000991F05970197F1F70895789483B7836048
:100E100083BF83B7886483BF89B7816089BF82E05D
:100E20008EBD8EB581608EBD8FB581608FBD85B55D
:100E3000846085BD85B5806485BD86E886B91AB8AD
:100E40000895843059F028F4813099F0823089F087
:100E50000895853039F0873041F008958FB58F7748
:100E60008FBD08958FB58F7DFBCF85B58F7D85BDF7
:100E7000089583B78F7D83BF0895CF93DF9390E06C
:100E8000FC01EC58FF4F24918C569F4FFC0184913C
:100E90008823C9F090E0880F991FFC01E853FF4FA9
:100EA000A591B491FC01E254FF4FC591D491611119
:100EB0000DC09FB7F8948C91209582238C938881E4
:100EC000282328839FBFDF91CF910895623051F48A
:100ED0009FB7F8943C91822F809583238C93E8816F
:100EE0002E2BEFCF8FB7F894EC912E2B2C938FBF36
:100EF000EACF1F93CF93DF93282F30E0F901EC5A0C
:100F0000FF4F8491F901EC58FF4FD491F901EC5651
:100F1000FF4FC491CC23A9F0162F81110E94210705
:100F2000EC2FF0E0EE0FFF1FE254FF4FA591B491BC
:100F30008FB7F894EC91111108C0D095DE23DC93A3
:100F40008FBFDF91CF911F910895DE2BF8CFCF9304
:100F5000DF93282F30E0F901EC5AFF4F8491F9011B
:100F6000EC58FF4FD491F901EC56FF4FC491CC23BC
:100F7000A1F081110E942107EC2FF0E0EE0FFF1F7E
:100F8000EC54FF4FA591B491EC91ED2381E090E0FA
:100F900009F480E0DF91CF91089580E090E0FACFEE
:100FA0000895EE0FFF1F0590F491E02D0994F89439
:020FB000FFCF71
:100FB200FF0A0B0C0D0E0F10111213141516171F2A
:100FC2001E1D1C1B1A1918000102030A0B0C0D0E20
:100FD2000F1011131415161718191A01020304051C
:100FE20006070800051A010219020218030718046D
:100FF200051805010B060515070714080214090256
:101002000E0A010E0B04100C080B0D02100E021A30
:101012000F011A10011911011812011713021714E6
:10102200021615011616011517011418010D1902E1
:101032000D1A02151B070E1C071A1D081A1E081985
:101042001F0818200817210717220716230816243D
:10105200081525081426080D27070D280715290647
:101062000E2A07192B061A2C06192D06182E0617FA
:101072002F051730051631061632061533061434BD
:10108200060D35050D36040E37070F38041A3904DC
:10109200193A04183B04173C03173D03163E041685
:1010A2003F041540041441030D42060F43020B4452
:1010B200060C45070A46050C47051048030C49046F
:0E10C2000B4A03134B05134C03104D03110092
:00000001FF
