:100000000C948C000C94B4000C94B4000C94B400C8
:100010000C94B4000C94B4000C94B4000C94B40090
:100020000C94B4000C94B4000C94B4000C945B09D0
:100030000C94B4000C94D6070C9408080C94B400EB
:100040000C94B4000C94B4000C94B4000C94B40060
:100050000C94B4005A5820756E696B6579626F61B3
:1000600072642050532F3220636F6E74726F6C6C09
:1000700065722076312E300052656C65617365645F
:10008000206B65793A200050726573736564206B4C
:1000900065793A2000000000020000000000000026
:1000A0000005040007000000000000000000000040
:1000B000000000000001020408102040800102043A
:1000C0000810204080010204081020408001020432
:1000D000081020408002020202020202020404040C
:1000E00004040404040303030303030303010101E1
:1000F0000101010101000039003600330030000029
:10010000003B0038003500320000003A0037003470
:10011000003100007B03380811241FBECFE5D8E072
:10012000DEBFCDBF11E0A0E6B0E0E2E2F6E102C042
:1001300005900D92AC3EB107D9F724E0ACEEB1E0EA
:1001400001C01D92AF3AB207E1F710E0CCE8D0E071
:1001500004C02197FE010E94090BCA38D107C9F7D4
:100160000E944C090C940F0B0C940000EDEFF1E091
:100170009F012D5F31402817390714F41192F8CFF1
:100180000895662329F0682F89EF91E00C941706F3
:10019000682F89EF91E00C941906662329F0682FE7
:1001A00089EF91E00C942B06682F89EF91E00C9475
:1001B0003D06CF93DF93D82FC62F68E770E0CC239E
:1001C00011F067E870E089E094E00E949F0840E148
:1001D00050E06D2F89E094E00E943909DE50D93556
:1001E00008F09DC0ED2FF0E0E850FF4F0C94090B94
:1001F0007E0150025302560259025C025F02620203
:10020000650268026B026E0271024A021F024D0211
:100210002B026F01E301E601E901EC01EF01F201BC
:10022000F501F801FB01E001040201028101420233
:100230008A01C201D4019E01C501CB01DA01CE01C0
:10024000AA01BC01BF0107020A021C023A02FE0118
:100250009201C8019B01A101A401A701AD01B00158
:10026000B3011302160284013E025101DD01D701E0
:100270009801D1019501B901B6010D0210021902D0
:100280005A01720146028D01570134026301870150
:100290006601370231026C0169015D017801750167
:1002A0007B016C2F82E1DF91CF910C94C1006C2F08
:1002B00084E1F9CF6C2F89E5F6CF6C2F84E1DF91D3
:1002C000CF910C94CD006C2F81E1EDCF6C2F81E1AB
:1002D000F6CF6C2F81E7F3CF6C2F80E7F0CF6C2F38
:1002E0008EE0E1CF6C2F85E7EACF6C2F82E7E7CF76
:1002F0006C2F8BE6E4CF6C2F84E7E1CF6C2F86E781
:10030000D2CF6C2F86E6CFCF6C2F8AE5CCCF6C2F67
:1003100089E2C9CF6C2F8DE0C6CFC093EC01DF918D
:10032000CF9108956C2F8CE1BECF6C2F82E3BBCFB1
:100330006C2F81E2B8CF6C2F83E2B5CF6C2F84E2B3
:10034000B2CF6C2F8BE2AFCF6C2F84E3ACCF6C2F8E
:1003500083E3A9CF6C2F83E4A6CF6C2F8BE3A3CFCD
:100360006C2F82E4A0CF6C2F8BE49DCF6C2F8AE39F
:100370009ACF6C2F81E397CF6C2F84E494CF6C2FAE
:100380008DE491CF6C2F85E18ECF6C2F8DE28BCFDA
:100390006C2F8BE188CF6C2F8CE285CF6C2F8CE398
:1003A00082CF6C2F8AE27FCF6C2F8DE17CCF6C2FB8
:1003B00082E279CF6C2F85E376CF6C2F8AE173CF01
:1003C0006C2F85E470CF6C2F86E16DCF6C2F8EE1A2
:1003D0006ACF6C2F86E267CF6C2F85E264CF6C2FDB
:1003E0008EE261CF6C2F86E35ECF6C2F8DE35BCF07
:1003F0006C2F8EE358CF6C2F86E455CF6C2F88E599
:1004000052CF6C2F85E54FCF6C2F8EE44CCF6C2FE5
:1004100084E549CF6C2F8BE546CF6C2F81E443CF29
:100420006C2F89E440CF6C2F8CE43DCF6C2F82E59C
:100430003ACF6C2F8AE437CF6C2F8DE534CF89EF1C
:1004400091E0CC2321F0DF91CF910C945306DF9102
:10045000CF910C946A0689EF91E0DF91CF910C94D3
:1004600089066C2F8FE22BCF6C2F87E228CF6C2F61
:100470008FE125CF6C2F8DE70E94CD006C2F8AE78E
:100480000E94CD006C2F8CE60E94CD006C2F89E677
:100490000E94CD006C2F87E706CF6C2F8EE703CF2D
:1004A0006C2F85E000CF6C2F86E0FDCE6C2F84E0B2
:1004B000FACE6C2F8CE0F7CE6C2F83E0F4CE6C2F4D
:1004C0008BE0F1CE6C2F83E8EECE6C2F8AE0EBCE82
:1004D0006C2F81E0E8CE6C2F89E0E5CE6C2F88E7A9
:1004E000E2CE6C2F87E0DFCEE5EAF0E0508131818B
:1004F000ABE7B0E090E080E02D91321719F0428137
:10050000241301C0892F9F5F9431B1F7AFE8B0E0A9
:1005100090E020E04D91341719F06281461301C03C
:10052000292F9F5F9631B1F7989FC00111248F5AF0
:100530009D4F820F911DDC015C933396B1E0E73D46
:10054000FB07A1F60895BF92CF92DF92EF92FF9240
:100550000F931F93CF93DF9301E512E0D12CCC24AE
:10056000C394CBE7D0E0F12CE991F0E0E05AFF4FE3
:10057000E080FD1409F44DC062E08E2D0E94530A04
:10058000F39484E1F812F0CF8FE8E82E80E0F82EA3
:10059000D0E0C0E0F801EC0FFD1FB080D701ED9175
:1005A0007D01F0E0E05AFF4F80810E94BD0AEB2DF3
:1005B000F0E0E350FE4F892BA9F58081811115C031
:1005C000C08261E08B2D0E94D9008091ED01909155
:1005D000EE01A091EF01B091F0018093F1019093B1
:1005E000F201A093F301B093F4012196C631D10535
:1005F00089F6D3940A5E1F4FB4E1DB12B2CFDF91CC
:10060000CF911F910F91FF90EF90DF90CF90BF900F
:10061000089561E08E2D0E94530A60E08E2D0E94A5
:100620008F0AAECF8081882301F3108260E08B2D8A
:100630000E94D900DACF0F931F93CF93DF931F92BD
:10064000CDB7DEB70E94A5096093ED017093EE016E
:100650008093EF019093F00119820091F5011091C0
:10066000F6012091F7013091F801601B710B820BAC
:10067000930B6B30710581059105B8F0BE016F5F7A
:100680007F4F89EF91E00E94F0058091ED019091FC
:10069000EE01A091EF01B091F0018093F5019093EC
:1006A000F601A093F701B093F8010E94A302809194
:1006B000ED019091EE01A091EF01B091F001409118
:1006C000F1015091F2016091F3017091F401841BEA
:1006D000950BA60BB70B60E084369105A105B1051B
:1006E00008F061E084E00E948F0A0F90DF91CF91C3
:1006F0001F910F91089547E050E066E070E089EFA8
:1007000091E00C94DC03CF93DF9326E040E052ECC1
:1007100061E070E089E094E00E94830789E094E062
:100720000E941C0761E084E00E94530A61E084E0BB
:100730000E948F0ACFE8D0E0E991F0E0E05AFF4F45
:1007400062E080810E94530A80E0C53AD807A1F791
:10075000CBE7D0E0E991F0E0E05AFF4F62E0808122
:100760000E94530A80E0CF38D807A1F784E590E0D3
:100770000E94B6000E94740264E570E089E094E093
:100780000E94C70889EF91E0DF91CF910C946B052F
:10079000CF93C82F60E00E948F0A61E08C2FCF9129
:1007A0000C94530ACF93C82F60E00E94530A61E073
:1007B0008C2FCF910C948F0ACF93DF93EC01CB0158
:1007C000798368835B834A830E94D2038A819B81F9
:1007D000DF91CF910C94D203CF92DF92EF92FF92F0
:1007E0000F931F93CF93DF93EC01162F88EE93E0C6
:1007F0000E94100A88810E94BD0A892B09F492C0C8
:100800008A810E94BD0A892B09F48FC08A819B814D
:100810000E94C80384E190E00E94100A88819981B7
:100820000E94C80388E290E00E94100A88819981A2
:100830000E94D20384E190E00E94100A28E0F22E88
:1008400001E0C12ED12C8A819B81212F2170E22EC3
:1008500010FF62C00E94D20384E190E00E94100A5F
:10086000888199810E94C80388E290E00E94100A62
:10087000888199810E94D20384E190E00E94100A4D
:100880008E2D8027D594C7941C2DFA94F11042C068
:100890008A819B81E01609F442C00E94D20384E160
:1008A00090E00E94100A888199810E94C80388E222
:1008B00090E00E94100A888199810E94D20384E10D
:1008C00090E00E94100A8A819B810E94D20384E1F9
:1008D00090E00E94100A888199810E94C80388E2F2
:1008E00090E00E94100A888199810E94D20384E1DD
:1008F00090E00E94100A88EE93E00E94100A90E0B7
:1009000080E0DF91CF911F910F91FF90EF90DF90EA
:10091000CF900895082F95CF0E94C8039DCF0E94C5
:10092000C803BDCF8FEF9FEFECCF8EEF9FEFE9CFE6
:10093000CF93DF93EC018A810E94BD0A21E0892BCD
:1009400039F088810E94BD0A21E0892B09F020E05E
:10095000822F90E0DF91CF9108956F927F928F92D6
:100960009F92AF92BF92CF92DF92EF92FF920F933E
:100970001F93CF93DF93EC014B010E94A5096B01FC
:100980007C018A810E94BD0A8C01892B71F00E9432
:10099000A5096C197D098E099F096F3171058105C3
:1009A000910578F30FEF1FEF86C088810E94BD0A82
:1009B000019769F784E190E00E94100A888199818B
:1009C0000E94C80388E290E00E94100A8881998101
:1009D0000E94D20384E190E00E94100A98E0C92EA0
:1009E000D12C77247394F12CE12CAA24A394B12C5C
:1009F000662463948A810E94BD0A019719F4EA284B
:100A0000FB287624AA0CBB1C84E190E00E94100A0B
:100A1000888199810E94C80388E290E00E94100AB0
:100A2000888199810E94D20384E190E00E94100A9B
:100A300081E0C81AD108F1F68A810E94BD0A6C01D2
:100A400084E190E00E94100A888199810E94C80385
:100A500088E290E00E94100A888199810E94D20366
:100A600084E190E00E94100A84E190E00E94100A64
:100A70008A819B810E94C803888199810E94C80352
:100A800088E290E00E94100A888199810E94D20336
:100A900084E190E00E94100A8A819B810E94D20327
:100AA000F401E08281E0CA94CD2809F080E0871546
:100AB00011F00EEF1FEFC801DF91CF911F910F9141
:100AC000FF90EF90DF90CF90BF90AF909F908F906E
:100AD0007F906F900895CF93DF93EC016AEACE0187
:100AE0000E94EC03892BD1F76AE070E080E090E08F
:100AF000DF91CF910C94D709CF93DF93EC016AEF8C
:100B0000CE010E94EC03892BD1F7DF91CF9108959C
:100B1000EF92FF920F931F93CF93DF931F92CDB766
:100B2000DEB7E3E1E60FE33110F57A018C01F0E086
:100B3000E456FA4F0C94090BE105DF05B705BD0536
:100B4000B705D405BD05BA05BA05BA05B705B70599
:100B5000B705B705B705B705B705BA05AF050E94D4
:100B60007C056AEAC8010E94EC03892BD1F7F12CBD
:100B7000E12C11C00E947C05FACF0E947C05BE01C9
:100B80006F5F7F4FC8010E94AD047C01892B79F70C
:100B9000C8010E947C05C7010F90DF91CF911F9182
:100BA0000F91FF90EF9008950E947C056BEAC801B9
:100BB0000E94EC0363E8C8010E94EC03D8CF6EEEFC
:100BC000FACF0E947C05B701C8010E94AD04892BB1
:100BD00019F4C8010E947C05EE24E394F12CDBCFCC
:100BE000EF92FF920F931F93CF93DF931F92CDB796
:100BF000DEB78C017B010E949804892B51F490E0B0
:100C000080E00F90DF91CF911F910F91FF90EF90B7
:100C10000895BE016F5F7F4FC8010E94AD04892B0C
:100C200071F7A7016981C8010E948805EACF0C9479
:100C3000EC031F93CF93DF93EC01162F60EF0E941C
:100C4000EC03612FCE010E94EC0390E080E0DF9185
:100C5000CF911F9108951F93CF93DF93EC01162F2F
:100C600060EE0E94EC03612FCE010E94EC0390E045
:100C700080E0DF91CF911F9108951F93CF93DF9371
:100C8000EC01162F60EE0E94EC0360EFCE010E9493
:100C9000EC03612FCE010E94EC0390E080E0DF9135
:100CA000CF911F910895CF93DF93EC0160EE0E94E6
:100CB000EC0362E1CE010E94EC0360EECE010E94E3
:100CC000EC036CE7CE010E94EC0390E080E0DF9142
:100CD000CF910895CF93DF93EC0160EE0E94EC0377
:100CE00060EFCE010E94EC036CE7CE010E94EC03A2
:100CF00060EECE010E94EC0360EFCE010E94EC0397
:100D000062E1CE010E94EC0390E080E0DF91CF91A0
:100D10000895CF93DF93EC0161EE0E94EC0364E150
:100D2000CE010E94EC0367E7CE010E94EC0361EE66
:100D3000CE010E94EC0360EFCE010E94EC0364E15F
:100D4000CE010E94EC0360EECE010E94EC0367E747
:100D5000CE010E94EC0390E080E0DF91CF910895F6
:100D6000FC01918D228D892F90E0805C9F4F821B2A
:100D700091098F7399270895FC01918D828D9817A1
:100D800031F0828DE80FF11D858D90E008958FEF91
:100D90009FEF0895FC01918D828D981761F0A28DCF
:100DA000AE0FBF2FB11D5D968C91928D9F5F9F738B
:100DB000928F90E008958FEF9FEF0895FC01538D7F
:100DC000448D252F30E0842F90E0821B930B541725
:100DD00010F0CF960895019708958EE298E0892B40
:100DE00049F080E090E0892B29F00E942E088111C3
:100DF0000C9400000895FC01A48DA80FB92FB11D1B
:100E0000A35ABF4F2C91848D90E001968F73992740
:100E1000848FA689B7892C93A089B1898C9180642D
:100E20008C93938D848D981306C00288F389E02DEE
:100E300080818F7D80830895CF93DF93EC01888D2F
:100E40008823B9F0AA89BB89E889F9898C9185FD45
:100E500003C0808186FD0DC00FB607FCF7CF8C91D3
:100E600085FFF2CF808185FFEDCFCE010E94FB068A
:100E7000E9CFDF91CF910895EF92FF920F931F93E7
:100E8000CF93DF93EC0181E0888F9B8D8C8D98133D
:100E900016C0E889F989808185FF11C0EE89FF8934
:100EA0006083E889F98980818064808381E090E0B3
:100EB000DF91CF911F910F91FF90EF900895F62E43
:100EC0000B8D10E00F5F1F4F0F731127E02E8C8DDD
:100ED0008E110CC00FB607FCFACFE889F989808122
:100EE00085FFF5CFCE010E94FB06F1CFEB8DEC0F15
:100EF000FD2FF11DE35AFF4FF0820B8FEA89FB892A
:100F000080818062D2CFCF92DF92EF92FF921F93C7
:100F1000CF93DF93EC016A017B01122F60E874E844
:100F20008EE190E0A70196010E94E70A2150310965
:100F3000410951095695479537952795E889F989CB
:100F400082E08083211580E1380798F0E889F989EB
:100F5000108260E472E48FE090E0A70196010E94A5
:100F6000E70A2150310941095109569547953795AE
:100F70002795EC85FD853083EE85FF852083188ECF
:100F80001068EC89FD891083EA89FB898081886972
:100F90008083EA89FB8980818F7D8083DF91CF9177
:100FA0001F91FF90EF90DF90CF9008951F920F92C6
:100FB0000FB60F9211242F938F939F93EF93FF936C
:100FC000E0911904F0911A048081E0911F04F091DE
:100FD000200482FD1BC09081809122048F5F8F735B
:100FE00020912304821741F0E0912204F0E0E75FB2
:100FF000FB4F958F80932204FF91EF919F918F91EA
:101000002F910F900FBE0F901F9018958081F4CFF5
:101010001F920F920FB60F9211242F933F934F936D
:101020005F936F937F938F939F93AF93BF93EF9350
:10103000FF9389E094E00E94FB06FF91EF91BF913E
:10104000AF919F918F917F916F915F914F913F9160
:101050002F910F900FBE0F901F90189589E094E08C
:101060000E94B00621E0892B09F420E0822F089528
:10107000E9E0F4E01382128288EE93E0A0E0B0E0B1
:1010800084839583A683B7838BED91E091838083DE
:1010900080E490E09587848729E230E037872687CF
:1010A0002BE230E0318B208B2AE230E0338B228B35
:1010B000958B848B8CE290E0978B868B118E128EB1
:1010C000138E148E0895AF92BF92CF92DF92EF925B
:1010D000FF920F931F93CF93DF936C017B018B01E2
:1010E000040F151FEB015E01AE18BF08C017D10732
:1010F00059F06991D601ED91FC910190F081E02DBC
:10110000C6010995892B79F7C501DF91CF911F9110
:101110000F91FF90EF90DF90CF90BF90AF90089528
:10112000FB0101900020E9F73197AF01461B570BF7
:10113000DC01ED91FC910280F381E02D0994EF92A6
:10114000FF920F931F93CF93DF938C017B01D0E02D
:10115000C0E0F701EC0FFD1F6491662361F0D80138
:10116000ED91FC910190F081E02DC8010995892B4A
:1011700011F02196EECFCE01DF91CF911F910F910B
:10118000FF90EF90089569EE71E00C9490080F9332
:101190001F93CF93DF93EC010E949F088C01CE0137
:1011A0000E94C308800F911FDF91CF911F910F9173
:1011B00008958F929F92AF92BF92EF92FF920F93FA
:1011C0001F93CF93DF93CDB7DEB7A1970FB6F894F7
:1011D000DEBF0FBECDBF7C01FA01CB0119A22230C8
:1011E00008F42AE08E010F5D1F4F822E912CB12C46
:1011F000A12CBF01A50194010E94E70AF901CA01CF
:101200006A300CF5605DD8016E938D01232B242B81
:10121000252B79F790E080E0109721F0BD01C70100
:101220000E949008A1960FB6F894DEBF0FBECDBF06
:10123000DF91CF911F910F91FF90EF90BF90AF90F2
:101240009F908F900895695CDECF2115310541F4A0
:10125000DC01ED91FC910190F081E02D642F099467
:101260000C94D9089A01462F50E070E060E00C948D
:1012700025090F931F93CF93DF93EC010E9432094E
:101280008C01CE010E94C308800F911FDF91CF9186
:101290001F910F91089508950E941B0A0E944B0907
:1012A0000E948303CDEED6E00E941B032097E1F35A
:1012B0000E94ED06F9CF1F920F920FB60F921124E4
:1012C0002F933F938F939F93AF93BF938091AB04E2
:1012D0009091AC04A091AD04B091AE043091AA04F9
:1012E00026E0230F2D3768F129E8230F0396A11D6F
:1012F000B11D2093AA048093AB049093AC04A093F7
:10130000AD04B093AE048091A6049091A704A0917F
:10131000A804B091A9040196A11DB11D8093A60453
:101320009093A704A093A804B093A904BF91AF9190
:101330009F918F913F912F910F900FBE0F901F9013
:1013400018950296A11DB11DD4CF2FB7F8946091C6
:10135000AB047091AC048091AD049091AE042FBFAA
:1013600008953FB7F8948091A6049091A704A091A6
:10137000A804B091A90422B708B600FE05C02F3F0B
:1013800019F00196A11DB11D3FBFBA2FA92F982FAB
:101390008827BC01CD01620F711D811D911D43E0A5
:1013A000660F771F881F991F4A95D1F708958F926E
:1013B0009F92AF92BF92CF92DF92EF92FF926B011A
:1013C0007C010E94B1094B015C01C114D104E1040C
:1013D000F104E9F00E94E60A0E94B109681979094E
:1013E0008A099B09683E73408105910570F321E0ED
:1013F000C21AD108E108F10888EE880E83E0981E31
:10140000A11CB11CC114D104E104F10429F7FF901F
:10141000EF90DF90CF90BF90AF909F908F90089506
:10142000000000008330910528F0880F991F059770
:101430000197F1F70895789483B7836083BF83B7EA
:10144000886483BF89B7816089BF82E08EBD8EB515
:1014500081608EBD8FB581608FBD85B5846085BD8F
:1014600085B5806485BD86E886B91AB8089584304C
:1014700059F028F4813099F0823089F00895853050
:1014800039F0873041F008958FB58F778FBD08957B
:101490008FB58F7DFBCF85B58F7D85BD089583B7D3
:1014A0008F7D83BF0895CF93DF9390E0FC01EB54D1
:1014B000FF4F24918B529F4FFC0184918823C9F0E8
:1014C00090E0880F991FFC01E75FFE4FA591B49152
:1014D000FC01E150FF4FC591D49161110DC09FB740
:1014E000F8948C91209582238C93888128232883DB
:1014F0009FBFDF91CF910895623051F49FB7F89468
:101500003C91822F809583238C93E8812E2BEFCF03
:101510008FB7F894EC912E2B2C938FBFEACF1F93AB
:10152000CF93DF93282F30E0F901EB56FF4F8491E2
:10153000F901EB54FF4FD491F901EB52FF4FC491E5
:10154000CC23A9F0162F81110E94370AEC2FF0E06E
:10155000EE0FFF1FE150FF4FA591B4918FB7F894A4
:10156000EC91111108C0D095DE23DC938FBFDF9181
:10157000CF911F910895DE2BF8CFCF93DF93282FC3
:1015800030E0F901EB56FF4F8491F901EB54FF4F26
:10159000D491F901EB52FF4FC491CC23A1F08111FA
:1015A0000E94370AEC2FF0E0EE0FFF1FEB50FF4FC9
:1015B000A591B491EC91ED2381E090E009F480E0F5
:1015C000DF91CF91089580E090E0FACF0895A1E2F5
:1015D0001A2EAA1BBB1BFD010DC0AA1FBB1FEE1FAD
:1015E000FF1FA217B307E407F50720F0A21BB30BF8
:1015F000E40BF50B661F771F881F991F1A9469F774
:1016000060957095809590959B01AC01BD01CF01CF
:101610000895EE0FFF1F0590F491E02D0994F894C2
:02162000FFCFFA
:10162200FF0A0B0C0D0E0F10111213141516171FB3
:101632001E1D1C1B1A1918000102030203040506D1
:1016420007090A0B0C0D0E0F1011121314161801B4
:1016520002030405060708090A0B0C0D0E0F1011F0
:1016620012131416180001160101030201120301DC
:101672001104020A05020B06020C07020D08020EF3
:1016820009020F0A02100B02110C02120D01180EB0
:1016920008180F081610081411081312081213085C
:1016A2001114081015080F16080E17080D18080C4B
:1016B20019080C1A080A1B08091C03091D030A1E33
:1016C200030B1F07182007162107142207132307ED
:1016D2001224071125071026070F27070E28080CCA
:1016E20029080C2A070B2B070A2C07092D010C2E9F
:1016F20006182F0616300614310613320612330668
:101702001134061035060F36060E37060D38060C54
:1017120039060B3A060A3B06093C030C3D05183E06
:1017220005163F05144005134105124205114305F4
:101732001044050F45050E46050D47050C48050BDF
:1017420049050A4A040A4B04184C04164D04144E67
:1017520004134F041250041151041052040F530485
:101762000E54040D55040C56050957040B58040970
:101772005903185A03165B03145C03135D03125ECC
:1017820003115F031060030F61030E62030D640215
:1017920018650216660214000000003C076308DEAA
:0C17A200061C07B006CA06BC060D0A00B3
:00000001FF
