:100000000C948C000C94B4000C94B4000C94B400C8
:100010000C94B4000C94B4000C94B4000C94B40090
:100020000C94B4000C94B4000C94B4000C945609D5
:100030000C94B4000C94D1070C9403080C94B400F5
:100040000C94B4000C94B4000C94B4000C94B40060
:100050000C94B4005A5820756E696B6579626F61B3
:1000600072642050532F3220636F6E74726F6C6C09
:1000700065722076312E300052656C65617365645F
:10008000206B65793A200050726573736564206B4C
:1000900065793A2000000000020000000000000026
:1000A0000005040007000000000000000000000040
:1000B000000000000001020408102040800102043A
:1000C0000810204080010204081020408001020432
:1000D000081020408002020202020202020404040C
:1000E00004040404040303030303030303010101E1
:1000F0000101010101000039003600330030000029
:10010000003B0038003500320000003A0037003470
:10011000003100007603330811241FBECFE5D8E07C
:10012000DEBFCDBF11E0A0E6B0E0E8E1F6E102C03D
:1001300005900D92AE3AB107D9F723E0AEEAB1E0EF
:1001400001C01D92A932B207E1F710E0CCE8D0E07F
:1001500004C02197FE010E94040BCA38D107C9F7D9
:100160000E9447090C940A0B0C940000EFEBF1E09D
:100170009F012F5B31402817390714F41192F8CFF3
:100180000895662329F0682F8BEB91E00C941206FA
:10019000682F8BEB91E00C941406662329F0682FEE
:1001A0008BEB91E00C942606682F8BEB91E00C947E
:1001B0003806CF93DF93D82FC62F68E770E0CC23A3
:1001C00011F067E870E083E892E00E949A0840E14D
:1001D00050E06D2F83E892E00E943409D83508F092
:1001E00099C0ED2FF0E0E950FF4F0C94040B79011A
:1001F0004B024E025102540257025A025D02600243
:100200006302660269026C0245021A024802260273
:100210006A01DE01E101E401E701EA01ED01F0011B
:10022000F301F601DB01FF01FC017C013D028501C8
:10023000BD01CF019901C001C601D501C901A501C8
:10024000B701BA010202050217023502F9018D0158
:10025000C30196019C019F01A201A801AB01AE015F
:100260000E0211027F0139024F01D801D201930120
:10027000CC019001B401B10108020B021402580133
:100280006D014102880155012F025B0182015E016F
:1002900032022C02670164017301700176016C2F38
:1002A00082E1DF91CF910C94C1006C2F84E1F9CFF2
:1002B0006C2F89E5F6CF6C2F81E1F3CF6C2F81E1B4
:1002C000DF91CF910C94CD006C2F81E7F9CF6C2F8B
:1002D00080E7F6CF6C2F8EE0E4CF6C2F85E7F0CF70
:1002E0006C2F82E7EDCF6C2F8BE6EACF6C2F84E783
:1002F000E7CF6C2F86E7D5CF6C2F86E6D2CF6C2F59
:100300008AE5CFCF6C2F89E2CCCF6C2F8DE0C9CF9F
:10031000C093AE01DF91CF9108956C2F8CE1C1CFD6
:100320006C2F82E3BECF6C2F81E2BBCF6C2F83E2B8
:10033000B8CF6C2F84E2B5CF6C2F8BE2B2CF6C2F8D
:1003400084E3AFCF6C2F83E3ACCF6C2F83E4A9CFD2
:100350006C2F8BE3A6CF6C2F82E4A3CF6C2F8BE4A2
:10036000A0CF6C2F8AE39DCF6C2F81E39ACF6C2FA7
:1003700084E497CF6C2F8DE494CF6C2F85E191CFDF
:100380006C2F8DE28ECF6C2F8BE18BCF6C2F8CE29C
:1003900088CF6C2F8CE385CF6C2F8AE282CF6C2FB5
:1003A0008DE17FCF6C2F82E27CCF6C2F85E379CFFC
:1003B0006C2F8AE176CF6C2F85E473CF6C2F86E1AA
:1003C00070CF6C2F8EE16DCF6C2F86E26ACF6C2FD1
:1003D00085E267CF6C2F8EE264CF6C2F86E361CF0E
:1003E0006C2F8DE35ECF6C2F8EE35BCF6C2F86E49A
:1003F00058CF6C2F88E555CF6C2F85E552CF6C2FE9
:100400008EE44FCF6C2F84E54CCF6C2F8BE549CF1A
:100410006C2F81E446CF6C2F89E443CF6C2F8CE4A2
:1004200040CF6C2F82E53DCF6C2F8AE43ACF6C2F02
:100430008DE537CF8BEB91E0CC2321F0DF91CF918D
:100440000C944E06DF91CF910C9465068BEB91E0F6
:10045000DF91CF910C9484066C2F8FE231CF6C2FFB
:1004600087E22ECF6C2F8FE12BCF6C2F8DE70E9470
:10047000CD006C2F8AE70E94CD006C2F8CE60E9485
:10048000CD006C2F89E60E94CD006C2F87E709CF45
:100490006C2F8EE706CF6C2F85E003CF6C2F86E0A4
:1004A00000CF6C2F84E0FDCE6C2F8CE0FACE6C2F49
:1004B00083E0F7CE6C2F8BE0F4CE6C2F83E8F1CE87
:1004C0006C2F8AE0EECE6C2F81E0EBCE6C2F89E0B2
:1004D000E8CE6C2F88E7E5CE6C2F87E0E2CEE1E92D
:1004E000F0E050813181A9E8B0E090E080E02D910A
:1004F000321719F04281241301C0892F9F5F983071
:10050000B1F7ABE7B0E090E020E04D91341719F07F
:100510006281461301C0292F9F5F9E30B1F7989FDB
:10052000C00111248D5E9D4F820F911DDC015C93F3
:100530003396B1E0E939FB07A1F60895BF92CF9257
:10054000DF92EF92FF920F931F93CF93DF9303E11C
:1005500012E0D12CCC24C394C9E8D0E0F12CE9916D
:10056000F0E0E05AFF4FE080FD1409F44DC062E076
:100570008E2D0E944E0AF39488E0F812F0CF8BE79C
:10058000E82E80E0F82ED0E0C0E0F801EC0FFD1F6F
:10059000B080D701ED917D01F0E0E05AFF4F8081FE
:1005A0000E94B80AEB2DF0E0E154FE4F892BA9F52B
:1005B0008081811115C0C08261E08B2D0E94D9001D
:1005C0008091AF019091B001A091B101B091B201C1
:1005D0008093B3019093B401A093B501B093B60199
:1005E0002196CE30D10589F6D394025F1F4FB8E033
:1005F000DB12B2CFDF91CF911F910F91FF90EF905F
:10060000DF90CF90BF90089561E08E2D0E944E0A3A
:1006100060E08E2D0E948A0AAECF8081882301F38C
:10062000108260E08B2D0E94D900DACF0F931F93C8
:10063000CF93DF931F92CDB7DEB70E94A0096093DE
:10064000AF017093B0018093B1019093B201198210
:100650000091B7011091B8012091B9013091BA0110
:10066000601B710B820B930B6B307105810591053B
:10067000B8F0BE016F5F7F4F8BEB91E00E94EB05FE
:100680008091AF019091B001A091B101B091B20100
:100690008093B7019093B801A093B901B093BA01C8
:1006A0000E949E028091AF019091B001A091B10192
:1006B000B091B2014091B3015091B4016091B50184
:1006C0007091B601841B950BA60BB70B60E08436C6
:1006D0009105A105B10508F061E084E00E948A0A55
:1006E0000F90DF91CF911F910F91089547E050E057
:1006F00066E070E08BEB91E00C94D703CF93DF932F
:1007000026E040E052EC61E070E083E892E00E9475
:100710007E0783E892E00E94170761E084E00E9470
:100720004E0A61E084E00E948A0ACBE7D0E0E991BA
:10073000F0E0E05AFF4F62E080810E944E0A80E0C4
:10074000C938D807A1F7C9E8D0E0E991F0E0E05A4C
:10075000FF4F62E080810E944E0A80E0C139D807D5
:10076000A1F784E590E00E94B6000E946F0264E564
:1007700070E083E892E00E94C2088BEB91E0DF9189
:10078000CF910C946605CF93C82F60E00E948A0A2F
:1007900061E08C2FCF910C944E0ACF93C82F60E06C
:1007A0000E944E0A61E08C2FCF910C948A0ACF935D
:1007B000DF93EC01CB01798368835B834A830E94DA
:1007C000CD038A819B81DF91CF910C94CD03CF9291
:1007D000DF92EF92FF920F931F93CF93DF93EC0181
:1007E000162F88EE93E00E940B0A88810E94B80AB7
:1007F000892B09F492C08A810E94B80A892B09F4D6
:100800008FC08A819B810E94C30384E190E00E9493
:100810000B0A888199810E94C30388E290E00E94BC
:100820000B0A888199810E94CD0384E190E00E94A7
:100830000B0A28E0F22E01E0C12ED12C8A819B8187
:10084000212F2170E22E10FF62C00E94CD0384E1AF
:1008500090E00E940B0A888199810E94C30388E27C
:1008600090E00E940B0A888199810E94CD0384E167
:1008700090E00E940B0A8E2D8027D594C7941C2DE2
:10088000FA94F11042C08A819B81E01609F442C0BB
:100890000E94CD0384E190E00E940B0A8881998137
:1008A0000E94C30388E290E00E940B0A888199812C
:1008B0000E94CD0384E190E00E940B0A8A819B8113
:1008C0000E94CD0384E190E00E940B0A8881998107
:1008D0000E94C30388E290E00E940B0A88819981FC
:1008E0000E94CD0384E190E00E940B0A88EE93E021
:1008F0000E940B0A90E080E0DF91CF911F910F9151
:10090000FF90EF90DF90CF900895082F95CF0E9431
:10091000C3039DCF0E94C303BDCF8FEF9FEFECCFEA
:100920008EEF9FEFE9CFCF93DF93EC018A810E9496
:10093000B80A21E0892B39F088810E94B80A21E0A9
:10094000892B09F020E0822F90E0DF91CF9108956C
:100950006F927F928F929F92AF92BF92CF92DF92CF
:10096000EF92FF920F931F93CF93DF93EC014B0114
:100970000E94A0096B017C018A810E94B80A8C0147
:10098000892B71F00E94A0096C197D098E099F09BD
:100990006F3171058105910578F30FEF1FEF86C068
:1009A00088810E94B80A019769F784E190E00E946B
:1009B0000B0A888199810E94C30388E290E00E941B
:1009C0000B0A888199810E94CD0384E190E00E9406
:1009D0000B0A98E0C92ED12C77247394F12CE12CCA
:1009E000AA24A394B12C662463948A810E94B80A35
:1009F000019719F4EA28FB287624AA0CBB1C84E191
:100A000090E00E940B0A888199810E94C30388E2CA
:100A100090E00E940B0A888199810E94CD0384E1B5
:100A200090E00E940B0A81E0C81AD108F1F68A8191
:100A30000E94B80A6C0184E190E00E940B0A888150
:100A400099810E94C30388E290E00E940B0A88818A
:100A500099810E94CD0384E190E00E940B0A84E119
:100A600090E00E940B0A8A819B810E94C3038881C7
:100A700099810E94C30388E290E00E940B0A88815A
:100A800099810E94CD0384E190E00E940B0A8A8143
:100A90009B810E94CD03F401E08281E0CA94CD28BD
:100AA00009F080E0871511F00EEF1FEFC801DF910C
:100AB000CF911F910F91FF90EF90DF90CF90BF905B
:100AC000AF909F908F907F906F900895CF93DF931A
:100AD000EC016AEACE010E94E703892BD1F76AE0B4
:100AE00070E080E090E0DF91CF910C94D209CF9339
:100AF000DF93EC016AEFCE010E94E703892BD1F767
:100B0000DF91CF910895EF92FF920F931F93CF93B0
:100B1000DF931F92CDB7DEB7E3E1E60FE33110F5C7
:100B20007A018C01F0E0E956FA4F0C94040BDC05D5
:100B3000DA05B205B805B205CF05B805B505B505A6
:100B4000B505B205B205B205B205B205B205B205EA
:100B5000B505AA050E9477056AEAC8010E94E70365
:100B6000892BD1F7F12CE12C11C00E947705FACF27
:100B70000E947705BE016F5F7F4FC8010E94A804E5
:100B80007C01892B79F7C8010E947705C7010F9076
:100B9000DF91CF911F910F91FF90EF9008950E94E8
:100BA00077056BEAC8010E94E70363E8C8010E9469
:100BB000E703D8CF6EEEFACF0E947705B701C801E0
:100BC0000E94A804892B19F4C8010E947705EE241D
:100BD000E394F12CDBCFEF92FF920F931F93CF930F
:100BE000DF931F92CDB7DEB78C017B010E94930487
:100BF000892B51F490E080E00F90DF91CF911F910D
:100C00000F91FF90EF900895BE016F5F7F4FC80175
:100C10000E94A804892B71F7A7016981C8010E946D
:100C20008305EACF0C94E7031F93CF93DF93EC0186
:100C3000162F60EF0E94E703612FCE010E94E703A9
:100C400090E080E0DF91CF911F9108951F93CF93A3
:100C5000DF93EC01162F60EE0E94E703612FCE01B7
:100C60000E94E70390E080E0DF91CF911F9108950B
:100C70001F93CF93DF93EC01162F60EE0E94E703E2
:100C800060EFCE010E94E703612FCE010E94E703CF
:100C900090E080E0DF91CF911F910895CF93DF9393
:100CA000EC0160EE0E94E70362E1CE010E94E703DF
:100CB00060EECE010E94E7036CE7CE010E94E703DD
:100CC00090E080E0DF91CF910895CF93DF93EC0126
:100CD00060EE0E94E70360EFCE010E94E7036CE73D
:100CE000CE010E94E70360EECE010E94E70360EFB1
:100CF000CE010E94E70362E1CE010E94E70390E08B
:100D000080E0DF91CF910895CF93DF93EC0161EE06
:100D10000E94E70364E1CE010E94E70367E7CE018A
:100D20000E94E70361EECE010E94E70360EFCE016F
:100D30000E94E70364E1CE010E94E70360EECE016A
:100D40000E94E70367E7CE010E94E70390E080E09E
:100D5000DF91CF910895FC01918D228D892F90E034
:100D6000805C9F4F821B91098F7399270895FC0126
:100D7000918D828D981731F0828DE80FF11D858D50
:100D800090E008958FEF9FEF0895FC01918D828D83
:100D9000981761F0A28DAE0FBF2FB11D5D968C919B
:100DA000928D9F5F9F73928F90E008958FEF9FEFDA
:100DB0000895FC01538D448D252F30E0842F90E061
:100DC000821B930B541710F0CF9608950197089546
:100DD00089E298E0892B49F080E090E0892B29F0A6
:100DE0000E94290881110C9400000895FC01A48D33
:100DF000A80FB92FB11DA35ABF4F2C91848D90E03D
:100E000001968F739927848FA689B7892C93A0891F
:100E1000B1898C9180648C93938D848D981306C0D6
:100E20000288F389E02D80818F7D80830895CF93A0
:100E3000DF93EC01888D8823B9F0AA89BB89E88902
:100E4000F9898C9185FD03C0808186FD0DC00FB6A8
:100E500007FCF7CF8C9185FFF2CF808185FFEDCF26
:100E6000CE010E94F606E9CFDF91CF910895EF926F
:100E7000FF920F931F93CF93DF93EC0181E0888F54
:100E80009B8D8C8D981316C0E889F989808185FF28
:100E900011C0EE89FF896083E889F98980818064C7
:100EA000808381E090E0DF91CF911F910F91FF90BF
:100EB000EF900895F62E0B8D10E00F5F1F4F0F730C
:100EC0001127E02E8C8D8E110CC00FB607FCFACFC7
:100ED000E889F989808185FFF5CFCE010E94F60669
:100EE000F1CFEB8DEC0FFD2FF11DE35AFF4FF08298
:100EF0000B8FEA89FB8980818062D2CFCF92DF920B
:100F0000EF92FF921F93CF93DF93EC016A017B0175
:100F1000122F60E874E88EE190E0A70196010E942C
:100F2000E20A2150310941095109569547953795F3
:100F30002795E889F98982E08083211580E13807C7
:100F400098F0E889F989108260E472E48FE090E01B
:100F5000A70196010E94E20A215031094109510975
:100F60005695479537952795EC85FD853083EE8519
:100F7000FF852083188E1068EC89FD891083EA892B
:100F8000FB89808188698083EA89FB8980818F7DE4
:100F90008083DF91CF911F91FF90EF90DF90CF90F2
:100FA00008951F920F920FB60F9211242F938F93D3
:100FB0009F93EF93FF93E0919302F09194028081CD
:100FC000E0919902F0919A0282FD1BC0908180917C
:100FD0009C028F5F8F7320919D02821741F0E091F8
:100FE0009C02F0E0ED57FD4F958F80939C02FF919E
:100FF000EF919F918F912F910F900FBE0F901F90A7
:1010000018958081F4CF1F920F920FB60F92112482
:101010002F933F934F935F936F937F938F939F9300
:10102000AF93BF93EF93FF9383E892E00E94F6069D
:10103000FF91EF91BF91AF919F918F917F916F91B0
:101040005F914F913F912F910F900FBE0F901F9086
:10105000189583E892E00E94AB0621E0892B09F401
:1010600020E0822F0895E3E8F2E01382128288EEF6
:1010700093E0A0E0B0E084839583A683B7838DE9F5
:1010800091E09183808380E490E09587848729E2D2
:1010900030E0378726872BE230E0318B208B2AE245
:1010A00030E0338B228B958B848B8CE290E0978B96
:1010B000868B118E128E138E148E0895AF92BF926E
:1010C000CF92DF92EF92FF920F931F93CF93DF9314
:1010D0006C017B018B01040F151FEB015E01AE1843
:1010E000BF08C017D10759F06991D601ED91FC9165
:1010F0000190F081E02DC6010995892B79F7C50192
:10110000DF91CF911F910F91FF90EF90DF90CF90E3
:10111000BF90AF900895FB0101900020E9F731974F
:10112000AF01461B570BDC01ED91FC910280F3816E
:10113000E02D0994EF92FF920F931F93CF93DF93CB
:101140008C017B01D0E0C0E0F701EC0FFD1F649142
:10115000662361F0D801ED91FC910190F081E02DC2
:10116000C8010995892B11F02196EECFCE01DF91B0
:10117000CF911F910F91FF90EF9008956BEA71E06E
:101180000C948B080F931F93CF93DF93EC010E9475
:101190009A088C01CE010E94BE08800F911FDF913A
:1011A000CF911F910F9108958F929F92AF92BF920E
:1011B000EF92FF920F931F93CF93DF93CDB7DEB7DC
:1011C000A1970FB6F894DEBF0FBECDBF7C01FA0128
:1011D000CB0119A2223008F42AE08E010F5D1F4FC7
:1011E000822E912CB12CA12CBF01A50194010E944B
:1011F000E20AF901CA016A300CF5605DD8016E930C
:101200008D01232B242B252B79F790E080E010977C
:1012100021F0BD01C7010E948B08A1960FB6F8947A
:10122000DEBF0FBECDBFDF91CF911F910F91FF9019
:10123000EF90BF90AF909F908F900895695CDECF44
:101240002115310541F4DC01ED91FC910190F08113
:10125000E02D642F09940C94D4089A01462F50E095
:1012600070E060E00C9420090F931F93CF93DF93FD
:10127000EC010E942D098C01CE010E94BE08800F56
:10128000911FDF91CF911F910F91089508950E94B2
:10129000160A0E9446090E947E03C8EED6E00E940C
:1012A00016032097E1F30E94E806F9CF1F920F92F0
:1012B0000FB60F9211242F933F938F939F93AF9369
:1012C000BF938091250390912603A0912703B091AD
:1012D00028033091240326E0230F2D3768F129E8F5
:1012E000230F0396A11DB11D209324038093250392
:1012F00090932603A0932703B093280380912003A3
:1013000090912103A0912203B09123030196A11D86
:10131000B11D8093200390932103A0932203B093E7
:101320002303BF91AF919F918F913F912F910F9088
:101330000FBE0F901F9018950296A11DB11DD4CF1E
:101340002FB7F894609125037091260380912703AD
:10135000909128032FBF08953FB7F8948091200300
:1013600090912103A0912203B091230322B708B6E4
:1013700000FE05C02F3F19F00196A11DB11D3FBF12
:10138000BA2FA92F982F8827BC01CD01620F711D9C
:10139000811D911D43E0660F771F881F991F4A9595
:1013A000D1F708958F929F92AF92BF92CF92DF9222
:1013B000EF92FF926B017C010E94AC094B015C0132
:1013C000C114D104E104F104E9F00E94E10A0E9491
:1013D000AC09681979098A099B09683E734081053F
:1013E000910570F321E0C21AD108E108F10888EEF6
:1013F000880E83E0981EA11CB11CC114D104E10425
:10140000F10429F7FF90EF90DF90CF90BF90AF905D
:101410009F908F900895000000008330910528F080
:10142000880F991F05970197F1F70895789483B76E
:10143000836083BF83B7886483BF89B7816089BFB6
:1014400082E08EBD8EB581608EBD8FB581608FBD0F
:1014500085B5846085BD85B5806485BD86E886B91F
:101460001AB80895843059F028F4813099F0823008
:1014700089F00895853039F0873041F008958FB5AF
:101480008F778FBD08958FB58F7DFBCF85B58F7D0D
:1014900085BD089583B78F7D83BF0895CF93DF9374
:1014A00090E0FC01EB54FF4F24918B529F4FFC01C5
:1014B00084918823C9F090E0880F991FFC01E75FB1
:1014C000FE4FA591B491FC01E150FF4FC591D4911D
:1014D00061110DC09FB7F8948C91209582238C9355
:1014E0008881282328839FBFDF91CF9108956230A0
:1014F00051F49FB7F8943C91822F809583238C936D
:10150000E8812E2BEFCF8FB7F894EC912E2B2C93F4
:101510008FBFEACF1F93CF93DF93282F30E0F901DD
:10152000EB56FF4F8491F901EB54FF4FD491F90131
:10153000EB52FF4FC491CC23A9F0162F81110E94CA
:10154000320AEC2FF0E0EE0FFF1FE150FF4FA591A4
:10155000B4918FB7F894EC91111108C0D095DE23A7
:10156000DC938FBFDF91CF911F910895DE2BF8CFD1
:10157000CF93DF93282F30E0F901EB56FF4F849192
:10158000F901EB54FF4FD491F901EB52FF4FC49195
:10159000CC23A1F081110E94320AEC2FF0E0EE0F73
:1015A000FF1FEB50FF4FA591B491EC91ED2381E02B
:1015B00090E009F480E0DF91CF91089580E090E021
:1015C000FACF0895A1E21A2EAA1BBB1BFD010DC084
:1015D000AA1FBB1FEE1FFF1FA217B307E407F507E3
:1015E00020F0A21BB30BE40BF50B661F771F881FBF
:1015F000991F1A9469F760957095809590959B0155
:10160000AC01BD01CF010895EE0FFF1F0590F491CD
:08161000E02D0994F894FFCFCE
:10161800FF0A0B0C0D0E0F10111213141516171FBD
:101628001E1D1C1B1A191800010203090A0B0C0DB8
:101638000E0F1011121314161801020304050607E1
:1016480008000818010816020814030813040812F1
:1016580005081106081007080F08080E09080D0AE2
:10166800080C0B080B0C080A0D08090E03090F03D8
:101678000A10030B1107181207161307141407137F
:1016880015071216071117071018070F19070E1A52
:10169800070D1B070C1C070B1D070A1E07091F0156
:1016A8000C200618210616220614230613240612F7
:1016B80025061126061027060F28060E29060D2ACC
:1016C800060C2B060B2C060A2D06092E030C2F05DB
:1016D8001830051631051432051333051234051177
:1016E80035051036050F37050E38050D39050C3A46
:1016F800050B3B050A3C040A3D04183E04163F044A
:101708001440041341041242041143041044040F0A
:1017180045040E46040D47040C48050949040B4AC4
:1017280004094B03184C03164D03144E03134F03BF
:101738001250031151031052030F53030E54030D9B
:101748005502185602165702140000000037075EAB
:0E17580008D9061707AB06C506B7060D0A002E
:00000001FF
